{
  "_format": "hh-sol-artifact-1",
  "contractName": "MintMessage",
  "sourceName": "contracts/MintMessage.sol",
  "abi": [
    {
      "inputs": [],
      "stateMutability": "nonpayable",
      "type": "constructor"
    },
    {
      "anonymous": false,
      "inputs": [
        {
          "indexed": true,
          "internalType": "address",
          "name": "owner",
          "type": "address"
        },
        {
          "indexed": true,
          "internalType": "address",
          "name": "approved",
          "type": "address"
        },
        {
          "indexed": true,
          "internalType": "uint256",
          "name": "tokenId",
          "type": "uint256"
        }
      ],
      "name": "Approval",
      "type": "event"
    },
    {
      "anonymous": false,
      "inputs": [
        {
          "indexed": true,
          "internalType": "address",
          "name": "owner",
          "type": "address"
        },
        {
          "indexed": true,
          "internalType": "address",
          "name": "operator",
          "type": "address"
        },
        {
          "indexed": false,
          "internalType": "bool",
          "name": "approved",
          "type": "bool"
        }
      ],
      "name": "ApprovalForAll",
      "type": "event"
    },
    {
      "anonymous": false,
      "inputs": [
        {
          "indexed": false,
          "internalType": "address",
          "name": "sender",
          "type": "address"
        },
        {
          "indexed": false,
          "internalType": "uint256",
          "name": "tokenId",
          "type": "uint256"
        }
      ],
      "name": "NewMessageMinted",
      "type": "event"
    },
    {
      "anonymous": false,
      "inputs": [
        {
          "indexed": true,
          "internalType": "address",
          "name": "previousOwner",
          "type": "address"
        },
        {
          "indexed": true,
          "internalType": "address",
          "name": "newOwner",
          "type": "address"
        }
      ],
      "name": "OwnershipTransferred",
      "type": "event"
    },
    {
      "anonymous": false,
      "inputs": [
        {
          "indexed": true,
          "internalType": "address",
          "name": "from",
          "type": "address"
        },
        {
          "indexed": true,
          "internalType": "address",
          "name": "to",
          "type": "address"
        },
        {
          "indexed": true,
          "internalType": "uint256",
          "name": "tokenId",
          "type": "uint256"
        }
      ],
      "name": "Transfer",
      "type": "event"
    },
    {
      "inputs": [
        {
          "internalType": "address",
          "name": "to",
          "type": "address"
        },
        {
          "internalType": "uint256",
          "name": "tokenId",
          "type": "uint256"
        }
      ],
      "name": "approve",
      "outputs": [],
      "stateMutability": "nonpayable",
      "type": "function"
    },
    {
      "inputs": [
        {
          "internalType": "address",
          "name": "owner",
          "type": "address"
        }
      ],
      "name": "balanceOf",
      "outputs": [
        {
          "internalType": "uint256",
          "name": "",
          "type": "uint256"
        }
      ],
      "stateMutability": "view",
      "type": "function"
    },
    {
      "inputs": [
        {
          "internalType": "uint256",
          "name": "tokenId",
          "type": "uint256"
        }
      ],
      "name": "burn",
      "outputs": [],
      "stateMutability": "nonpayable",
      "type": "function"
    },
    {
      "inputs": [
        {
          "internalType": "string",
          "name": "tokenURI",
          "type": "string"
        },
        {
          "internalType": "address",
          "name": "to",
          "type": "address"
        }
      ],
      "name": "createToken",
      "outputs": [
        {
          "internalType": "uint256",
          "name": "",
          "type": "uint256"
        }
      ],
      "stateMutability": "payable",
      "type": "function"
    },
    {
      "inputs": [
        {
          "internalType": "uint256",
          "name": "tokenId",
          "type": "uint256"
        }
      ],
      "name": "getApproved",
      "outputs": [
        {
          "internalType": "address",
          "name": "",
          "type": "address"
        }
      ],
      "stateMutability": "view",
      "type": "function"
    },
    {
      "inputs": [],
      "name": "getMintPrice",
      "outputs": [
        {
          "internalType": "uint256",
          "name": "",
          "type": "uint256"
        }
      ],
      "stateMutability": "view",
      "type": "function"
    },
    {
      "inputs": [
        {
          "internalType": "address",
          "name": "owner",
          "type": "address"
        },
        {
          "internalType": "address",
          "name": "operator",
          "type": "address"
        }
      ],
      "name": "isApprovedForAll",
      "outputs": [
        {
          "internalType": "bool",
          "name": "",
          "type": "bool"
        }
      ],
      "stateMutability": "view",
      "type": "function"
    },
    {
      "inputs": [],
      "name": "name",
      "outputs": [
        {
          "internalType": "string",
          "name": "",
          "type": "string"
        }
      ],
      "stateMutability": "view",
      "type": "function"
    },
    {
      "inputs": [],
      "name": "owner",
      "outputs": [
        {
          "internalType": "address",
          "name": "",
          "type": "address"
        }
      ],
      "stateMutability": "view",
      "type": "function"
    },
    {
      "inputs": [
        {
          "internalType": "uint256",
          "name": "tokenId",
          "type": "uint256"
        }
      ],
      "name": "ownerOf",
      "outputs": [
        {
          "internalType": "address",
          "name": "",
          "type": "address"
        }
      ],
      "stateMutability": "view",
      "type": "function"
    },
    {
      "inputs": [],
      "name": "renounceOwnership",
      "outputs": [],
      "stateMutability": "nonpayable",
      "type": "function"
    },
    {
      "inputs": [
        {
          "internalType": "address",
          "name": "from",
          "type": "address"
        },
        {
          "internalType": "address",
          "name": "to",
          "type": "address"
        },
        {
          "internalType": "uint256",
          "name": "tokenId",
          "type": "uint256"
        }
      ],
      "name": "safeTransferFrom",
      "outputs": [],
      "stateMutability": "nonpayable",
      "type": "function"
    },
    {
      "inputs": [
        {
          "internalType": "address",
          "name": "from",
          "type": "address"
        },
        {
          "internalType": "address",
          "name": "to",
          "type": "address"
        },
        {
          "internalType": "uint256",
          "name": "tokenId",
          "type": "uint256"
        },
        {
          "internalType": "bytes",
          "name": "data",
          "type": "bytes"
        }
      ],
      "name": "safeTransferFrom",
      "outputs": [],
      "stateMutability": "nonpayable",
      "type": "function"
    },
    {
      "inputs": [
        {
          "internalType": "address",
          "name": "operator",
          "type": "address"
        },
        {
          "internalType": "bool",
          "name": "approved",
          "type": "bool"
        }
      ],
      "name": "setApprovalForAll",
      "outputs": [],
      "stateMutability": "nonpayable",
      "type": "function"
    },
    {
      "inputs": [
        {
          "internalType": "bytes4",
          "name": "interfaceId",
          "type": "bytes4"
        }
      ],
      "name": "supportsInterface",
      "outputs": [
        {
          "internalType": "bool",
          "name": "",
          "type": "bool"
        }
      ],
      "stateMutability": "view",
      "type": "function"
    },
    {
      "inputs": [],
      "name": "symbol",
      "outputs": [
        {
          "internalType": "string",
          "name": "",
          "type": "string"
        }
      ],
      "stateMutability": "view",
      "type": "function"
    },
    {
      "inputs": [
        {
          "internalType": "uint256",
          "name": "tokenId",
          "type": "uint256"
        }
      ],
      "name": "tokenURI",
      "outputs": [
        {
          "internalType": "string",
          "name": "",
          "type": "string"
        }
      ],
      "stateMutability": "view",
      "type": "function"
    },
    {
      "inputs": [
        {
          "internalType": "address",
          "name": "from",
          "type": "address"
        },
        {
          "internalType": "address",
          "name": "to",
          "type": "address"
        },
        {
          "internalType": "uint256",
          "name": "tokenId",
          "type": "uint256"
        }
      ],
      "name": "transferFrom",
      "outputs": [],
      "stateMutability": "nonpayable",
      "type": "function"
    },
    {
      "inputs": [
        {
          "internalType": "address",
          "name": "newOwner",
          "type": "address"
        }
      ],
      "name": "transferOwnership",
      "outputs": [],
      "stateMutability": "nonpayable",
      "type": "function"
    },
    {
      "inputs": [
        {
          "internalType": "uint256",
          "name": "_mintPrice",
          "type": "uint256"
        }
      ],
      "name": "updateMintPrice",
      "outputs": [],
      "stateMutability": "payable",
      "type": "function"
    }
  ],
  "bytecode": "0x608060405260006009553480156200001657600080fd5b506040518060400160405280600b81526020017f4d696e744d6573736167650000000000000000000000000000000000000000008152506040518060400160405280600381526020017f4d53470000000000000000000000000000000000000000000000000000000000815250816000908162000094919062000417565b508060019081620000a6919062000417565b505050620000c9620000bd620000cf60201b60201c565b620000d760201b60201c565b620004fe565b600033905090565b6000600760009054906101000a900473ffffffffffffffffffffffffffffffffffffffff16905081600760006101000a81548173ffffffffffffffffffffffffffffffffffffffff021916908373ffffffffffffffffffffffffffffffffffffffff1602179055508173ffffffffffffffffffffffffffffffffffffffff168173ffffffffffffffffffffffffffffffffffffffff167f8be0079c531659141344cd1fd0a4f28419497f9722a3daafe3b4186f6b6457e060405160405180910390a35050565b600081519050919050565b7f4e487b7100000000000000000000000000000000000000000000000000000000600052604160045260246000fd5b7f4e487b7100000000000000000000000000000000000000000000000000000000600052602260045260246000fd5b600060028204905060018216806200021f57607f821691505b602082108103620002355762000234620001d7565b5b50919050565b60008190508160005260206000209050919050565b60006020601f8301049050919050565b600082821b905092915050565b6000600883026200029f7fffffffffffffffffffffffffffffffffffffffffffffffffffffffffffffffff8262000260565b620002ab868362000260565b95508019841693508086168417925050509392505050565b6000819050919050565b6000819050919050565b6000620002f8620002f2620002ec84620002c3565b620002cd565b620002c3565b9050919050565b6000819050919050565b6200031483620002d7565b6200032c6200032382620002ff565b8484546200026d565b825550505050565b600090565b6200034362000334565b6200035081848462000309565b505050565b5b8181101562000378576200036c60008262000339565b60018101905062000356565b5050565b601f821115620003c75762000391816200023b565b6200039c8462000250565b81016020851015620003ac578190505b620003c4620003bb8562000250565b83018262000355565b50505b505050565b600082821c905092915050565b6000620003ec60001984600802620003cc565b1980831691505092915050565b6000620004078383620003d9565b9150826002028217905092915050565b62000422826200019d565b67ffffffffffffffff8111156200043e576200043d620001a8565b5b6200044a825462000206565b620004578282856200037c565b600060209050601f8311600181146200048f57600084156200047a578287015190505b620004868582620003f9565b865550620004f6565b601f1984166200049f866200023b565b60005b82811015620004c957848901518255600182019150602085019450602081019050620004a2565b86831015620004e95784890151620004e5601f891682620003d9565b8355505b6001600288020188555050505b505050505050565b6131c2806200050e6000396000f3fe60806040526004361061011e5760003560e01c8063715018a6116100a0578063a7f93ebd11610064578063a7f93ebd146103c8578063b88d4fde146103f3578063c87b56dd1461041c578063e985e9c514610459578063f2fde38b146104965761011e565b8063715018a6146103025780638da5cb5b1461031957806395d89b4114610344578063a21193771461036f578063a22cb4651461039f5761011e565b806323b872dd116100e757806323b872dd1461020d57806342842e0e1461023657806342966c681461025f5780636352211e1461028857806370a08231146102c55761011e565b8062728e461461012357806301ffc9a71461013f57806306fdde031461017c578063081812fc146101a7578063095ea7b3146101e4575b600080fd5b61013d60048036038101906101389190611df8565b6104bf565b005b34801561014b57600080fd5b5061016660048036038101906101619190611e7d565b6104d1565b6040516101739190611ec5565b60405180910390f35b34801561018857600080fd5b506101916105b3565b60405161019e9190611f70565b60405180910390f35b3480156101b357600080fd5b506101ce60048036038101906101c99190611df8565b610645565b6040516101db9190611fd3565b60405180910390f35b3480156101f057600080fd5b5061020b6004803603810190610206919061201a565b61068b565b005b34801561021957600080fd5b50610234600480360381019061022f919061205a565b6107a2565b005b34801561024257600080fd5b5061025d6004803603810190610258919061205a565b610802565b005b34801561026b57600080fd5b5061028660048036038101906102819190611df8565b610822565b005b34801561029457600080fd5b506102af60048036038101906102aa9190611df8565b61087e565b6040516102bc9190611fd3565b60405180910390f35b3480156102d157600080fd5b506102ec60048036038101906102e791906120ad565b61092f565b6040516102f991906120e9565b60405180910390f35b34801561030e57600080fd5b506103176109e6565b005b34801561032557600080fd5b5061032e6109fa565b60405161033b9190611fd3565b60405180910390f35b34801561035057600080fd5b50610359610a24565b6040516103669190611f70565b60405180910390f35b61038960048036038101906103849190612239565b610ab6565b60405161039691906120e9565b60405180910390f35b3480156103ab57600080fd5b506103c660048036038101906103c191906122c1565b610b32565b005b3480156103d457600080fd5b506103dd610b48565b6040516103ea91906120e9565b60405180910390f35b3480156103ff57600080fd5b5061041a600480360381019061041591906123a2565b610b52565b005b34801561042857600080fd5b50610443600480360381019061043e9190611df8565b610bb4565b6040516104509190611f70565b60405180910390f35b34801561046557600080fd5b50610480600480360381019061047b9190612425565b610bc6565b60405161048d9190611ec5565b60405180910390f35b3480156104a257600080fd5b506104bd60048036038101906104b891906120ad565b610c5a565b005b6104c7610cdd565b8060098190555050565b60007f80ac58cd000000000000000000000000000000000000000000000000000000007bffffffffffffffffffffffffffffffffffffffffffffffffffffffff1916827bffffffffffffffffffffffffffffffffffffffffffffffffffffffff1916148061059c57507f5b5e139f000000000000000000000000000000000000000000000000000000007bffffffffffffffffffffffffffffffffffffffffffffffffffffffff1916827bffffffffffffffffffffffffffffffffffffffffffffffffffffffff1916145b806105ac57506105ab82610d5b565b5b9050919050565b6060600080546105c290612494565b80601f01602080910402602001604051908101604052809291908181526020018280546105ee90612494565b801561063b5780601f106106105761010080835404028352916020019161063b565b820191906000526020600020905b81548152906001019060200180831161061e57829003601f168201915b5050505050905090565b600061065082610dc5565b6004600083815260200190815260200160002060009054906101000a900473ffffffffffffffffffffffffffffffffffffffff169050919050565b60006106968261087e565b90508073ffffffffffffffffffffffffffffffffffffffff168373ffffffffffffffffffffffffffffffffffffffff1603610706576040517f08c379a00000000000000000000000000000000000000000000000000000000081526004016106fd90612537565b60405180910390fd5b8073ffffffffffffffffffffffffffffffffffffffff16610725610e10565b73ffffffffffffffffffffffffffffffffffffffff16148061075457506107538161074e610e10565b610bc6565b5b610793576040517f08c379a000000000000000000000000000000000000000000000000000000000815260040161078a906125c9565b60405180910390fd5b61079d8383610e18565b505050565b6107b36107ad610e10565b82610ed1565b6107f2576040517f08c379a00000000000000000000000000000000000000000000000000000000081526004016107e99061265b565b60405180910390fd5b6107fd838383610f66565b505050565b61081d83838360405180602001604052806000815250610b52565b505050565b61083361082d610e10565b82610ed1565b610872576040517f08c379a00000000000000000000000000000000000000000000000000000000081526004016108699061265b565b60405180910390fd5b61087b816111cc565b50565b6000806002600084815260200190815260200160002060009054906101000a900473ffffffffffffffffffffffffffffffffffffffff169050600073ffffffffffffffffffffffffffffffffffffffff168173ffffffffffffffffffffffffffffffffffffffff1603610926576040517f08c379a000000000000000000000000000000000000000000000000000000000815260040161091d906126c7565b60405180910390fd5b80915050919050565b60008073ffffffffffffffffffffffffffffffffffffffff168273ffffffffffffffffffffffffffffffffffffffff160361099f576040517f08c379a000000000000000000000000000000000000000000000000000000000815260040161099690612759565b60405180910390fd5b600360008373ffffffffffffffffffffffffffffffffffffffff1673ffffffffffffffffffffffffffffffffffffffff168152602001908152602001600020549050919050565b6109ee610cdd565b6109f860006111d8565b565b6000600760009054906101000a900473ffffffffffffffffffffffffffffffffffffffff16905090565b606060018054610a3390612494565b80601f0160208091040260200160405190810160405280929190818152602001828054610a5f90612494565b8015610aac5780601f10610a8157610100808354040283529160200191610aac565b820191906000526020600020905b815481529060010190602001808311610a8f57829003601f168201915b5050505050905090565b60006009543414610ac657600080fd5b610ad0600861129e565b6000610adc60086112b4565b9050610ae883826112c2565b610af2818561149b565b7f87d01a9b31f5efdbffd1db7e6b02774d01b4f1c3aaa4cd6c25e5723a7c13c7b03382604051610b23929190612779565b60405180910390a15092915050565b610b44610b3d610e10565b8383611508565b5050565b6000600954905090565b610b63610b5d610e10565b83610ed1565b610ba2576040517f08c379a0000000000000000000000000000000000000000000000000000000008152600401610b999061265b565b60405180910390fd5b610bae84848484611674565b50505050565b6060610bbf826116d0565b9050919050565b6000600560008473ffffffffffffffffffffffffffffffffffffffff1673ffffffffffffffffffffffffffffffffffffffff16815260200190815260200160002060008373ffffffffffffffffffffffffffffffffffffffff1673ffffffffffffffffffffffffffffffffffffffff16815260200190815260200160002060009054906101000a900460ff16905092915050565b610c62610cdd565b600073ffffffffffffffffffffffffffffffffffffffff168173ffffffffffffffffffffffffffffffffffffffff1603610cd1576040517f08c379a0000000000000000000000000000000000000000000000000000000008152600401610cc890612814565b60405180910390fd5b610cda816111d8565b50565b610ce5610e10565b73ffffffffffffffffffffffffffffffffffffffff16610d036109fa565b73ffffffffffffffffffffffffffffffffffffffff1614610d59576040517f08c379a0000000000000000000000000000000000000000000000000000000008152600401610d5090612880565b60405180910390fd5b565b60007f01ffc9a7000000000000000000000000000000000000000000000000000000007bffffffffffffffffffffffffffffffffffffffffffffffffffffffff1916827bffffffffffffffffffffffffffffffffffffffffffffffffffffffff1916149050919050565b610dce816117e2565b610e0d576040517f08c379a0000000000000000000000000000000000000000000000000000000008152600401610e04906126c7565b60405180910390fd5b50565b600033905090565b816004600083815260200190815260200160002060006101000a81548173ffffffffffffffffffffffffffffffffffffffff021916908373ffffffffffffffffffffffffffffffffffffffff160217905550808273ffffffffffffffffffffffffffffffffffffffff16610e8b8361087e565b73ffffffffffffffffffffffffffffffffffffffff167f8c5be1e5ebec7d5bd14f71427d1e84f3dd0314c0f7b2291e5b200ac8c7c3b92560405160405180910390a45050565b600080610edd8361087e565b90508073ffffffffffffffffffffffffffffffffffffffff168473ffffffffffffffffffffffffffffffffffffffff161480610f1f5750610f1e8185610bc6565b5b80610f5d57508373ffffffffffffffffffffffffffffffffffffffff16610f4584610645565b73ffffffffffffffffffffffffffffffffffffffff16145b91505092915050565b8273ffffffffffffffffffffffffffffffffffffffff16610f868261087e565b73ffffffffffffffffffffffffffffffffffffffff1614610fdc576040517f08c379a0000000000000000000000000000000000000000000000000000000008152600401610fd390612912565b60405180910390fd5b600073ffffffffffffffffffffffffffffffffffffffff168273ffffffffffffffffffffffffffffffffffffffff160361104b576040517f08c379a0000000000000000000000000000000000000000000000000000000008152600401611042906129a4565b60405180910390fd5b61105683838361184e565b611061600082610e18565b6001600360008573ffffffffffffffffffffffffffffffffffffffff1673ffffffffffffffffffffffffffffffffffffffff16815260200190815260200160002060008282546110b191906129f3565b925050819055506001600360008473ffffffffffffffffffffffffffffffffffffffff1673ffffffffffffffffffffffffffffffffffffffff16815260200190815260200160002060008282546111089190612a27565b92505081905550816002600083815260200190815260200160002060006101000a81548173ffffffffffffffffffffffffffffffffffffffff021916908373ffffffffffffffffffffffffffffffffffffffff160217905550808273ffffffffffffffffffffffffffffffffffffffff168473ffffffffffffffffffffffffffffffffffffffff167fddf252ad1be2c89b69c2b068fc378daa952ba7f163c4a11628f55a4df523b3ef60405160405180910390a46111c7838383611853565b505050565b6111d581611858565b50565b6000600760009054906101000a900473ffffffffffffffffffffffffffffffffffffffff16905081600760006101000a81548173ffffffffffffffffffffffffffffffffffffffff021916908373ffffffffffffffffffffffffffffffffffffffff1602179055508173ffffffffffffffffffffffffffffffffffffffff168173ffffffffffffffffffffffffffffffffffffffff167f8be0079c531659141344cd1fd0a4f28419497f9722a3daafe3b4186f6b6457e060405160405180910390a35050565b6001816000016000828254019250508190555050565b600081600001549050919050565b600073ffffffffffffffffffffffffffffffffffffffff168273ffffffffffffffffffffffffffffffffffffffff1603611331576040517f08c379a000000000000000000000000000000000000000000000000000000000815260040161132890612aa7565b60405180910390fd5b61133a816117e2565b1561137a576040517f08c379a000000000000000000000000000000000000000000000000000000000815260040161137190612b13565b60405180910390fd5b6113866000838361184e565b6001600360008473ffffffffffffffffffffffffffffffffffffffff1673ffffffffffffffffffffffffffffffffffffffff16815260200190815260200160002060008282546113d69190612a27565b92505081905550816002600083815260200190815260200160002060006101000a81548173ffffffffffffffffffffffffffffffffffffffff021916908373ffffffffffffffffffffffffffffffffffffffff160217905550808273ffffffffffffffffffffffffffffffffffffffff16600073ffffffffffffffffffffffffffffffffffffffff167fddf252ad1be2c89b69c2b068fc378daa952ba7f163c4a11628f55a4df523b3ef60405160405180910390a461149760008383611853565b5050565b6114a4826117e2565b6114e3576040517f08c379a00000000000000000000000000000000000000000000000000000000081526004016114da90612ba5565b60405180910390fd5b806006600084815260200190815260200160002090816115039190612d71565b505050565b8173ffffffffffffffffffffffffffffffffffffffff168373ffffffffffffffffffffffffffffffffffffffff1603611576576040517f08c379a000000000000000000000000000000000000000000000000000000000815260040161156d90612e8f565b60405180910390fd5b80600560008573ffffffffffffffffffffffffffffffffffffffff1673ffffffffffffffffffffffffffffffffffffffff16815260200190815260200160002060008473ffffffffffffffffffffffffffffffffffffffff1673ffffffffffffffffffffffffffffffffffffffff16815260200190815260200160002060006101000a81548160ff0219169083151502179055508173ffffffffffffffffffffffffffffffffffffffff168373ffffffffffffffffffffffffffffffffffffffff167f17307eab39ab6107e8899845ad3d59bd9653f200f220920489ca2b5937696c31836040516116679190611ec5565b60405180910390a3505050565b61167f848484610f66565b61168b848484846118ab565b6116ca576040517f08c379a00000000000000000000000000000000000000000000000000000000081526004016116c190612f21565b60405180910390fd5b50505050565b60606116db82610dc5565b60006006600084815260200190815260200160002080546116fb90612494565b80601f016020809104026020016040519081016040528092919081815260200182805461172790612494565b80156117745780601f1061174957610100808354040283529160200191611774565b820191906000526020600020905b81548152906001019060200180831161175757829003601f168201915b505050505090506000611785611a32565b9050600081510361179a5781925050506117dd565b6000825111156117cf5780826040516020016117b7929190612f7d565b604051602081830303815290604052925050506117dd565b6117d884611a49565b925050505b919050565b60008073ffffffffffffffffffffffffffffffffffffffff166002600084815260200190815260200160002060009054906101000a900473ffffffffffffffffffffffffffffffffffffffff1673ffffffffffffffffffffffffffffffffffffffff1614159050919050565b505050565b505050565b61186181611ab1565b600060066000838152602001908152602001600020805461188190612494565b9050146118a8576006600082815260200190815260200160002060006118a79190611d51565b5b50565b60006118cc8473ffffffffffffffffffffffffffffffffffffffff16611bce565b15611a25578373ffffffffffffffffffffffffffffffffffffffff1663150b7a026118f5610e10565b8786866040518563ffffffff1660e01b81526004016119179493929190612ff6565b6020604051808303816000875af192505050801561195357506040513d601f19601f820116820180604052508101906119509190613057565b60015b6119d5573d8060008114611983576040519150601f19603f3d011682016040523d82523d6000602084013e611988565b606091505b5060008151036119cd576040517f08c379a00000000000000000000000000000000000000000000000000000000081526004016119c490612f21565b60405180910390fd5b805181602001fd5b63150b7a0260e01b7bffffffffffffffffffffffffffffffffffffffffffffffffffffffff1916817bffffffffffffffffffffffffffffffffffffffffffffffffffffffff191614915050611a2a565b600190505b949350505050565b606060405180602001604052806000815250905090565b6060611a5482610dc5565b6000611a5e611a32565b90506000815111611a7e5760405180602001604052806000815250611aa9565b80611a8884611bf1565b604051602001611a99929190612f7d565b6040516020818303038152906040525b915050919050565b6000611abc8261087e565b9050611aca8160008461184e565b611ad5600083610e18565b6001600360008373ffffffffffffffffffffffffffffffffffffffff1673ffffffffffffffffffffffffffffffffffffffff1681526020019081526020016000206000828254611b2591906129f3565b925050819055506002600083815260200190815260200160002060006101000a81549073ffffffffffffffffffffffffffffffffffffffff021916905581600073ffffffffffffffffffffffffffffffffffffffff168273ffffffffffffffffffffffffffffffffffffffff167fddf252ad1be2c89b69c2b068fc378daa952ba7f163c4a11628f55a4df523b3ef60405160405180910390a4611bca81600084611853565b5050565b6000808273ffffffffffffffffffffffffffffffffffffffff163b119050919050565b606060008203611c38576040518060400160405280600181526020017f30000000000000000000000000000000000000000000000000000000000000008152509050611d4c565b600082905060005b60008214611c6a578080611c5390613084565b915050600a82611c6391906130fb565b9150611c40565b60008167ffffffffffffffff811115611c8657611c8561210e565b5b6040519080825280601f01601f191660200182016040528015611cb85781602001600182028036833780820191505090505b5090505b60008514611d4557600182611cd191906129f3565b9150600a85611ce0919061312c565b6030611cec9190612a27565b60f81b818381518110611d0257611d0161315d565b5b60200101907effffffffffffffffffffffffffffffffffffffffffffffffffffffffffffff1916908160001a905350600a85611d3e91906130fb565b9450611cbc565b8093505050505b919050565b508054611d5d90612494565b6000825580601f10611d6f5750611d8e565b601f016020900490600052602060002090810190611d8d9190611d91565b5b50565b5b80821115611daa576000816000905550600101611d92565b5090565b6000604051905090565b600080fd5b600080fd5b6000819050919050565b611dd581611dc2565b8114611de057600080fd5b50565b600081359050611df281611dcc565b92915050565b600060208284031215611e0e57611e0d611db8565b5b6000611e1c84828501611de3565b91505092915050565b60007fffffffff0000000000000000000000000000000000000000000000000000000082169050919050565b611e5a81611e25565b8114611e6557600080fd5b50565b600081359050611e7781611e51565b92915050565b600060208284031215611e9357611e92611db8565b5b6000611ea184828501611e68565b91505092915050565b60008115159050919050565b611ebf81611eaa565b82525050565b6000602082019050611eda6000830184611eb6565b92915050565b600081519050919050565b600082825260208201905092915050565b60005b83811015611f1a578082015181840152602081019050611eff565b60008484015250505050565b6000601f19601f8301169050919050565b6000611f4282611ee0565b611f4c8185611eeb565b9350611f5c818560208601611efc565b611f6581611f26565b840191505092915050565b60006020820190508181036000830152611f8a8184611f37565b905092915050565b600073ffffffffffffffffffffffffffffffffffffffff82169050919050565b6000611fbd82611f92565b9050919050565b611fcd81611fb2565b82525050565b6000602082019050611fe86000830184611fc4565b92915050565b611ff781611fb2565b811461200257600080fd5b50565b60008135905061201481611fee565b92915050565b6000806040838503121561203157612030611db8565b5b600061203f85828601612005565b925050602061205085828601611de3565b9150509250929050565b60008060006060848603121561207357612072611db8565b5b600061208186828701612005565b935050602061209286828701612005565b92505060406120a386828701611de3565b9150509250925092565b6000602082840312156120c3576120c2611db8565b5b60006120d184828501612005565b91505092915050565b6120e381611dc2565b82525050565b60006020820190506120fe60008301846120da565b92915050565b600080fd5b600080fd5b7f4e487b7100000000000000000000000000000000000000000000000000000000600052604160045260246000fd5b61214682611f26565b810181811067ffffffffffffffff821117156121655761216461210e565b5b80604052505050565b6000612178611dae565b9050612184828261213d565b919050565b600067ffffffffffffffff8211156121a4576121a361210e565b5b6121ad82611f26565b9050602081019050919050565b82818337600083830152505050565b60006121dc6121d784612189565b61216e565b9050828152602081018484840111156121f8576121f7612109565b5b6122038482856121ba565b509392505050565b600082601f8301126122205761221f612104565b5b81356122308482602086016121c9565b91505092915050565b600080604083850312156122505761224f611db8565b5b600083013567ffffffffffffffff81111561226e5761226d611dbd565b5b61227a8582860161220b565b925050602061228b85828601612005565b9150509250929050565b61229e81611eaa565b81146122a957600080fd5b50565b6000813590506122bb81612295565b92915050565b600080604083850312156122d8576122d7611db8565b5b60006122e685828601612005565b92505060206122f7858286016122ac565b9150509250929050565b600067ffffffffffffffff82111561231c5761231b61210e565b5b61232582611f26565b9050602081019050919050565b600061234561234084612301565b61216e565b90508281526020810184848401111561236157612360612109565b5b61236c8482856121ba565b509392505050565b600082601f83011261238957612388612104565b5b8135612399848260208601612332565b91505092915050565b600080600080608085870312156123bc576123bb611db8565b5b60006123ca87828801612005565b94505060206123db87828801612005565b93505060406123ec87828801611de3565b925050606085013567ffffffffffffffff81111561240d5761240c611dbd565b5b61241987828801612374565b91505092959194509250565b6000806040838503121561243c5761243b611db8565b5b600061244a85828601612005565b925050602061245b85828601612005565b9150509250929050565b7f4e487b7100000000000000000000000000000000000000000000000000000000600052602260045260246000fd5b600060028204905060018216806124ac57607f821691505b6020821081036124bf576124be612465565b5b50919050565b7f4552433732313a20617070726f76616c20746f2063757272656e74206f776e6560008201527f7200000000000000000000000000000000000000000000000000000000000000602082015250565b6000612521602183611eeb565b915061252c826124c5565b604082019050919050565b6000602082019050818103600083015261255081612514565b9050919050565b7f4552433732313a20617070726f76652063616c6c6572206973206e6f7420746f60008201527f6b656e206f776e6572206e6f7220617070726f76656420666f7220616c6c0000602082015250565b60006125b3603e83611eeb565b91506125be82612557565b604082019050919050565b600060208201905081810360008301526125e2816125a6565b9050919050565b7f4552433732313a2063616c6c6572206973206e6f7420746f6b656e206f776e6560008201527f72206e6f7220617070726f766564000000000000000000000000000000000000602082015250565b6000612645602e83611eeb565b9150612650826125e9565b604082019050919050565b6000602082019050818103600083015261267481612638565b9050919050565b7f4552433732313a20696e76616c696420746f6b656e2049440000000000000000600082015250565b60006126b1601883611eeb565b91506126bc8261267b565b602082019050919050565b600060208201905081810360008301526126e0816126a4565b9050919050565b7f4552433732313a2061646472657373207a65726f206973206e6f74206120766160008201527f6c6964206f776e65720000000000000000000000000000000000000000000000602082015250565b6000612743602983611eeb565b915061274e826126e7565b604082019050919050565b6000602082019050818103600083015261277281612736565b9050919050565b600060408201905061278e6000830185611fc4565b61279b60208301846120da565b9392505050565b7f4f776e61626c653a206e6577206f776e657220697320746865207a65726f206160008201527f6464726573730000000000000000000000000000000000000000000000000000602082015250565b60006127fe602683611eeb565b9150612809826127a2565b604082019050919050565b6000602082019050818103600083015261282d816127f1565b9050919050565b7f4f776e61626c653a2063616c6c6572206973206e6f7420746865206f776e6572600082015250565b600061286a602083611eeb565b915061287582612834565b602082019050919050565b600060208201905081810360008301526128998161285d565b9050919050565b7f4552433732313a207472616e736665722066726f6d20696e636f72726563742060008201527f6f776e6572000000000000000000000000000000000000000000000000000000602082015250565b60006128fc602583611eeb565b9150612907826128a0565b604082019050919050565b6000602082019050818103600083015261292b816128ef565b9050919050565b7f4552433732313a207472616e7366657220746f20746865207a65726f2061646460008201527f7265737300000000000000000000000000000000000000000000000000000000602082015250565b600061298e602483611eeb565b915061299982612932565b604082019050919050565b600060208201905081810360008301526129bd81612981565b9050919050565b7f4e487b7100000000000000000000000000000000000000000000000000000000600052601160045260246000fd5b60006129fe82611dc2565b9150612a0983611dc2565b9250828203905081811115612a2157612a206129c4565b5b92915050565b6000612a3282611dc2565b9150612a3d83611dc2565b9250828201905080821115612a5557612a546129c4565b5b92915050565b7f4552433732313a206d696e7420746f20746865207a65726f2061646472657373600082015250565b6000612a91602083611eeb565b9150612a9c82612a5b565b602082019050919050565b60006020820190508181036000830152612ac081612a84565b9050919050565b7f4552433732313a20746f6b656e20616c7265616479206d696e74656400000000600082015250565b6000612afd601c83611eeb565b9150612b0882612ac7565b602082019050919050565b60006020820190508181036000830152612b2c81612af0565b9050919050565b7f45524337323155524953746f726167653a2055524920736574206f66206e6f6e60008201527f6578697374656e7420746f6b656e000000000000000000000000000000000000602082015250565b6000612b8f602e83611eeb565b9150612b9a82612b33565b604082019050919050565b60006020820190508181036000830152612bbe81612b82565b9050919050565b60008190508160005260206000209050919050565b60006020601f8301049050919050565b600082821b905092915050565b600060088302612c277fffffffffffffffffffffffffffffffffffffffffffffffffffffffffffffffff82612bea565b612c318683612bea565b95508019841693508086168417925050509392505050565b6000819050919050565b6000612c6e612c69612c6484611dc2565b612c49565b611dc2565b9050919050565b6000819050919050565b612c8883612c53565b612c9c612c9482612c75565b848454612bf7565b825550505050565b600090565b612cb1612ca4565b612cbc818484612c7f565b505050565b5b81811015612ce057612cd5600082612ca9565b600181019050612cc2565b5050565b601f821115612d2557612cf681612bc5565b612cff84612bda565b81016020851015612d0e578190505b612d22612d1a85612bda565b830182612cc1565b50505b505050565b600082821c905092915050565b6000612d4860001984600802612d2a565b1980831691505092915050565b6000612d618383612d37565b9150826002028217905092915050565b612d7a82611ee0565b67ffffffffffffffff811115612d9357612d9261210e565b5b612d9d8254612494565b612da8828285612ce4565b600060209050601f831160018114612ddb5760008415612dc9578287015190505b612dd38582612d55565b865550612e3b565b601f198416612de986612bc5565b60005b82811015612e1157848901518255600182019150602085019450602081019050612dec565b86831015612e2e5784890151612e2a601f891682612d37565b8355505b6001600288020188555050505b505050505050565b7f4552433732313a20617070726f766520746f2063616c6c657200000000000000600082015250565b6000612e79601983611eeb565b9150612e8482612e43565b602082019050919050565b60006020820190508181036000830152612ea881612e6c565b9050919050565b7f4552433732313a207472616e7366657220746f206e6f6e20455243373231526560008201527f63656976657220696d706c656d656e7465720000000000000000000000000000602082015250565b6000612f0b603283611eeb565b9150612f1682612eaf565b604082019050919050565b60006020820190508181036000830152612f3a81612efe565b9050919050565b600081905092915050565b6000612f5782611ee0565b612f618185612f41565b9350612f71818560208601611efc565b80840191505092915050565b6000612f898285612f4c565b9150612f958284612f4c565b91508190509392505050565b600081519050919050565b600082825260208201905092915050565b6000612fc882612fa1565b612fd28185612fac565b9350612fe2818560208601611efc565b612feb81611f26565b840191505092915050565b600060808201905061300b6000830187611fc4565b6130186020830186611fc4565b61302560408301856120da565b81810360608301526130378184612fbd565b905095945050505050565b60008151905061305181611e51565b92915050565b60006020828403121561306d5761306c611db8565b5b600061307b84828501613042565b91505092915050565b600061308f82611dc2565b91507fffffffffffffffffffffffffffffffffffffffffffffffffffffffffffffffff82036130c1576130c06129c4565b5b600182019050919050565b7f4e487b7100000000000000000000000000000000000000000000000000000000600052601260045260246000fd5b600061310682611dc2565b915061311183611dc2565b925082613121576131206130cc565b5b828204905092915050565b600061313782611dc2565b915061314283611dc2565b925082613152576131516130cc565b5b828206905092915050565b7f4e487b7100000000000000000000000000000000000000000000000000000000600052603260045260246000fdfea26469706673582212201e13083b168d562a8fa7aac180b66711b50b5327b67e8a047e8c61cf236cc76e64736f6c63430008110033",
  "linkReferences": {},
  "deployedLinkReferences": {}
}