{
  "_format": "hh-sol-artifact-1",
  "contractName": "MintMessage",
  "sourceName": "contracts/MintMessage.sol",
  "abi": [
    {
      "inputs": [],
      "stateMutability": "nonpayable",
      "type": "constructor"
    },
    {
      "anonymous": false,
      "inputs": [
        {
          "indexed": true,
          "internalType": "address",
          "name": "owner",
          "type": "address"
        },
        {
          "indexed": true,
          "internalType": "address",
          "name": "approved",
          "type": "address"
        },
        {
          "indexed": true,
          "internalType": "uint256",
          "name": "tokenId",
          "type": "uint256"
        }
      ],
      "name": "Approval",
      "type": "event"
    },
    {
      "anonymous": false,
      "inputs": [
        {
          "indexed": true,
          "internalType": "address",
          "name": "owner",
          "type": "address"
        },
        {
          "indexed": true,
          "internalType": "address",
          "name": "operator",
          "type": "address"
        },
        {
          "indexed": false,
          "internalType": "bool",
          "name": "approved",
          "type": "bool"
        }
      ],
      "name": "ApprovalForAll",
      "type": "event"
    },
    {
      "anonymous": false,
      "inputs": [
        {
          "indexed": false,
          "internalType": "address",
          "name": "sender",
          "type": "address"
        },
        {
          "indexed": false,
          "internalType": "uint256",
          "name": "tokenId",
          "type": "uint256"
        }
      ],
      "name": "NewMintMessageMinted",
      "type": "event"
    },
    {
      "anonymous": false,
      "inputs": [
        {
          "indexed": true,
          "internalType": "address",
          "name": "previousOwner",
          "type": "address"
        },
        {
          "indexed": true,
          "internalType": "address",
          "name": "newOwner",
          "type": "address"
        }
      ],
      "name": "OwnershipTransferred",
      "type": "event"
    },
    {
      "anonymous": false,
      "inputs": [
        {
          "indexed": true,
          "internalType": "address",
          "name": "from",
          "type": "address"
        },
        {
          "indexed": true,
          "internalType": "address",
          "name": "to",
          "type": "address"
        },
        {
          "indexed": true,
          "internalType": "uint256",
          "name": "tokenId",
          "type": "uint256"
        }
      ],
      "name": "Transfer",
      "type": "event"
    },
    {
      "inputs": [
        {
          "internalType": "address",
          "name": "to",
          "type": "address"
        },
        {
          "internalType": "uint256",
          "name": "tokenId",
          "type": "uint256"
        }
      ],
      "name": "approve",
      "outputs": [],
      "stateMutability": "nonpayable",
      "type": "function"
    },
    {
      "inputs": [
        {
          "internalType": "address",
          "name": "owner",
          "type": "address"
        }
      ],
      "name": "balanceOf",
      "outputs": [
        {
          "internalType": "uint256",
          "name": "",
          "type": "uint256"
        }
      ],
      "stateMutability": "view",
      "type": "function"
    },
    {
      "inputs": [
        {
          "internalType": "uint256",
          "name": "tokenId",
          "type": "uint256"
        }
      ],
      "name": "burn",
      "outputs": [],
      "stateMutability": "nonpayable",
      "type": "function"
    },
    {
      "inputs": [
        {
          "internalType": "string",
          "name": "tokenURI",
          "type": "string"
        },
        {
          "internalType": "address",
          "name": "to",
          "type": "address"
        }
      ],
      "name": "createToken",
      "outputs": [
        {
          "internalType": "uint256",
          "name": "",
          "type": "uint256"
        }
      ],
      "stateMutability": "payable",
      "type": "function"
    },
    {
      "inputs": [
        {
          "internalType": "uint256",
          "name": "tokenId",
          "type": "uint256"
        }
      ],
      "name": "getApproved",
      "outputs": [
        {
          "internalType": "address",
          "name": "",
          "type": "address"
        }
      ],
      "stateMutability": "view",
      "type": "function"
    },
    {
      "inputs": [],
      "name": "getMintPrice",
      "outputs": [
        {
          "internalType": "uint256",
          "name": "",
          "type": "uint256"
        }
      ],
      "stateMutability": "view",
      "type": "function"
    },
    {
      "inputs": [
        {
          "internalType": "address",
          "name": "owner",
          "type": "address"
        },
        {
          "internalType": "address",
          "name": "operator",
          "type": "address"
        }
      ],
      "name": "isApprovedForAll",
      "outputs": [
        {
          "internalType": "bool",
          "name": "",
          "type": "bool"
        }
      ],
      "stateMutability": "view",
      "type": "function"
    },
    {
      "inputs": [],
      "name": "name",
      "outputs": [
        {
          "internalType": "string",
          "name": "",
          "type": "string"
        }
      ],
      "stateMutability": "view",
      "type": "function"
    },
    {
      "inputs": [],
      "name": "owner",
      "outputs": [
        {
          "internalType": "address",
          "name": "",
          "type": "address"
        }
      ],
      "stateMutability": "view",
      "type": "function"
    },
    {
      "inputs": [
        {
          "internalType": "uint256",
          "name": "tokenId",
          "type": "uint256"
        }
      ],
      "name": "ownerOf",
      "outputs": [
        {
          "internalType": "address",
          "name": "",
          "type": "address"
        }
      ],
      "stateMutability": "view",
      "type": "function"
    },
    {
      "inputs": [],
      "name": "renounceOwnership",
      "outputs": [],
      "stateMutability": "nonpayable",
      "type": "function"
    },
    {
      "inputs": [
        {
          "internalType": "address",
          "name": "from",
          "type": "address"
        },
        {
          "internalType": "address",
          "name": "to",
          "type": "address"
        },
        {
          "internalType": "uint256",
          "name": "tokenId",
          "type": "uint256"
        }
      ],
      "name": "safeTransferFrom",
      "outputs": [],
      "stateMutability": "nonpayable",
      "type": "function"
    },
    {
      "inputs": [
        {
          "internalType": "address",
          "name": "from",
          "type": "address"
        },
        {
          "internalType": "address",
          "name": "to",
          "type": "address"
        },
        {
          "internalType": "uint256",
          "name": "tokenId",
          "type": "uint256"
        },
        {
          "internalType": "bytes",
          "name": "data",
          "type": "bytes"
        }
      ],
      "name": "safeTransferFrom",
      "outputs": [],
      "stateMutability": "nonpayable",
      "type": "function"
    },
    {
      "inputs": [
        {
          "internalType": "address",
          "name": "operator",
          "type": "address"
        },
        {
          "internalType": "bool",
          "name": "approved",
          "type": "bool"
        }
      ],
      "name": "setApprovalForAll",
      "outputs": [],
      "stateMutability": "nonpayable",
      "type": "function"
    },
    {
      "inputs": [
        {
          "internalType": "bytes4",
          "name": "interfaceId",
          "type": "bytes4"
        }
      ],
      "name": "supportsInterface",
      "outputs": [
        {
          "internalType": "bool",
          "name": "",
          "type": "bool"
        }
      ],
      "stateMutability": "view",
      "type": "function"
    },
    {
      "inputs": [],
      "name": "symbol",
      "outputs": [
        {
          "internalType": "string",
          "name": "",
          "type": "string"
        }
      ],
      "stateMutability": "view",
      "type": "function"
    },
    {
      "inputs": [
        {
          "internalType": "uint256",
          "name": "tokenId",
          "type": "uint256"
        }
      ],
      "name": "tokenURI",
      "outputs": [
        {
          "internalType": "string",
          "name": "",
          "type": "string"
        }
      ],
      "stateMutability": "view",
      "type": "function"
    },
    {
      "inputs": [
        {
          "internalType": "address",
          "name": "from",
          "type": "address"
        },
        {
          "internalType": "address",
          "name": "to",
          "type": "address"
        },
        {
          "internalType": "uint256",
          "name": "tokenId",
          "type": "uint256"
        }
      ],
      "name": "transferFrom",
      "outputs": [],
      "stateMutability": "nonpayable",
      "type": "function"
    },
    {
      "inputs": [
        {
          "internalType": "address",
          "name": "newOwner",
          "type": "address"
        }
      ],
      "name": "transferOwnership",
      "outputs": [],
      "stateMutability": "nonpayable",
      "type": "function"
    },
    {
      "inputs": [
        {
          "internalType": "uint256",
          "name": "_mintPrice",
          "type": "uint256"
        }
      ],
      "name": "updateMintPrice",
      "outputs": [],
      "stateMutability": "payable",
      "type": "function"
    }
  ],
  "bytecode": "0x608060405260006009553480156200001657600080fd5b506040518060400160405280600b81526020017f4d696e744d6573736167650000000000000000000000000000000000000000008152506040518060400160405280600381526020017f4d53470000000000000000000000000000000000000000000000000000000000815250816000908162000094919062000417565b508060019081620000a6919062000417565b505050620000c9620000bd620000cf60201b60201c565b620000d760201b60201c565b620004fe565b600033905090565b6000600760009054906101000a900473ffffffffffffffffffffffffffffffffffffffff16905081600760006101000a81548173ffffffffffffffffffffffffffffffffffffffff021916908373ffffffffffffffffffffffffffffffffffffffff1602179055508173ffffffffffffffffffffffffffffffffffffffff168173ffffffffffffffffffffffffffffffffffffffff167f8be0079c531659141344cd1fd0a4f28419497f9722a3daafe3b4186f6b6457e060405160405180910390a35050565b600081519050919050565b7f4e487b7100000000000000000000000000000000000000000000000000000000600052604160045260246000fd5b7f4e487b7100000000000000000000000000000000000000000000000000000000600052602260045260246000fd5b600060028204905060018216806200021f57607f821691505b602082108103620002355762000234620001d7565b5b50919050565b60008190508160005260206000209050919050565b60006020601f8301049050919050565b600082821b905092915050565b6000600883026200029f7fffffffffffffffffffffffffffffffffffffffffffffffffffffffffffffffff8262000260565b620002ab868362000260565b95508019841693508086168417925050509392505050565b6000819050919050565b6000819050919050565b6000620002f8620002f2620002ec84620002c3565b620002cd565b620002c3565b9050919050565b6000819050919050565b6200031483620002d7565b6200032c6200032382620002ff565b8484546200026d565b825550505050565b600090565b6200034362000334565b6200035081848462000309565b505050565b5b8181101562000378576200036c60008262000339565b60018101905062000356565b5050565b601f821115620003c75762000391816200023b565b6200039c8462000250565b81016020851015620003ac578190505b620003c4620003bb8562000250565b83018262000355565b50505b505050565b600082821c905092915050565b6000620003ec60001984600802620003cc565b1980831691505092915050565b6000620004078383620003d9565b9150826002028217905092915050565b62000422826200019d565b67ffffffffffffffff8111156200043e576200043d620001a8565b5b6200044a825462000206565b620004578282856200037c565b600060209050601f8311600181146200048f57600084156200047a578287015190505b620004868582620003f9565b865550620004f6565b601f1984166200049f866200023b565b60005b82811015620004c957848901518255600182019150602085019450602081019050620004a2565b86831015620004e95784890151620004e5601f891682620003d9565b8355505b6001600288020188555050505b505050505050565b613163806200050e6000396000f3fe60806040526004361061011e5760003560e01c8063715018a6116100a0578063a7f93ebd11610064578063a7f93ebd146103c8578063b88d4fde146103f3578063c87b56dd1461041c578063e985e9c514610459578063f2fde38b146104965761011e565b8063715018a6146103025780638da5cb5b1461031957806395d89b4114610344578063a21193771461036f578063a22cb4651461039f5761011e565b806323b872dd116100e757806323b872dd1461020d57806342842e0e1461023657806342966c681461025f5780636352211e1461028857806370a08231146102c55761011e565b8062728e461461012357806301ffc9a71461013f57806306fdde031461017c578063081812fc146101a7578063095ea7b3146101e4575b600080fd5b61013d60048036038101906101389190611dc2565b6104bf565b005b34801561014b57600080fd5b5061016660048036038101906101619190611e47565b6104d1565b6040516101739190611e8f565b60405180910390f35b34801561018857600080fd5b506101916105b3565b60405161019e9190611f3a565b60405180910390f35b3480156101b357600080fd5b506101ce60048036038101906101c99190611dc2565b610645565b6040516101db9190611f9d565b60405180910390f35b3480156101f057600080fd5b5061020b60048036038101906102069190611fe4565b61068b565b005b34801561021957600080fd5b50610234600480360381019061022f9190612024565b6107a2565b005b34801561024257600080fd5b5061025d60048036038101906102589190612024565b610802565b005b34801561026b57600080fd5b5061028660048036038101906102819190611dc2565b610822565b005b34801561029457600080fd5b506102af60048036038101906102aa9190611dc2565b61087e565b6040516102bc9190611f9d565b60405180910390f35b3480156102d157600080fd5b506102ec60048036038101906102e79190612077565b61092f565b6040516102f991906120b3565b60405180910390f35b34801561030e57600080fd5b506103176109e6565b005b34801561032557600080fd5b5061032e6109fa565b60405161033b9190611f9d565b60405180910390f35b34801561035057600080fd5b50610359610a24565b6040516103669190611f3a565b60405180910390f35b61038960048036038101906103849190612203565b610ab6565b60405161039691906120b3565b60405180910390f35b3480156103ab57600080fd5b506103c660048036038101906103c1919061228b565b610afc565b005b3480156103d457600080fd5b506103dd610b12565b6040516103ea91906120b3565b60405180910390f35b3480156103ff57600080fd5b5061041a6004803603810190610415919061236c565b610b1c565b005b34801561042857600080fd5b50610443600480360381019061043e9190611dc2565b610b7e565b6040516104509190611f3a565b60405180910390f35b34801561046557600080fd5b50610480600480360381019061047b91906123ef565b610b90565b60405161048d9190611e8f565b60405180910390f35b3480156104a257600080fd5b506104bd60048036038101906104b89190612077565b610c24565b005b6104c7610ca7565b8060098190555050565b60007f80ac58cd000000000000000000000000000000000000000000000000000000007bffffffffffffffffffffffffffffffffffffffffffffffffffffffff1916827bffffffffffffffffffffffffffffffffffffffffffffffffffffffff1916148061059c57507f5b5e139f000000000000000000000000000000000000000000000000000000007bffffffffffffffffffffffffffffffffffffffffffffffffffffffff1916827bffffffffffffffffffffffffffffffffffffffffffffffffffffffff1916145b806105ac57506105ab82610d25565b5b9050919050565b6060600080546105c29061245e565b80601f01602080910402602001604051908101604052809291908181526020018280546105ee9061245e565b801561063b5780601f106106105761010080835404028352916020019161063b565b820191906000526020600020905b81548152906001019060200180831161061e57829003601f168201915b5050505050905090565b600061065082610d8f565b6004600083815260200190815260200160002060009054906101000a900473ffffffffffffffffffffffffffffffffffffffff169050919050565b60006106968261087e565b90508073ffffffffffffffffffffffffffffffffffffffff168373ffffffffffffffffffffffffffffffffffffffff1603610706576040517f08c379a00000000000000000000000000000000000000000000000000000000081526004016106fd90612501565b60405180910390fd5b8073ffffffffffffffffffffffffffffffffffffffff16610725610dda565b73ffffffffffffffffffffffffffffffffffffffff16148061075457506107538161074e610dda565b610b90565b5b610793576040517f08c379a000000000000000000000000000000000000000000000000000000000815260040161078a90612593565b60405180910390fd5b61079d8383610de2565b505050565b6107b36107ad610dda565b82610e9b565b6107f2576040517f08c379a00000000000000000000000000000000000000000000000000000000081526004016107e990612625565b60405180910390fd5b6107fd838383610f30565b505050565b61081d83838360405180602001604052806000815250610b1c565b505050565b61083361082d610dda565b82610e9b565b610872576040517f08c379a000000000000000000000000000000000000000000000000000000000815260040161086990612625565b60405180910390fd5b61087b81611196565b50565b6000806002600084815260200190815260200160002060009054906101000a900473ffffffffffffffffffffffffffffffffffffffff169050600073ffffffffffffffffffffffffffffffffffffffff168173ffffffffffffffffffffffffffffffffffffffff1603610926576040517f08c379a000000000000000000000000000000000000000000000000000000000815260040161091d90612691565b60405180910390fd5b80915050919050565b60008073ffffffffffffffffffffffffffffffffffffffff168273ffffffffffffffffffffffffffffffffffffffff160361099f576040517f08c379a000000000000000000000000000000000000000000000000000000000815260040161099690612723565b60405180910390fd5b600360008373ffffffffffffffffffffffffffffffffffffffff1673ffffffffffffffffffffffffffffffffffffffff168152602001908152602001600020549050919050565b6109ee610ca7565b6109f860006111a2565b565b6000600760009054906101000a900473ffffffffffffffffffffffffffffffffffffffff16905090565b606060018054610a339061245e565b80601f0160208091040260200160405190810160405280929190818152602001828054610a5f9061245e565b8015610aac5780601f10610a8157610100808354040283529160200191610aac565b820191906000526020600020905b815481529060010190602001808311610a8f57829003601f168201915b5050505050905090565b60006009543414610ac657600080fd5b610ad06008611268565b6000610adc600861127e565b9050610ae8838261128c565b610af28185611465565b8091505092915050565b610b0e610b07610dda565b83836114d2565b5050565b6000600954905090565b610b2d610b27610dda565b83610e9b565b610b6c576040517f08c379a0000000000000000000000000000000000000000000000000000000008152600401610b6390612625565b60405180910390fd5b610b788484848461163e565b50505050565b6060610b898261169a565b9050919050565b6000600560008473ffffffffffffffffffffffffffffffffffffffff1673ffffffffffffffffffffffffffffffffffffffff16815260200190815260200160002060008373ffffffffffffffffffffffffffffffffffffffff1673ffffffffffffffffffffffffffffffffffffffff16815260200190815260200160002060009054906101000a900460ff16905092915050565b610c2c610ca7565b600073ffffffffffffffffffffffffffffffffffffffff168173ffffffffffffffffffffffffffffffffffffffff1603610c9b576040517f08c379a0000000000000000000000000000000000000000000000000000000008152600401610c92906127b5565b60405180910390fd5b610ca4816111a2565b50565b610caf610dda565b73ffffffffffffffffffffffffffffffffffffffff16610ccd6109fa565b73ffffffffffffffffffffffffffffffffffffffff1614610d23576040517f08c379a0000000000000000000000000000000000000000000000000000000008152600401610d1a90612821565b60405180910390fd5b565b60007f01ffc9a7000000000000000000000000000000000000000000000000000000007bffffffffffffffffffffffffffffffffffffffffffffffffffffffff1916827bffffffffffffffffffffffffffffffffffffffffffffffffffffffff1916149050919050565b610d98816117ac565b610dd7576040517f08c379a0000000000000000000000000000000000000000000000000000000008152600401610dce90612691565b60405180910390fd5b50565b600033905090565b816004600083815260200190815260200160002060006101000a81548173ffffffffffffffffffffffffffffffffffffffff021916908373ffffffffffffffffffffffffffffffffffffffff160217905550808273ffffffffffffffffffffffffffffffffffffffff16610e558361087e565b73ffffffffffffffffffffffffffffffffffffffff167f8c5be1e5ebec7d5bd14f71427d1e84f3dd0314c0f7b2291e5b200ac8c7c3b92560405160405180910390a45050565b600080610ea78361087e565b90508073ffffffffffffffffffffffffffffffffffffffff168473ffffffffffffffffffffffffffffffffffffffff161480610ee95750610ee88185610b90565b5b80610f2757508373ffffffffffffffffffffffffffffffffffffffff16610f0f84610645565b73ffffffffffffffffffffffffffffffffffffffff16145b91505092915050565b8273ffffffffffffffffffffffffffffffffffffffff16610f508261087e565b73ffffffffffffffffffffffffffffffffffffffff1614610fa6576040517f08c379a0000000000000000000000000000000000000000000000000000000008152600401610f9d906128b3565b60405180910390fd5b600073ffffffffffffffffffffffffffffffffffffffff168273ffffffffffffffffffffffffffffffffffffffff1603611015576040517f08c379a000000000000000000000000000000000000000000000000000000000815260040161100c90612945565b60405180910390fd5b611020838383611818565b61102b600082610de2565b6001600360008573ffffffffffffffffffffffffffffffffffffffff1673ffffffffffffffffffffffffffffffffffffffff168152602001908152602001600020600082825461107b9190612994565b925050819055506001600360008473ffffffffffffffffffffffffffffffffffffffff1673ffffffffffffffffffffffffffffffffffffffff16815260200190815260200160002060008282546110d291906129c8565b92505081905550816002600083815260200190815260200160002060006101000a81548173ffffffffffffffffffffffffffffffffffffffff021916908373ffffffffffffffffffffffffffffffffffffffff160217905550808273ffffffffffffffffffffffffffffffffffffffff168473ffffffffffffffffffffffffffffffffffffffff167fddf252ad1be2c89b69c2b068fc378daa952ba7f163c4a11628f55a4df523b3ef60405160405180910390a461119183838361181d565b505050565b61119f81611822565b50565b6000600760009054906101000a900473ffffffffffffffffffffffffffffffffffffffff16905081600760006101000a81548173ffffffffffffffffffffffffffffffffffffffff021916908373ffffffffffffffffffffffffffffffffffffffff1602179055508173ffffffffffffffffffffffffffffffffffffffff168173ffffffffffffffffffffffffffffffffffffffff167f8be0079c531659141344cd1fd0a4f28419497f9722a3daafe3b4186f6b6457e060405160405180910390a35050565b6001816000016000828254019250508190555050565b600081600001549050919050565b600073ffffffffffffffffffffffffffffffffffffffff168273ffffffffffffffffffffffffffffffffffffffff16036112fb576040517f08c379a00000000000000000000000000000000000000000000000000000000081526004016112f290612a48565b60405180910390fd5b611304816117ac565b15611344576040517f08c379a000000000000000000000000000000000000000000000000000000000815260040161133b90612ab4565b60405180910390fd5b61135060008383611818565b6001600360008473ffffffffffffffffffffffffffffffffffffffff1673ffffffffffffffffffffffffffffffffffffffff16815260200190815260200160002060008282546113a091906129c8565b92505081905550816002600083815260200190815260200160002060006101000a81548173ffffffffffffffffffffffffffffffffffffffff021916908373ffffffffffffffffffffffffffffffffffffffff160217905550808273ffffffffffffffffffffffffffffffffffffffff16600073ffffffffffffffffffffffffffffffffffffffff167fddf252ad1be2c89b69c2b068fc378daa952ba7f163c4a11628f55a4df523b3ef60405160405180910390a46114616000838361181d565b5050565b61146e826117ac565b6114ad576040517f08c379a00000000000000000000000000000000000000000000000000000000081526004016114a490612b46565b60405180910390fd5b806006600084815260200190815260200160002090816114cd9190612d12565b505050565b8173ffffffffffffffffffffffffffffffffffffffff168373ffffffffffffffffffffffffffffffffffffffff1603611540576040517f08c379a000000000000000000000000000000000000000000000000000000000815260040161153790612e30565b60405180910390fd5b80600560008573ffffffffffffffffffffffffffffffffffffffff1673ffffffffffffffffffffffffffffffffffffffff16815260200190815260200160002060008473ffffffffffffffffffffffffffffffffffffffff1673ffffffffffffffffffffffffffffffffffffffff16815260200190815260200160002060006101000a81548160ff0219169083151502179055508173ffffffffffffffffffffffffffffffffffffffff168373ffffffffffffffffffffffffffffffffffffffff167f17307eab39ab6107e8899845ad3d59bd9653f200f220920489ca2b5937696c31836040516116319190611e8f565b60405180910390a3505050565b611649848484610f30565b61165584848484611875565b611694576040517f08c379a000000000000000000000000000000000000000000000000000000000815260040161168b90612ec2565b60405180910390fd5b50505050565b60606116a582610d8f565b60006006600084815260200190815260200160002080546116c59061245e565b80601f01602080910402602001604051908101604052809291908181526020018280546116f19061245e565b801561173e5780601f106117135761010080835404028352916020019161173e565b820191906000526020600020905b81548152906001019060200180831161172157829003601f168201915b50505050509050600061174f6119fc565b905060008151036117645781925050506117a7565b600082511115611799578082604051602001611781929190612f1e565b604051602081830303815290604052925050506117a7565b6117a284611a13565b925050505b919050565b60008073ffffffffffffffffffffffffffffffffffffffff166002600084815260200190815260200160002060009054906101000a900473ffffffffffffffffffffffffffffffffffffffff1673ffffffffffffffffffffffffffffffffffffffff1614159050919050565b505050565b505050565b61182b81611a7b565b600060066000838152602001908152602001600020805461184b9061245e565b905014611872576006600082815260200190815260200160002060006118719190611d1b565b5b50565b60006118968473ffffffffffffffffffffffffffffffffffffffff16611b98565b156119ef578373ffffffffffffffffffffffffffffffffffffffff1663150b7a026118bf610dda565b8786866040518563ffffffff1660e01b81526004016118e19493929190612f97565b6020604051808303816000875af192505050801561191d57506040513d601f19601f8201168201806040525081019061191a9190612ff8565b60015b61199f573d806000811461194d576040519150601f19603f3d011682016040523d82523d6000602084013e611952565b606091505b506000815103611997576040517f08c379a000000000000000000000000000000000000000000000000000000000815260040161198e90612ec2565b60405180910390fd5b805181602001fd5b63150b7a0260e01b7bffffffffffffffffffffffffffffffffffffffffffffffffffffffff1916817bffffffffffffffffffffffffffffffffffffffffffffffffffffffff1916149150506119f4565b600190505b949350505050565b606060405180602001604052806000815250905090565b6060611a1e82610d8f565b6000611a286119fc565b90506000815111611a485760405180602001604052806000815250611a73565b80611a5284611bbb565b604051602001611a63929190612f1e565b6040516020818303038152906040525b915050919050565b6000611a868261087e565b9050611a9481600084611818565b611a9f600083610de2565b6001600360008373ffffffffffffffffffffffffffffffffffffffff1673ffffffffffffffffffffffffffffffffffffffff1681526020019081526020016000206000828254611aef9190612994565b925050819055506002600083815260200190815260200160002060006101000a81549073ffffffffffffffffffffffffffffffffffffffff021916905581600073ffffffffffffffffffffffffffffffffffffffff168273ffffffffffffffffffffffffffffffffffffffff167fddf252ad1be2c89b69c2b068fc378daa952ba7f163c4a11628f55a4df523b3ef60405160405180910390a4611b948160008461181d565b5050565b6000808273ffffffffffffffffffffffffffffffffffffffff163b119050919050565b606060008203611c02576040518060400160405280600181526020017f30000000000000000000000000000000000000000000000000000000000000008152509050611d16565b600082905060005b60008214611c34578080611c1d90613025565b915050600a82611c2d919061309c565b9150611c0a565b60008167ffffffffffffffff811115611c5057611c4f6120d8565b5b6040519080825280601f01601f191660200182016040528015611c825781602001600182028036833780820191505090505b5090505b60008514611d0f57600182611c9b9190612994565b9150600a85611caa91906130cd565b6030611cb691906129c8565b60f81b818381518110611ccc57611ccb6130fe565b5b60200101907effffffffffffffffffffffffffffffffffffffffffffffffffffffffffffff1916908160001a905350600a85611d08919061309c565b9450611c86565b8093505050505b919050565b508054611d279061245e565b6000825580601f10611d395750611d58565b601f016020900490600052602060002090810190611d579190611d5b565b5b50565b5b80821115611d74576000816000905550600101611d5c565b5090565b6000604051905090565b600080fd5b600080fd5b6000819050919050565b611d9f81611d8c565b8114611daa57600080fd5b50565b600081359050611dbc81611d96565b92915050565b600060208284031215611dd857611dd7611d82565b5b6000611de684828501611dad565b91505092915050565b60007fffffffff0000000000000000000000000000000000000000000000000000000082169050919050565b611e2481611def565b8114611e2f57600080fd5b50565b600081359050611e4181611e1b565b92915050565b600060208284031215611e5d57611e5c611d82565b5b6000611e6b84828501611e32565b91505092915050565b60008115159050919050565b611e8981611e74565b82525050565b6000602082019050611ea46000830184611e80565b92915050565b600081519050919050565b600082825260208201905092915050565b60005b83811015611ee4578082015181840152602081019050611ec9565b60008484015250505050565b6000601f19601f8301169050919050565b6000611f0c82611eaa565b611f168185611eb5565b9350611f26818560208601611ec6565b611f2f81611ef0565b840191505092915050565b60006020820190508181036000830152611f548184611f01565b905092915050565b600073ffffffffffffffffffffffffffffffffffffffff82169050919050565b6000611f8782611f5c565b9050919050565b611f9781611f7c565b82525050565b6000602082019050611fb26000830184611f8e565b92915050565b611fc181611f7c565b8114611fcc57600080fd5b50565b600081359050611fde81611fb8565b92915050565b60008060408385031215611ffb57611ffa611d82565b5b600061200985828601611fcf565b925050602061201a85828601611dad565b9150509250929050565b60008060006060848603121561203d5761203c611d82565b5b600061204b86828701611fcf565b935050602061205c86828701611fcf565b925050604061206d86828701611dad565b9150509250925092565b60006020828403121561208d5761208c611d82565b5b600061209b84828501611fcf565b91505092915050565b6120ad81611d8c565b82525050565b60006020820190506120c860008301846120a4565b92915050565b600080fd5b600080fd5b7f4e487b7100000000000000000000000000000000000000000000000000000000600052604160045260246000fd5b61211082611ef0565b810181811067ffffffffffffffff8211171561212f5761212e6120d8565b5b80604052505050565b6000612142611d78565b905061214e8282612107565b919050565b600067ffffffffffffffff82111561216e5761216d6120d8565b5b61217782611ef0565b9050602081019050919050565b82818337600083830152505050565b60006121a66121a184612153565b612138565b9050828152602081018484840111156121c2576121c16120d3565b5b6121cd848285612184565b509392505050565b600082601f8301126121ea576121e96120ce565b5b81356121fa848260208601612193565b91505092915050565b6000806040838503121561221a57612219611d82565b5b600083013567ffffffffffffffff81111561223857612237611d87565b5b612244858286016121d5565b925050602061225585828601611fcf565b9150509250929050565b61226881611e74565b811461227357600080fd5b50565b6000813590506122858161225f565b92915050565b600080604083850312156122a2576122a1611d82565b5b60006122b085828601611fcf565b92505060206122c185828601612276565b9150509250929050565b600067ffffffffffffffff8211156122e6576122e56120d8565b5b6122ef82611ef0565b9050602081019050919050565b600061230f61230a846122cb565b612138565b90508281526020810184848401111561232b5761232a6120d3565b5b612336848285612184565b509392505050565b600082601f830112612353576123526120ce565b5b81356123638482602086016122fc565b91505092915050565b6000806000806080858703121561238657612385611d82565b5b600061239487828801611fcf565b94505060206123a587828801611fcf565b93505060406123b687828801611dad565b925050606085013567ffffffffffffffff8111156123d7576123d6611d87565b5b6123e38782880161233e565b91505092959194509250565b6000806040838503121561240657612405611d82565b5b600061241485828601611fcf565b925050602061242585828601611fcf565b9150509250929050565b7f4e487b7100000000000000000000000000000000000000000000000000000000600052602260045260246000fd5b6000600282049050600182168061247657607f821691505b6020821081036124895761248861242f565b5b50919050565b7f4552433732313a20617070726f76616c20746f2063757272656e74206f776e6560008201527f7200000000000000000000000000000000000000000000000000000000000000602082015250565b60006124eb602183611eb5565b91506124f68261248f565b604082019050919050565b6000602082019050818103600083015261251a816124de565b9050919050565b7f4552433732313a20617070726f76652063616c6c6572206973206e6f7420746f60008201527f6b656e206f776e6572206e6f7220617070726f76656420666f7220616c6c0000602082015250565b600061257d603e83611eb5565b915061258882612521565b604082019050919050565b600060208201905081810360008301526125ac81612570565b9050919050565b7f4552433732313a2063616c6c6572206973206e6f7420746f6b656e206f776e6560008201527f72206e6f7220617070726f766564000000000000000000000000000000000000602082015250565b600061260f602e83611eb5565b915061261a826125b3565b604082019050919050565b6000602082019050818103600083015261263e81612602565b9050919050565b7f4552433732313a20696e76616c696420746f6b656e2049440000000000000000600082015250565b600061267b601883611eb5565b915061268682612645565b602082019050919050565b600060208201905081810360008301526126aa8161266e565b9050919050565b7f4552433732313a2061646472657373207a65726f206973206e6f74206120766160008201527f6c6964206f776e65720000000000000000000000000000000000000000000000602082015250565b600061270d602983611eb5565b9150612718826126b1565b604082019050919050565b6000602082019050818103600083015261273c81612700565b9050919050565b7f4f776e61626c653a206e6577206f776e657220697320746865207a65726f206160008201527f6464726573730000000000000000000000000000000000000000000000000000602082015250565b600061279f602683611eb5565b91506127aa82612743565b604082019050919050565b600060208201905081810360008301526127ce81612792565b9050919050565b7f4f776e61626c653a2063616c6c6572206973206e6f7420746865206f776e6572600082015250565b600061280b602083611eb5565b9150612816826127d5565b602082019050919050565b6000602082019050818103600083015261283a816127fe565b9050919050565b7f4552433732313a207472616e736665722066726f6d20696e636f72726563742060008201527f6f776e6572000000000000000000000000000000000000000000000000000000602082015250565b600061289d602583611eb5565b91506128a882612841565b604082019050919050565b600060208201905081810360008301526128cc81612890565b9050919050565b7f4552433732313a207472616e7366657220746f20746865207a65726f2061646460008201527f7265737300000000000000000000000000000000000000000000000000000000602082015250565b600061292f602483611eb5565b915061293a826128d3565b604082019050919050565b6000602082019050818103600083015261295e81612922565b9050919050565b7f4e487b7100000000000000000000000000000000000000000000000000000000600052601160045260246000fd5b600061299f82611d8c565b91506129aa83611d8c565b92508282039050818111156129c2576129c1612965565b5b92915050565b60006129d382611d8c565b91506129de83611d8c565b92508282019050808211156129f6576129f5612965565b5b92915050565b7f4552433732313a206d696e7420746f20746865207a65726f2061646472657373600082015250565b6000612a32602083611eb5565b9150612a3d826129fc565b602082019050919050565b60006020820190508181036000830152612a6181612a25565b9050919050565b7f4552433732313a20746f6b656e20616c7265616479206d696e74656400000000600082015250565b6000612a9e601c83611eb5565b9150612aa982612a68565b602082019050919050565b60006020820190508181036000830152612acd81612a91565b9050919050565b7f45524337323155524953746f726167653a2055524920736574206f66206e6f6e60008201527f6578697374656e7420746f6b656e000000000000000000000000000000000000602082015250565b6000612b30602e83611eb5565b9150612b3b82612ad4565b604082019050919050565b60006020820190508181036000830152612b5f81612b23565b9050919050565b60008190508160005260206000209050919050565b60006020601f8301049050919050565b600082821b905092915050565b600060088302612bc87fffffffffffffffffffffffffffffffffffffffffffffffffffffffffffffffff82612b8b565b612bd28683612b8b565b95508019841693508086168417925050509392505050565b6000819050919050565b6000612c0f612c0a612c0584611d8c565b612bea565b611d8c565b9050919050565b6000819050919050565b612c2983612bf4565b612c3d612c3582612c16565b848454612b98565b825550505050565b600090565b612c52612c45565b612c5d818484612c20565b505050565b5b81811015612c8157612c76600082612c4a565b600181019050612c63565b5050565b601f821115612cc657612c9781612b66565b612ca084612b7b565b81016020851015612caf578190505b612cc3612cbb85612b7b565b830182612c62565b50505b505050565b600082821c905092915050565b6000612ce960001984600802612ccb565b1980831691505092915050565b6000612d028383612cd8565b9150826002028217905092915050565b612d1b82611eaa565b67ffffffffffffffff811115612d3457612d336120d8565b5b612d3e825461245e565b612d49828285612c85565b600060209050601f831160018114612d7c5760008415612d6a578287015190505b612d748582612cf6565b865550612ddc565b601f198416612d8a86612b66565b60005b82811015612db257848901518255600182019150602085019450602081019050612d8d565b86831015612dcf5784890151612dcb601f891682612cd8565b8355505b6001600288020188555050505b505050505050565b7f4552433732313a20617070726f766520746f2063616c6c657200000000000000600082015250565b6000612e1a601983611eb5565b9150612e2582612de4565b602082019050919050565b60006020820190508181036000830152612e4981612e0d565b9050919050565b7f4552433732313a207472616e7366657220746f206e6f6e20455243373231526560008201527f63656976657220696d706c656d656e7465720000000000000000000000000000602082015250565b6000612eac603283611eb5565b9150612eb782612e50565b604082019050919050565b60006020820190508181036000830152612edb81612e9f565b9050919050565b600081905092915050565b6000612ef882611eaa565b612f028185612ee2565b9350612f12818560208601611ec6565b80840191505092915050565b6000612f2a8285612eed565b9150612f368284612eed565b91508190509392505050565b600081519050919050565b600082825260208201905092915050565b6000612f6982612f42565b612f738185612f4d565b9350612f83818560208601611ec6565b612f8c81611ef0565b840191505092915050565b6000608082019050612fac6000830187611f8e565b612fb96020830186611f8e565b612fc660408301856120a4565b8181036060830152612fd88184612f5e565b905095945050505050565b600081519050612ff281611e1b565b92915050565b60006020828403121561300e5761300d611d82565b5b600061301c84828501612fe3565b91505092915050565b600061303082611d8c565b91507fffffffffffffffffffffffffffffffffffffffffffffffffffffffffffffffff820361306257613061612965565b5b600182019050919050565b7f4e487b7100000000000000000000000000000000000000000000000000000000600052601260045260246000fd5b60006130a782611d8c565b91506130b283611d8c565b9250826130c2576130c161306d565b5b828204905092915050565b60006130d882611d8c565b91506130e383611d8c565b9250826130f3576130f261306d565b5b828206905092915050565b7f4e487b7100000000000000000000000000000000000000000000000000000000600052603260045260246000fdfea264697066735822122035730c813b95dde92051f6eb8d1b0a40d5a6360271256fcc79bdce5de1b494b964736f6c63430008110033",
  "linkReferences": {},
  "deployedLinkReferences": {}
}