{
  "_format": "hh-sol-artifact-1",
  "contractName": "MintMessage",
  "sourceName": "contracts/MintMessage.sol",
  "abi": [
    {
      "inputs": [],
      "stateMutability": "nonpayable",
      "type": "constructor"
    },
    {
      "anonymous": false,
      "inputs": [
        {
          "indexed": true,
          "internalType": "address",
          "name": "owner",
          "type": "address"
        },
        {
          "indexed": true,
          "internalType": "address",
          "name": "approved",
          "type": "address"
        },
        {
          "indexed": true,
          "internalType": "uint256",
          "name": "tokenId",
          "type": "uint256"
        }
      ],
      "name": "Approval",
      "type": "event"
    },
    {
      "anonymous": false,
      "inputs": [
        {
          "indexed": true,
          "internalType": "address",
          "name": "owner",
          "type": "address"
        },
        {
          "indexed": true,
          "internalType": "address",
          "name": "operator",
          "type": "address"
        },
        {
          "indexed": false,
          "internalType": "bool",
          "name": "approved",
          "type": "bool"
        }
      ],
      "name": "ApprovalForAll",
      "type": "event"
    },
    {
      "anonymous": false,
      "inputs": [
        {
          "indexed": false,
          "internalType": "address",
          "name": "sender",
          "type": "address"
        },
        {
          "indexed": false,
          "internalType": "uint256",
          "name": "tokenId",
          "type": "uint256"
        }
      ],
      "name": "NewMintMessageMinted",
      "type": "event"
    },
    {
      "anonymous": false,
      "inputs": [
        {
          "indexed": true,
          "internalType": "address",
          "name": "from",
          "type": "address"
        },
        {
          "indexed": true,
          "internalType": "address",
          "name": "to",
          "type": "address"
        },
        {
          "indexed": true,
          "internalType": "uint256",
          "name": "tokenId",
          "type": "uint256"
        }
      ],
      "name": "Transfer",
      "type": "event"
    },
    {
      "inputs": [
        {
          "internalType": "address",
          "name": "to",
          "type": "address"
        },
        {
          "internalType": "uint256",
          "name": "tokenId",
          "type": "uint256"
        }
      ],
      "name": "approve",
      "outputs": [],
      "stateMutability": "nonpayable",
      "type": "function"
    },
    {
      "inputs": [
        {
          "internalType": "address",
          "name": "owner",
          "type": "address"
        }
      ],
      "name": "balanceOf",
      "outputs": [
        {
          "internalType": "uint256",
          "name": "",
          "type": "uint256"
        }
      ],
      "stateMutability": "view",
      "type": "function"
    },
    {
      "inputs": [
        {
          "internalType": "string",
          "name": "tokenURI",
          "type": "string"
        }
      ],
      "name": "createToken",
      "outputs": [
        {
          "internalType": "uint256",
          "name": "",
          "type": "uint256"
        }
      ],
      "stateMutability": "payable",
      "type": "function"
    },
    {
      "inputs": [
        {
          "internalType": "uint256",
          "name": "tokenId",
          "type": "uint256"
        }
      ],
      "name": "getApproved",
      "outputs": [
        {
          "internalType": "address",
          "name": "",
          "type": "address"
        }
      ],
      "stateMutability": "view",
      "type": "function"
    },
    {
      "inputs": [],
      "name": "getMintPrice",
      "outputs": [
        {
          "internalType": "uint256",
          "name": "",
          "type": "uint256"
        }
      ],
      "stateMutability": "view",
      "type": "function"
    },
    {
      "inputs": [
        {
          "internalType": "address",
          "name": "owner",
          "type": "address"
        },
        {
          "internalType": "address",
          "name": "operator",
          "type": "address"
        }
      ],
      "name": "isApprovedForAll",
      "outputs": [
        {
          "internalType": "bool",
          "name": "",
          "type": "bool"
        }
      ],
      "stateMutability": "view",
      "type": "function"
    },
    {
      "inputs": [],
      "name": "name",
      "outputs": [
        {
          "internalType": "string",
          "name": "",
          "type": "string"
        }
      ],
      "stateMutability": "view",
      "type": "function"
    },
    {
      "inputs": [
        {
          "internalType": "uint256",
          "name": "tokenId",
          "type": "uint256"
        }
      ],
      "name": "ownerOf",
      "outputs": [
        {
          "internalType": "address",
          "name": "",
          "type": "address"
        }
      ],
      "stateMutability": "view",
      "type": "function"
    },
    {
      "inputs": [
        {
          "internalType": "address",
          "name": "from",
          "type": "address"
        },
        {
          "internalType": "address",
          "name": "to",
          "type": "address"
        },
        {
          "internalType": "uint256",
          "name": "tokenId",
          "type": "uint256"
        }
      ],
      "name": "safeTransferFrom",
      "outputs": [],
      "stateMutability": "nonpayable",
      "type": "function"
    },
    {
      "inputs": [
        {
          "internalType": "address",
          "name": "from",
          "type": "address"
        },
        {
          "internalType": "address",
          "name": "to",
          "type": "address"
        },
        {
          "internalType": "uint256",
          "name": "tokenId",
          "type": "uint256"
        },
        {
          "internalType": "bytes",
          "name": "data",
          "type": "bytes"
        }
      ],
      "name": "safeTransferFrom",
      "outputs": [],
      "stateMutability": "nonpayable",
      "type": "function"
    },
    {
      "inputs": [
        {
          "internalType": "address",
          "name": "operator",
          "type": "address"
        },
        {
          "internalType": "bool",
          "name": "approved",
          "type": "bool"
        }
      ],
      "name": "setApprovalForAll",
      "outputs": [],
      "stateMutability": "nonpayable",
      "type": "function"
    },
    {
      "inputs": [
        {
          "internalType": "bytes4",
          "name": "interfaceId",
          "type": "bytes4"
        }
      ],
      "name": "supportsInterface",
      "outputs": [
        {
          "internalType": "bool",
          "name": "",
          "type": "bool"
        }
      ],
      "stateMutability": "view",
      "type": "function"
    },
    {
      "inputs": [],
      "name": "symbol",
      "outputs": [
        {
          "internalType": "string",
          "name": "",
          "type": "string"
        }
      ],
      "stateMutability": "view",
      "type": "function"
    },
    {
      "inputs": [
        {
          "internalType": "uint256",
          "name": "tokenId",
          "type": "uint256"
        }
      ],
      "name": "tokenURI",
      "outputs": [
        {
          "internalType": "string",
          "name": "",
          "type": "string"
        }
      ],
      "stateMutability": "view",
      "type": "function"
    },
    {
      "inputs": [
        {
          "internalType": "address",
          "name": "from",
          "type": "address"
        },
        {
          "internalType": "address",
          "name": "to",
          "type": "address"
        },
        {
          "internalType": "uint256",
          "name": "tokenId",
          "type": "uint256"
        }
      ],
      "name": "transferFrom",
      "outputs": [],
      "stateMutability": "nonpayable",
      "type": "function"
    },
    {
      "inputs": [
        {
          "internalType": "uint256",
          "name": "_mintPrice",
          "type": "uint256"
        }
      ],
      "name": "updateMintPrice",
      "outputs": [],
      "stateMutability": "payable",
      "type": "function"
    }
  ],
  "bytecode": "0x608060405260006008553480156200001657600080fd5b506040518060400160405280600b81526020017f4d696e744d6573736167650000000000000000000000000000000000000000008152506040518060400160405280600681526020017f4d4e544d5347000000000000000000000000000000000000000000000000000081525081600090805190602001906200009b929190620000fe565b508060019080519060200190620000b4929190620000fe565b50505033600960006101000a81548173ffffffffffffffffffffffffffffffffffffffff021916908373ffffffffffffffffffffffffffffffffffffffff16021790555062000213565b8280546200010c90620001ae565b90600052602060002090601f0160209004810192826200013057600085556200017c565b82601f106200014b57805160ff19168380011785556200017c565b828001600101855582156200017c579182015b828111156200017b5782518255916020019190600101906200015e565b5b5090506200018b91906200018f565b5090565b5b80821115620001aa57600081600090555060010162000190565b5090565b60006002820490506001821680620001c757607f821691505b60208210811415620001de57620001dd620001e4565b5b50919050565b7f4e487b7100000000000000000000000000000000000000000000000000000000600052602260045260246000fd5b612a8b80620002236000396000f3fe6080604052600436106100f25760003560e01c80636352211e1161008a578063a7f93ebd11610059578063a7f93ebd14610331578063b88d4fde1461035c578063c87b56dd14610385578063e985e9c5146103c2576100f2565b80636352211e1461026357806370a08231146102a057806395d89b41146102dd578063a22cb46514610308576100f2565b8063095ea7b3116100c6578063095ea7b3146101b857806323b872dd146101e157806342842e0e1461020a57806345576f9414610233576100f2565b8062728e46146100f757806301ffc9a71461011357806306fdde0314610150578063081812fc1461017b575b600080fd5b610111600480360381019061010c9190611d66565b6103ff565b005b34801561011f57600080fd5b5061013a60048036038101906101359190611cd3565b610499565b60405161014791906120b1565b60405180910390f35b34801561015c57600080fd5b5061016561057b565b60405161017291906120cc565b60405180910390f35b34801561018757600080fd5b506101a2600480360381019061019d9190611d66565b61060d565b6040516101af919061204a565b60405180910390f35b3480156101c457600080fd5b506101df60048036038101906101da9190611c97565b610653565b005b3480156101ed57600080fd5b5061020860048036038101906102039190611b91565b61076b565b005b34801561021657600080fd5b50610231600480360381019061022c9190611b91565b6107cb565b005b61024d60048036038101906102489190611d25565b6107eb565b60405161025a919061228e565b60405180910390f35b34801561026f57600080fd5b5061028a60048036038101906102859190611d66565b610822565b604051610297919061204a565b60405180910390f35b3480156102ac57600080fd5b506102c760048036038101906102c29190611b2c565b6108d4565b6040516102d4919061228e565b60405180910390f35b3480156102e957600080fd5b506102f261098c565b6040516102ff91906120cc565b60405180910390f35b34801561031457600080fd5b5061032f600480360381019061032a9190611c5b565b610a1e565b005b34801561033d57600080fd5b50610346610a34565b604051610353919061228e565b60405180910390f35b34801561036857600080fd5b50610383600480360381019061037e9190611be0565b610a3e565b005b34801561039157600080fd5b506103ac60048036038101906103a79190611d66565b610aa0565b6040516103b991906120cc565b60405180910390f35b3480156103ce57600080fd5b506103e960048036038101906103e49190611b55565b610bb3565b6040516103f691906120b1565b60405180910390f35b3373ffffffffffffffffffffffffffffffffffffffff16600960009054906101000a900473ffffffffffffffffffffffffffffffffffffffff1673ffffffffffffffffffffffffffffffffffffffff161461048f576040517f08c379a00000000000000000000000000000000000000000000000000000000081526004016104869061212e565b60405180910390fd5b8060088190555050565b60007f80ac58cd000000000000000000000000000000000000000000000000000000007bffffffffffffffffffffffffffffffffffffffffffffffffffffffff1916827bffffffffffffffffffffffffffffffffffffffffffffffffffffffff1916148061056457507f5b5e139f000000000000000000000000000000000000000000000000000000007bffffffffffffffffffffffffffffffffffffffffffffffffffffffff1916827bffffffffffffffffffffffffffffffffffffffffffffffffffffffff1916145b80610574575061057382610c47565b5b9050919050565b60606000805461058a906124e4565b80601f01602080910402602001604051908101604052809291908181526020018280546105b6906124e4565b80156106035780601f106105d857610100808354040283529160200191610603565b820191906000526020600020905b8154815290600101906020018083116105e657829003601f168201915b5050505050905090565b600061061882610cb1565b6004600083815260200190815260200160002060009054906101000a900473ffffffffffffffffffffffffffffffffffffffff169050919050565b600061065e82610822565b90508073ffffffffffffffffffffffffffffffffffffffff168373ffffffffffffffffffffffffffffffffffffffff1614156106cf576040517f08c379a00000000000000000000000000000000000000000000000000000000081526004016106c69061224e565b60405180910390fd5b8073ffffffffffffffffffffffffffffffffffffffff166106ee610cfc565b73ffffffffffffffffffffffffffffffffffffffff16148061071d575061071c81610717610cfc565b610bb3565b5b61075c576040517f08c379a0000000000000000000000000000000000000000000000000000000008152600401610753906121ee565b60405180910390fd5b6107668383610d04565b505050565b61077c610776610cfc565b82610dbd565b6107bb576040517f08c379a00000000000000000000000000000000000000000000000000000000081526004016107b29061226e565b60405180910390fd5b6107c6838383610e52565b505050565b6107e683838360405180602001604052806000815250610a3e565b505050565b60006107f760076110b9565b600061080360076110cf565b905061080f33826110dd565b61081981846112b7565b80915050919050565b6000806002600084815260200190815260200160002060009054906101000a900473ffffffffffffffffffffffffffffffffffffffff169050600073ffffffffffffffffffffffffffffffffffffffff168173ffffffffffffffffffffffffffffffffffffffff1614156108cb576040517f08c379a00000000000000000000000000000000000000000000000000000000081526004016108c29061222e565b60405180910390fd5b80915050919050565b60008073ffffffffffffffffffffffffffffffffffffffff168273ffffffffffffffffffffffffffffffffffffffff161415610945576040517f08c379a000000000000000000000000000000000000000000000000000000000815260040161093c906121ae565b60405180910390fd5b600360008373ffffffffffffffffffffffffffffffffffffffff1673ffffffffffffffffffffffffffffffffffffffff168152602001908152602001600020549050919050565b60606001805461099b906124e4565b80601f01602080910402602001604051908101604052809291908181526020018280546109c7906124e4565b8015610a145780601f106109e957610100808354040283529160200191610a14565b820191906000526020600020905b8154815290600101906020018083116109f757829003601f168201915b5050505050905090565b610a30610a29610cfc565b838361132b565b5050565b6000600854905090565b610a4f610a49610cfc565b83610dbd565b610a8e576040517f08c379a0000000000000000000000000000000000000000000000000000000008152600401610a859061226e565b60405180910390fd5b610a9a84848484611498565b50505050565b6060610aab82610cb1565b6000600660008481526020019081526020016000208054610acb906124e4565b80601f0160208091040260200160405190810160405280929190818152602001828054610af7906124e4565b8015610b445780601f10610b1957610100808354040283529160200191610b44565b820191906000526020600020905b815481529060010190602001808311610b2757829003601f168201915b505050505090506000610b556114f4565b9050600081511415610b6b578192505050610bae565b600082511115610ba0578082604051602001610b88929190612026565b60405160208183030381529060405292505050610bae565b610ba98461150b565b925050505b919050565b6000600560008473ffffffffffffffffffffffffffffffffffffffff1673ffffffffffffffffffffffffffffffffffffffff16815260200190815260200160002060008373ffffffffffffffffffffffffffffffffffffffff1673ffffffffffffffffffffffffffffffffffffffff16815260200190815260200160002060009054906101000a900460ff16905092915050565b60007f01ffc9a7000000000000000000000000000000000000000000000000000000007bffffffffffffffffffffffffffffffffffffffffffffffffffffffff1916827bffffffffffffffffffffffffffffffffffffffffffffffffffffffff1916149050919050565b610cba81611573565b610cf9576040517f08c379a0000000000000000000000000000000000000000000000000000000008152600401610cf09061222e565b60405180910390fd5b50565b600033905090565b816004600083815260200190815260200160002060006101000a81548173ffffffffffffffffffffffffffffffffffffffff021916908373ffffffffffffffffffffffffffffffffffffffff160217905550808273ffffffffffffffffffffffffffffffffffffffff16610d7783610822565b73ffffffffffffffffffffffffffffffffffffffff167f8c5be1e5ebec7d5bd14f71427d1e84f3dd0314c0f7b2291e5b200ac8c7c3b92560405160405180910390a45050565b600080610dc983610822565b90508073ffffffffffffffffffffffffffffffffffffffff168473ffffffffffffffffffffffffffffffffffffffff161480610e0b5750610e0a8185610bb3565b5b80610e4957508373ffffffffffffffffffffffffffffffffffffffff16610e318461060d565b73ffffffffffffffffffffffffffffffffffffffff16145b91505092915050565b8273ffffffffffffffffffffffffffffffffffffffff16610e7282610822565b73ffffffffffffffffffffffffffffffffffffffff1614610ec8576040517f08c379a0000000000000000000000000000000000000000000000000000000008152600401610ebf9061210e565b60405180910390fd5b600073ffffffffffffffffffffffffffffffffffffffff168273ffffffffffffffffffffffffffffffffffffffff161415610f38576040517f08c379a0000000000000000000000000000000000000000000000000000000008152600401610f2f9061216e565b60405180910390fd5b610f438383836115df565b610f4e600082610d04565b6001600360008573ffffffffffffffffffffffffffffffffffffffff1673ffffffffffffffffffffffffffffffffffffffff1681526020019081526020016000206000828254610f9e91906123fa565b925050819055506001600360008473ffffffffffffffffffffffffffffffffffffffff1673ffffffffffffffffffffffffffffffffffffffff1681526020019081526020016000206000828254610ff59190612373565b92505081905550816002600083815260200190815260200160002060006101000a81548173ffffffffffffffffffffffffffffffffffffffff021916908373ffffffffffffffffffffffffffffffffffffffff160217905550808273ffffffffffffffffffffffffffffffffffffffff168473ffffffffffffffffffffffffffffffffffffffff167fddf252ad1be2c89b69c2b068fc378daa952ba7f163c4a11628f55a4df523b3ef60405160405180910390a46110b48383836115e4565b505050565b6001816000016000828254019250508190555050565b600081600001549050919050565b600073ffffffffffffffffffffffffffffffffffffffff168273ffffffffffffffffffffffffffffffffffffffff16141561114d576040517f08c379a00000000000000000000000000000000000000000000000000000000081526004016111449061220e565b60405180910390fd5b61115681611573565b15611196576040517f08c379a000000000000000000000000000000000000000000000000000000000815260040161118d9061214e565b60405180910390fd5b6111a2600083836115df565b6001600360008473ffffffffffffffffffffffffffffffffffffffff1673ffffffffffffffffffffffffffffffffffffffff16815260200190815260200160002060008282546111f29190612373565b92505081905550816002600083815260200190815260200160002060006101000a81548173ffffffffffffffffffffffffffffffffffffffff021916908373ffffffffffffffffffffffffffffffffffffffff160217905550808273ffffffffffffffffffffffffffffffffffffffff16600073ffffffffffffffffffffffffffffffffffffffff167fddf252ad1be2c89b69c2b068fc378daa952ba7f163c4a11628f55a4df523b3ef60405160405180910390a46112b3600083836115e4565b5050565b6112c082611573565b6112ff576040517f08c379a00000000000000000000000000000000000000000000000000000000081526004016112f6906121ce565b60405180910390fd5b80600660008481526020019081526020016000209080519060200190611326929190611950565b505050565b8173ffffffffffffffffffffffffffffffffffffffff168373ffffffffffffffffffffffffffffffffffffffff16141561139a576040517f08c379a00000000000000000000000000000000000000000000000000000000081526004016113919061218e565b60405180910390fd5b80600560008573ffffffffffffffffffffffffffffffffffffffff1673ffffffffffffffffffffffffffffffffffffffff16815260200190815260200160002060008473ffffffffffffffffffffffffffffffffffffffff1673ffffffffffffffffffffffffffffffffffffffff16815260200190815260200160002060006101000a81548160ff0219169083151502179055508173ffffffffffffffffffffffffffffffffffffffff168373ffffffffffffffffffffffffffffffffffffffff167f17307eab39ab6107e8899845ad3d59bd9653f200f220920489ca2b5937696c318360405161148b91906120b1565b60405180910390a3505050565b6114a3848484610e52565b6114af848484846115e9565b6114ee576040517f08c379a00000000000000000000000000000000000000000000000000000000081526004016114e5906120ee565b60405180910390fd5b50505050565b606060405180602001604052806000815250905090565b606061151682610cb1565b60006115206114f4565b90506000815111611540576040518060200160405280600081525061156b565b8061154a84611780565b60405160200161155b929190612026565b6040516020818303038152906040525b915050919050565b60008073ffffffffffffffffffffffffffffffffffffffff166002600084815260200190815260200160002060009054906101000a900473ffffffffffffffffffffffffffffffffffffffff1673ffffffffffffffffffffffffffffffffffffffff1614159050919050565b505050565b505050565b600061160a8473ffffffffffffffffffffffffffffffffffffffff1661192d565b15611773578373ffffffffffffffffffffffffffffffffffffffff1663150b7a02611633610cfc565b8786866040518563ffffffff1660e01b81526004016116559493929190612065565b602060405180830381600087803b15801561166f57600080fd5b505af19250505080156116a057506040513d601f19601f8201168201806040525081019061169d9190611cfc565b60015b611723573d80600081146116d0576040519150601f19603f3d011682016040523d82523d6000602084013e6116d5565b606091505b5060008151141561171b576040517f08c379a0000000000000000000000000000000000000000000000000000000008152600401611712906120ee565b60405180910390fd5b805181602001fd5b63150b7a0260e01b7bffffffffffffffffffffffffffffffffffffffffffffffffffffffff1916817bffffffffffffffffffffffffffffffffffffffffffffffffffffffff191614915050611778565b600190505b949350505050565b606060008214156117c8576040518060400160405280600181526020017f30000000000000000000000000000000000000000000000000000000000000008152509050611928565b600082905060005b600082146117fa5780806117e390612547565b915050600a826117f391906123c9565b91506117d0565b60008167ffffffffffffffff81111561183c577f4e487b7100000000000000000000000000000000000000000000000000000000600052604160045260246000fd5b6040519080825280601f01601f19166020018201604052801561186e5781602001600182028036833780820191505090505b5090505b600085146119215760018261188791906123fa565b9150600a856118969190612590565b60306118a29190612373565b60f81b8183815181106118de577f4e487b7100000000000000000000000000000000000000000000000000000000600052603260045260246000fd5b60200101907effffffffffffffffffffffffffffffffffffffffffffffffffffffffffffff1916908160001a905350600a8561191a91906123c9565b9450611872565b8093505050505b919050565b6000808273ffffffffffffffffffffffffffffffffffffffff163b119050919050565b82805461195c906124e4565b90600052602060002090601f01602090048101928261197e57600085556119c5565b82601f1061199757805160ff19168380011785556119c5565b828001600101855582156119c5579182015b828111156119c45782518255916020019190600101906119a9565b5b5090506119d291906119d6565b5090565b5b808211156119ef5760008160009055506001016119d7565b5090565b6000611a06611a01846122ce565b6122a9565b905082815260208101848484011115611a1e57600080fd5b611a298482856124a2565b509392505050565b6000611a44611a3f846122ff565b6122a9565b905082815260208101848484011115611a5c57600080fd5b611a678482856124a2565b509392505050565b600081359050611a7e816129f9565b92915050565b600081359050611a9381612a10565b92915050565b600081359050611aa881612a27565b92915050565b600081519050611abd81612a27565b92915050565b600082601f830112611ad457600080fd5b8135611ae48482602086016119f3565b91505092915050565b600082601f830112611afe57600080fd5b8135611b0e848260208601611a31565b91505092915050565b600081359050611b2681612a3e565b92915050565b600060208284031215611b3e57600080fd5b6000611b4c84828501611a6f565b91505092915050565b60008060408385031215611b6857600080fd5b6000611b7685828601611a6f565b9250506020611b8785828601611a6f565b9150509250929050565b600080600060608486031215611ba657600080fd5b6000611bb486828701611a6f565b9350506020611bc586828701611a6f565b9250506040611bd686828701611b17565b9150509250925092565b60008060008060808587031215611bf657600080fd5b6000611c0487828801611a6f565b9450506020611c1587828801611a6f565b9350506040611c2687828801611b17565b925050606085013567ffffffffffffffff811115611c4357600080fd5b611c4f87828801611ac3565b91505092959194509250565b60008060408385031215611c6e57600080fd5b6000611c7c85828601611a6f565b9250506020611c8d85828601611a84565b9150509250929050565b60008060408385031215611caa57600080fd5b6000611cb885828601611a6f565b9250506020611cc985828601611b17565b9150509250929050565b600060208284031215611ce557600080fd5b6000611cf384828501611a99565b91505092915050565b600060208284031215611d0e57600080fd5b6000611d1c84828501611aae565b91505092915050565b600060208284031215611d3757600080fd5b600082013567ffffffffffffffff811115611d5157600080fd5b611d5d84828501611aed565b91505092915050565b600060208284031215611d7857600080fd5b6000611d8684828501611b17565b91505092915050565b611d988161242e565b82525050565b611da781612440565b82525050565b6000611db882612330565b611dc28185612346565b9350611dd28185602086016124b1565b611ddb8161267d565b840191505092915050565b6000611df18261233b565b611dfb8185612357565b9350611e0b8185602086016124b1565b611e148161267d565b840191505092915050565b6000611e2a8261233b565b611e348185612368565b9350611e448185602086016124b1565b80840191505092915050565b6000611e5d603283612357565b9150611e688261268e565b604082019050919050565b6000611e80602583612357565b9150611e8b826126dd565b604082019050919050565b6000611ea3602183612357565b9150611eae8261272c565b604082019050919050565b6000611ec6601c83612357565b9150611ed18261277b565b602082019050919050565b6000611ee9602483612357565b9150611ef4826127a4565b604082019050919050565b6000611f0c601983612357565b9150611f17826127f3565b602082019050919050565b6000611f2f602983612357565b9150611f3a8261281c565b604082019050919050565b6000611f52602e83612357565b9150611f5d8261286b565b604082019050919050565b6000611f75603e83612357565b9150611f80826128ba565b604082019050919050565b6000611f98602083612357565b9150611fa382612909565b602082019050919050565b6000611fbb601883612357565b9150611fc682612932565b602082019050919050565b6000611fde602183612357565b9150611fe98261295b565b604082019050919050565b6000612001602e83612357565b915061200c826129aa565b604082019050919050565b61202081612498565b82525050565b60006120328285611e1f565b915061203e8284611e1f565b91508190509392505050565b600060208201905061205f6000830184611d8f565b92915050565b600060808201905061207a6000830187611d8f565b6120876020830186611d8f565b6120946040830185612017565b81810360608301526120a68184611dad565b905095945050505050565b60006020820190506120c66000830184611d9e565b92915050565b600060208201905081810360008301526120e68184611de6565b905092915050565b6000602082019050818103600083015261210781611e50565b9050919050565b6000602082019050818103600083015261212781611e73565b9050919050565b6000602082019050818103600083015261214781611e96565b9050919050565b6000602082019050818103600083015261216781611eb9565b9050919050565b6000602082019050818103600083015261218781611edc565b9050919050565b600060208201905081810360008301526121a781611eff565b9050919050565b600060208201905081810360008301526121c781611f22565b9050919050565b600060208201905081810360008301526121e781611f45565b9050919050565b6000602082019050818103600083015261220781611f68565b9050919050565b6000602082019050818103600083015261222781611f8b565b9050919050565b6000602082019050818103600083015261224781611fae565b9050919050565b6000602082019050818103600083015261226781611fd1565b9050919050565b6000602082019050818103600083015261228781611ff4565b9050919050565b60006020820190506122a36000830184612017565b92915050565b60006122b36122c4565b90506122bf8282612516565b919050565b6000604051905090565b600067ffffffffffffffff8211156122e9576122e861264e565b5b6122f28261267d565b9050602081019050919050565b600067ffffffffffffffff82111561231a5761231961264e565b5b6123238261267d565b9050602081019050919050565b600081519050919050565b600081519050919050565b600082825260208201905092915050565b600082825260208201905092915050565b600081905092915050565b600061237e82612498565b915061238983612498565b9250827fffffffffffffffffffffffffffffffffffffffffffffffffffffffffffffffff038211156123be576123bd6125c1565b5b828201905092915050565b60006123d482612498565b91506123df83612498565b9250826123ef576123ee6125f0565b5b828204905092915050565b600061240582612498565b915061241083612498565b925082821015612423576124226125c1565b5b828203905092915050565b600061243982612478565b9050919050565b60008115159050919050565b60007fffffffff0000000000000000000000000000000000000000000000000000000082169050919050565b600073ffffffffffffffffffffffffffffffffffffffff82169050919050565b6000819050919050565b82818337600083830152505050565b60005b838110156124cf5780820151818401526020810190506124b4565b838111156124de576000848401525b50505050565b600060028204905060018216806124fc57607f821691505b602082108114156125105761250f61261f565b5b50919050565b61251f8261267d565b810181811067ffffffffffffffff8211171561253e5761253d61264e565b5b80604052505050565b600061255282612498565b91507fffffffffffffffffffffffffffffffffffffffffffffffffffffffffffffffff821415612585576125846125c1565b5b600182019050919050565b600061259b82612498565b91506125a683612498565b9250826125b6576125b56125f0565b5b828206905092915050565b7f4e487b7100000000000000000000000000000000000000000000000000000000600052601160045260246000fd5b7f4e487b7100000000000000000000000000000000000000000000000000000000600052601260045260246000fd5b7f4e487b7100000000000000000000000000000000000000000000000000000000600052602260045260246000fd5b7f4e487b7100000000000000000000000000000000000000000000000000000000600052604160045260246000fd5b6000601f19601f8301169050919050565b7f4552433732313a207472616e7366657220746f206e6f6e20455243373231526560008201527f63656976657220696d706c656d656e7465720000000000000000000000000000602082015250565b7f4552433732313a207472616e736665722066726f6d20696e636f72726563742060008201527f6f776e6572000000000000000000000000000000000000000000000000000000602082015250565b7f4f6e6c79206f776e65722063616e20757064617465206d696e7420707269636560008201527f2e00000000000000000000000000000000000000000000000000000000000000602082015250565b7f4552433732313a20746f6b656e20616c7265616479206d696e74656400000000600082015250565b7f4552433732313a207472616e7366657220746f20746865207a65726f2061646460008201527f7265737300000000000000000000000000000000000000000000000000000000602082015250565b7f4552433732313a20617070726f766520746f2063616c6c657200000000000000600082015250565b7f4552433732313a2061646472657373207a65726f206973206e6f74206120766160008201527f6c6964206f776e65720000000000000000000000000000000000000000000000602082015250565b7f45524337323155524953746f726167653a2055524920736574206f66206e6f6e60008201527f6578697374656e7420746f6b656e000000000000000000000000000000000000602082015250565b7f4552433732313a20617070726f76652063616c6c6572206973206e6f7420746f60008201527f6b656e206f776e6572206e6f7220617070726f76656420666f7220616c6c0000602082015250565b7f4552433732313a206d696e7420746f20746865207a65726f2061646472657373600082015250565b7f4552433732313a20696e76616c696420746f6b656e2049440000000000000000600082015250565b7f4552433732313a20617070726f76616c20746f2063757272656e74206f776e6560008201527f7200000000000000000000000000000000000000000000000000000000000000602082015250565b7f4552433732313a2063616c6c6572206973206e6f7420746f6b656e206f776e6560008201527f72206e6f7220617070726f766564000000000000000000000000000000000000602082015250565b612a028161242e565b8114612a0d57600080fd5b50565b612a1981612440565b8114612a2457600080fd5b50565b612a308161244c565b8114612a3b57600080fd5b50565b612a4781612498565b8114612a5257600080fd5b5056fea2646970667358221220e06c25fca3dff709889a17b46b20dcf52065a2244be158acf4c38be598eeb55e64736f6c63430008040033",
  "linkReferences": {},
  "deployedLinkReferences": {}
}