{
  "_format": "hh-sol-artifact-1",
  "contractName": "MintMessage",
  "sourceName": "contracts/MintMessage.sol",
  "abi": [
    {
      "inputs": [],
      "stateMutability": "nonpayable",
      "type": "constructor"
    },
    {
      "anonymous": false,
      "inputs": [
        {
          "indexed": true,
          "internalType": "address",
          "name": "owner",
          "type": "address"
        },
        {
          "indexed": true,
          "internalType": "address",
          "name": "approved",
          "type": "address"
        },
        {
          "indexed": true,
          "internalType": "uint256",
          "name": "tokenId",
          "type": "uint256"
        }
      ],
      "name": "Approval",
      "type": "event"
    },
    {
      "anonymous": false,
      "inputs": [
        {
          "indexed": true,
          "internalType": "address",
          "name": "owner",
          "type": "address"
        },
        {
          "indexed": true,
          "internalType": "address",
          "name": "operator",
          "type": "address"
        },
        {
          "indexed": false,
          "internalType": "bool",
          "name": "approved",
          "type": "bool"
        }
      ],
      "name": "ApprovalForAll",
      "type": "event"
    },
    {
      "anonymous": false,
      "inputs": [
        {
          "indexed": false,
          "internalType": "address",
          "name": "sender",
          "type": "address"
        },
        {
          "indexed": false,
          "internalType": "address",
          "name": "recipient",
          "type": "address"
        },
        {
          "indexed": false,
          "internalType": "uint256",
          "name": "tokenId",
          "type": "uint256"
        }
      ],
      "name": "CreateMessage",
      "type": "event"
    },
    {
      "anonymous": false,
      "inputs": [
        {
          "indexed": true,
          "internalType": "address",
          "name": "previousOwner",
          "type": "address"
        },
        {
          "indexed": true,
          "internalType": "address",
          "name": "newOwner",
          "type": "address"
        }
      ],
      "name": "OwnershipTransferred",
      "type": "event"
    },
    {
      "anonymous": false,
      "inputs": [
        {
          "indexed": true,
          "internalType": "address",
          "name": "from",
          "type": "address"
        },
        {
          "indexed": true,
          "internalType": "address",
          "name": "to",
          "type": "address"
        },
        {
          "indexed": true,
          "internalType": "uint256",
          "name": "tokenId",
          "type": "uint256"
        }
      ],
      "name": "Transfer",
      "type": "event"
    },
    {
      "inputs": [
        {
          "internalType": "address",
          "name": "to",
          "type": "address"
        },
        {
          "internalType": "uint256",
          "name": "tokenId",
          "type": "uint256"
        }
      ],
      "name": "approve",
      "outputs": [],
      "stateMutability": "nonpayable",
      "type": "function"
    },
    {
      "inputs": [
        {
          "internalType": "address",
          "name": "owner",
          "type": "address"
        }
      ],
      "name": "balanceOf",
      "outputs": [
        {
          "internalType": "uint256",
          "name": "",
          "type": "uint256"
        }
      ],
      "stateMutability": "view",
      "type": "function"
    },
    {
      "inputs": [
        {
          "internalType": "uint256",
          "name": "tokenId",
          "type": "uint256"
        }
      ],
      "name": "burn",
      "outputs": [],
      "stateMutability": "nonpayable",
      "type": "function"
    },
    {
      "inputs": [
        {
          "internalType": "string",
          "name": "_uri",
          "type": "string"
        },
        {
          "internalType": "address",
          "name": "_to",
          "type": "address"
        }
      ],
      "name": "createMessage",
      "outputs": [],
      "stateMutability": "payable",
      "type": "function"
    },
    {
      "inputs": [
        {
          "internalType": "uint256",
          "name": "tokenId",
          "type": "uint256"
        }
      ],
      "name": "getApproved",
      "outputs": [
        {
          "internalType": "address",
          "name": "",
          "type": "address"
        }
      ],
      "stateMutability": "view",
      "type": "function"
    },
    {
      "inputs": [
        {
          "internalType": "address",
          "name": "owner",
          "type": "address"
        },
        {
          "internalType": "address",
          "name": "operator",
          "type": "address"
        }
      ],
      "name": "isApprovedForAll",
      "outputs": [
        {
          "internalType": "bool",
          "name": "",
          "type": "bool"
        }
      ],
      "stateMutability": "view",
      "type": "function"
    },
    {
      "inputs": [],
      "name": "mintPrice",
      "outputs": [
        {
          "internalType": "uint256",
          "name": "",
          "type": "uint256"
        }
      ],
      "stateMutability": "view",
      "type": "function"
    },
    {
      "inputs": [],
      "name": "name",
      "outputs": [
        {
          "internalType": "string",
          "name": "",
          "type": "string"
        }
      ],
      "stateMutability": "view",
      "type": "function"
    },
    {
      "inputs": [],
      "name": "owner",
      "outputs": [
        {
          "internalType": "address",
          "name": "",
          "type": "address"
        }
      ],
      "stateMutability": "view",
      "type": "function"
    },
    {
      "inputs": [
        {
          "internalType": "uint256",
          "name": "tokenId",
          "type": "uint256"
        }
      ],
      "name": "ownerOf",
      "outputs": [
        {
          "internalType": "address",
          "name": "",
          "type": "address"
        }
      ],
      "stateMutability": "view",
      "type": "function"
    },
    {
      "inputs": [],
      "name": "renounceOwnership",
      "outputs": [],
      "stateMutability": "nonpayable",
      "type": "function"
    },
    {
      "inputs": [
        {
          "internalType": "address",
          "name": "from",
          "type": "address"
        },
        {
          "internalType": "address",
          "name": "to",
          "type": "address"
        },
        {
          "internalType": "uint256",
          "name": "tokenId",
          "type": "uint256"
        }
      ],
      "name": "safeTransferFrom",
      "outputs": [],
      "stateMutability": "nonpayable",
      "type": "function"
    },
    {
      "inputs": [
        {
          "internalType": "address",
          "name": "from",
          "type": "address"
        },
        {
          "internalType": "address",
          "name": "to",
          "type": "address"
        },
        {
          "internalType": "uint256",
          "name": "tokenId",
          "type": "uint256"
        },
        {
          "internalType": "bytes",
          "name": "data",
          "type": "bytes"
        }
      ],
      "name": "safeTransferFrom",
      "outputs": [],
      "stateMutability": "nonpayable",
      "type": "function"
    },
    {
      "inputs": [
        {
          "internalType": "address",
          "name": "operator",
          "type": "address"
        },
        {
          "internalType": "bool",
          "name": "approved",
          "type": "bool"
        }
      ],
      "name": "setApprovalForAll",
      "outputs": [],
      "stateMutability": "nonpayable",
      "type": "function"
    },
    {
      "inputs": [
        {
          "internalType": "bytes4",
          "name": "interfaceId",
          "type": "bytes4"
        }
      ],
      "name": "supportsInterface",
      "outputs": [
        {
          "internalType": "bool",
          "name": "",
          "type": "bool"
        }
      ],
      "stateMutability": "view",
      "type": "function"
    },
    {
      "inputs": [],
      "name": "symbol",
      "outputs": [
        {
          "internalType": "string",
          "name": "",
          "type": "string"
        }
      ],
      "stateMutability": "view",
      "type": "function"
    },
    {
      "inputs": [
        {
          "internalType": "uint256",
          "name": "tokenId",
          "type": "uint256"
        }
      ],
      "name": "tokenURI",
      "outputs": [
        {
          "internalType": "string",
          "name": "",
          "type": "string"
        }
      ],
      "stateMutability": "view",
      "type": "function"
    },
    {
      "inputs": [
        {
          "internalType": "address",
          "name": "from",
          "type": "address"
        },
        {
          "internalType": "address",
          "name": "to",
          "type": "address"
        },
        {
          "internalType": "uint256",
          "name": "tokenId",
          "type": "uint256"
        }
      ],
      "name": "transferFrom",
      "outputs": [],
      "stateMutability": "nonpayable",
      "type": "function"
    },
    {
      "inputs": [
        {
          "internalType": "address",
          "name": "newOwner",
          "type": "address"
        }
      ],
      "name": "transferOwnership",
      "outputs": [],
      "stateMutability": "nonpayable",
      "type": "function"
    },
    {
      "inputs": [
        {
          "internalType": "uint256",
          "name": "_mintPrice",
          "type": "uint256"
        }
      ],
      "name": "updateMintPrice",
      "outputs": [],
      "stateMutability": "payable",
      "type": "function"
    },
    {
      "inputs": [],
      "name": "withdrawFunds",
      "outputs": [],
      "stateMutability": "nonpayable",
      "type": "function"
    }
  ],
  "bytecode": "0x608060405260006009553480156200001657600080fd5b506040518060400160405280600b81526020017f4d696e744d6573736167650000000000000000000000000000000000000000008152506040518060400160405280600381526020017f4d53470000000000000000000000000000000000000000000000000000000000815250816000908162000094919062000417565b508060019081620000a6919062000417565b505050620000c9620000bd620000cf60201b60201c565b620000d760201b60201c565b620004fe565b600033905090565b6000600760009054906101000a900473ffffffffffffffffffffffffffffffffffffffff16905081600760006101000a81548173ffffffffffffffffffffffffffffffffffffffff021916908373ffffffffffffffffffffffffffffffffffffffff1602179055508173ffffffffffffffffffffffffffffffffffffffff168173ffffffffffffffffffffffffffffffffffffffff167f8be0079c531659141344cd1fd0a4f28419497f9722a3daafe3b4186f6b6457e060405160405180910390a35050565b600081519050919050565b7f4e487b7100000000000000000000000000000000000000000000000000000000600052604160045260246000fd5b7f4e487b7100000000000000000000000000000000000000000000000000000000600052602260045260246000fd5b600060028204905060018216806200021f57607f821691505b602082108103620002355762000234620001d7565b5b50919050565b60008190508160005260206000209050919050565b60006020601f8301049050919050565b600082821b905092915050565b6000600883026200029f7fffffffffffffffffffffffffffffffffffffffffffffffffffffffffffffffff8262000260565b620002ab868362000260565b95508019841693508086168417925050509392505050565b6000819050919050565b6000819050919050565b6000620002f8620002f2620002ec84620002c3565b620002cd565b620002c3565b9050919050565b6000819050919050565b6200031483620002d7565b6200032c6200032382620002ff565b8484546200026d565b825550505050565b600090565b6200034362000334565b6200035081848462000309565b505050565b5b8181101562000378576200036c60008262000339565b60018101905062000356565b5050565b601f821115620003c75762000391816200023b565b6200039c8462000250565b81016020851015620003ac578190505b620003c4620003bb8562000250565b83018262000355565b50505b505050565b600082821c905092915050565b6000620003ec60001984600802620003cc565b1980831691505092915050565b6000620004078383620003d9565b9150826002028217905092915050565b62000422826200019d565b67ffffffffffffffff8111156200043e576200043d620001a8565b5b6200044a825462000206565b620004578282856200037c565b600060209050601f8311600181146200048f57600084156200047a578287015190505b620004868582620003f9565b865550620004f6565b601f1984166200049f866200023b565b60005b82811015620004c957848901518255600182019150602085019450602081019050620004a2565b86831015620004e95784890151620004e5601f891682620003d9565b8355505b6001600288020188555050505b505050505050565b6132f1806200050e6000396000f3fe6080604052600436106101295760003560e01c80636817c76c116100ab578063a22cb4651161006f578063a22cb465146103bc578063b88d4fde146103e5578063c87b56dd1461040e578063d4ab39b11461044b578063e985e9c514610467578063f2fde38b146104a457610129565b80636817c76c146102e757806370a0823114610312578063715018a61461034f5780638da5cb5b1461036657806395d89b411461039157610129565b806323b872dd116100f257806323b872dd1461021857806324600fc31461024157806342842e0e1461025857806342966c68146102815780636352211e146102aa57610129565b8062728e461461012e57806301ffc9a71461014a57806306fdde0314610187578063081812fc146101b2578063095ea7b3146101ef575b600080fd5b61014860048036038101906101439190611ead565b6104cd565b005b34801561015657600080fd5b50610171600480360381019061016c9190611f32565b6104df565b60405161017e9190611f7a565b60405180910390f35b34801561019357600080fd5b5061019c6105c1565b6040516101a99190612025565b60405180910390f35b3480156101be57600080fd5b506101d960048036038101906101d49190611ead565b610653565b6040516101e69190612088565b60405180910390f35b3480156101fb57600080fd5b50610216600480360381019061021191906120cf565b610699565b005b34801561022457600080fd5b5061023f600480360381019061023a919061210f565b6107b0565b005b34801561024d57600080fd5b50610256610810565b005b34801561026457600080fd5b5061027f600480360381019061027a919061210f565b610861565b005b34801561028d57600080fd5b506102a860048036038101906102a39190611ead565b610881565b005b3480156102b657600080fd5b506102d160048036038101906102cc9190611ead565b6108dd565b6040516102de9190612088565b60405180910390f35b3480156102f357600080fd5b506102fc61098e565b6040516103099190612171565b60405180910390f35b34801561031e57600080fd5b506103396004803603810190610334919061218c565b610994565b6040516103469190612171565b60405180910390f35b34801561035b57600080fd5b50610364610a4b565b005b34801561037257600080fd5b5061037b610a5f565b6040516103889190612088565b60405180910390f35b34801561039d57600080fd5b506103a6610a89565b6040516103b39190612025565b60405180910390f35b3480156103c857600080fd5b506103e360048036038101906103de91906121e5565b610b1b565b005b3480156103f157600080fd5b5061040c6004803603810190610407919061235a565b610b31565b005b34801561041a57600080fd5b5061043560048036038101906104309190611ead565b610b93565b6040516104429190612025565b60405180910390f35b6104656004803603810190610460919061247e565b610ba5565b005b34801561047357600080fd5b5061048e600480360381019061048991906124da565b610c55565b60405161049b9190611f7a565b60405180910390f35b3480156104b057600080fd5b506104cb60048036038101906104c6919061218c565b610ce9565b005b6104d5610d6c565b8060098190555050565b60007f80ac58cd000000000000000000000000000000000000000000000000000000007bffffffffffffffffffffffffffffffffffffffffffffffffffffffff1916827bffffffffffffffffffffffffffffffffffffffffffffffffffffffff191614806105aa57507f5b5e139f000000000000000000000000000000000000000000000000000000007bffffffffffffffffffffffffffffffffffffffffffffffffffffffff1916827bffffffffffffffffffffffffffffffffffffffffffffffffffffffff1916145b806105ba57506105b982610dea565b5b9050919050565b6060600080546105d090612549565b80601f01602080910402602001604051908101604052809291908181526020018280546105fc90612549565b80156106495780601f1061061e57610100808354040283529160200191610649565b820191906000526020600020905b81548152906001019060200180831161062c57829003601f168201915b5050505050905090565b600061065e82610e54565b6004600083815260200190815260200160002060009054906101000a900473ffffffffffffffffffffffffffffffffffffffff169050919050565b60006106a4826108dd565b90508073ffffffffffffffffffffffffffffffffffffffff168373ffffffffffffffffffffffffffffffffffffffff1603610714576040517f08c379a000000000000000000000000000000000000000000000000000000000815260040161070b906125ec565b60405180910390fd5b8073ffffffffffffffffffffffffffffffffffffffff16610733610e9f565b73ffffffffffffffffffffffffffffffffffffffff16148061076257506107618161075c610e9f565b610c55565b5b6107a1576040517f08c379a00000000000000000000000000000000000000000000000000000000081526004016107989061267e565b60405180910390fd5b6107ab8383610ea7565b505050565b6107c16107bb610e9f565b82610f60565b610800576040517f08c379a00000000000000000000000000000000000000000000000000000000081526004016107f790612710565b60405180910390fd5b61080b838383610ff5565b505050565b610818610d6c565b3373ffffffffffffffffffffffffffffffffffffffff166108fc479081150290604051600060405180830381858888f1935050505015801561085e573d6000803e3d6000fd5b50565b61087c83838360405180602001604052806000815250610b31565b505050565b61089261088c610e9f565b82610f60565b6108d1576040517f08c379a00000000000000000000000000000000000000000000000000000000081526004016108c890612710565b60405180910390fd5b6108da8161125b565b50565b6000806002600084815260200190815260200160002060009054906101000a900473ffffffffffffffffffffffffffffffffffffffff169050600073ffffffffffffffffffffffffffffffffffffffff168173ffffffffffffffffffffffffffffffffffffffff1603610985576040517f08c379a000000000000000000000000000000000000000000000000000000000815260040161097c9061277c565b60405180910390fd5b80915050919050565b60095481565b60008073ffffffffffffffffffffffffffffffffffffffff168273ffffffffffffffffffffffffffffffffffffffff1603610a04576040517f08c379a00000000000000000000000000000000000000000000000000000000081526004016109fb9061280e565b60405180910390fd5b600360008373ffffffffffffffffffffffffffffffffffffffff1673ffffffffffffffffffffffffffffffffffffffff168152602001908152602001600020549050919050565b610a53610d6c565b610a5d6000611267565b565b6000600760009054906101000a900473ffffffffffffffffffffffffffffffffffffffff16905090565b606060018054610a9890612549565b80601f0160208091040260200160405190810160405280929190818152602001828054610ac490612549565b8015610b115780601f10610ae657610100808354040283529160200191610b11565b820191906000526020600020905b815481529060010190602001808311610af457829003601f168201915b5050505050905090565b610b2d610b26610e9f565b838361132d565b5050565b610b42610b3c610e9f565b83610f60565b610b81576040517f08c379a0000000000000000000000000000000000000000000000000000000008152600401610b7890612710565b60405180910390fd5b610b8d84848484611499565b50505050565b6060610b9e826114f5565b9050919050565b6009543414610be9576040517f08c379a0000000000000000000000000000000000000000000000000000000008152600401610be09061287a565b60405180910390fd5b6000610bf56008611607565b9050610c016008611615565b610c0b828261162b565b610c158184611804565b7f93510f90f01b37e380a85e7be4a240a1b2c36c9e09b0d7ff89159a8ce06b6c28338383604051610c489392919061289a565b60405180910390a1505050565b6000600560008473ffffffffffffffffffffffffffffffffffffffff1673ffffffffffffffffffffffffffffffffffffffff16815260200190815260200160002060008373ffffffffffffffffffffffffffffffffffffffff1673ffffffffffffffffffffffffffffffffffffffff16815260200190815260200160002060009054906101000a900460ff16905092915050565b610cf1610d6c565b600073ffffffffffffffffffffffffffffffffffffffff168173ffffffffffffffffffffffffffffffffffffffff1603610d60576040517f08c379a0000000000000000000000000000000000000000000000000000000008152600401610d5790612943565b60405180910390fd5b610d6981611267565b50565b610d74610e9f565b73ffffffffffffffffffffffffffffffffffffffff16610d92610a5f565b73ffffffffffffffffffffffffffffffffffffffff1614610de8576040517f08c379a0000000000000000000000000000000000000000000000000000000008152600401610ddf906129af565b60405180910390fd5b565b60007f01ffc9a7000000000000000000000000000000000000000000000000000000007bffffffffffffffffffffffffffffffffffffffffffffffffffffffff1916827bffffffffffffffffffffffffffffffffffffffffffffffffffffffff1916149050919050565b610e5d81611871565b610e9c576040517f08c379a0000000000000000000000000000000000000000000000000000000008152600401610e939061277c565b60405180910390fd5b50565b600033905090565b816004600083815260200190815260200160002060006101000a81548173ffffffffffffffffffffffffffffffffffffffff021916908373ffffffffffffffffffffffffffffffffffffffff160217905550808273ffffffffffffffffffffffffffffffffffffffff16610f1a836108dd565b73ffffffffffffffffffffffffffffffffffffffff167f8c5be1e5ebec7d5bd14f71427d1e84f3dd0314c0f7b2291e5b200ac8c7c3b92560405160405180910390a45050565b600080610f6c836108dd565b90508073ffffffffffffffffffffffffffffffffffffffff168473ffffffffffffffffffffffffffffffffffffffff161480610fae5750610fad8185610c55565b5b80610fec57508373ffffffffffffffffffffffffffffffffffffffff16610fd484610653565b73ffffffffffffffffffffffffffffffffffffffff16145b91505092915050565b8273ffffffffffffffffffffffffffffffffffffffff16611015826108dd565b73ffffffffffffffffffffffffffffffffffffffff161461106b576040517f08c379a000000000000000000000000000000000000000000000000000000000815260040161106290612a41565b60405180910390fd5b600073ffffffffffffffffffffffffffffffffffffffff168273ffffffffffffffffffffffffffffffffffffffff16036110da576040517f08c379a00000000000000000000000000000000000000000000000000000000081526004016110d190612ad3565b60405180910390fd5b6110e58383836118dd565b6110f0600082610ea7565b6001600360008573ffffffffffffffffffffffffffffffffffffffff1673ffffffffffffffffffffffffffffffffffffffff16815260200190815260200160002060008282546111409190612b22565b925050819055506001600360008473ffffffffffffffffffffffffffffffffffffffff1673ffffffffffffffffffffffffffffffffffffffff16815260200190815260200160002060008282546111979190612b56565b92505081905550816002600083815260200190815260200160002060006101000a81548173ffffffffffffffffffffffffffffffffffffffff021916908373ffffffffffffffffffffffffffffffffffffffff160217905550808273ffffffffffffffffffffffffffffffffffffffff168473ffffffffffffffffffffffffffffffffffffffff167fddf252ad1be2c89b69c2b068fc378daa952ba7f163c4a11628f55a4df523b3ef60405160405180910390a46112568383836118e2565b505050565b611264816118e7565b50565b6000600760009054906101000a900473ffffffffffffffffffffffffffffffffffffffff16905081600760006101000a81548173ffffffffffffffffffffffffffffffffffffffff021916908373ffffffffffffffffffffffffffffffffffffffff1602179055508173ffffffffffffffffffffffffffffffffffffffff168173ffffffffffffffffffffffffffffffffffffffff167f8be0079c531659141344cd1fd0a4f28419497f9722a3daafe3b4186f6b6457e060405160405180910390a35050565b8173ffffffffffffffffffffffffffffffffffffffff168373ffffffffffffffffffffffffffffffffffffffff160361139b576040517f08c379a000000000000000000000000000000000000000000000000000000000815260040161139290612bd6565b60405180910390fd5b80600560008573ffffffffffffffffffffffffffffffffffffffff1673ffffffffffffffffffffffffffffffffffffffff16815260200190815260200160002060008473ffffffffffffffffffffffffffffffffffffffff1673ffffffffffffffffffffffffffffffffffffffff16815260200190815260200160002060006101000a81548160ff0219169083151502179055508173ffffffffffffffffffffffffffffffffffffffff168373ffffffffffffffffffffffffffffffffffffffff167f17307eab39ab6107e8899845ad3d59bd9653f200f220920489ca2b5937696c318360405161148c9190611f7a565b60405180910390a3505050565b6114a4848484610ff5565b6114b08484848461193a565b6114ef576040517f08c379a00000000000000000000000000000000000000000000000000000000081526004016114e690612c68565b60405180910390fd5b50505050565b606061150082610e54565b600060066000848152602001908152602001600020805461152090612549565b80601f016020809104026020016040519081016040528092919081815260200182805461154c90612549565b80156115995780601f1061156e57610100808354040283529160200191611599565b820191906000526020600020905b81548152906001019060200180831161157c57829003601f168201915b5050505050905060006115aa611ac1565b905060008151036115bf578192505050611602565b6000825111156115f45780826040516020016115dc929190612cc4565b60405160208183030381529060405292505050611602565b6115fd84611afe565b925050505b919050565b600081600001549050919050565b6001816000016000828254019250508190555050565b600073ffffffffffffffffffffffffffffffffffffffff168273ffffffffffffffffffffffffffffffffffffffff160361169a576040517f08c379a000000000000000000000000000000000000000000000000000000000815260040161169190612d34565b60405180910390fd5b6116a381611871565b156116e3576040517f08c379a00000000000000000000000000000000000000000000000000000000081526004016116da90612da0565b60405180910390fd5b6116ef600083836118dd565b6001600360008473ffffffffffffffffffffffffffffffffffffffff1673ffffffffffffffffffffffffffffffffffffffff168152602001908152602001600020600082825461173f9190612b56565b92505081905550816002600083815260200190815260200160002060006101000a81548173ffffffffffffffffffffffffffffffffffffffff021916908373ffffffffffffffffffffffffffffffffffffffff160217905550808273ffffffffffffffffffffffffffffffffffffffff16600073ffffffffffffffffffffffffffffffffffffffff167fddf252ad1be2c89b69c2b068fc378daa952ba7f163c4a11628f55a4df523b3ef60405160405180910390a4611800600083836118e2565b5050565b61180d82611871565b61184c576040517f08c379a000000000000000000000000000000000000000000000000000000000815260040161184390612e32565b60405180910390fd5b8060066000848152602001908152602001600020908161186c9190612ffe565b505050565b60008073ffffffffffffffffffffffffffffffffffffffff166002600084815260200190815260200160002060009054906101000a900473ffffffffffffffffffffffffffffffffffffffff1673ffffffffffffffffffffffffffffffffffffffff1614159050919050565b505050565b505050565b6118f081611b66565b600060066000838152602001908152602001600020805461191090612549565b905014611937576006600082815260200190815260200160002060006119369190611e06565b5b50565b600061195b8473ffffffffffffffffffffffffffffffffffffffff16611c83565b15611ab4578373ffffffffffffffffffffffffffffffffffffffff1663150b7a02611984610e9f565b8786866040518563ffffffff1660e01b81526004016119a69493929190613125565b6020604051808303816000875af19250505080156119e257506040513d601f19601f820116820180604052508101906119df9190613186565b60015b611a64573d8060008114611a12576040519150601f19603f3d011682016040523d82523d6000602084013e611a17565b606091505b506000815103611a5c576040517f08c379a0000000000000000000000000000000000000000000000000000000008152600401611a5390612c68565b60405180910390fd5b805181602001fd5b63150b7a0260e01b7bffffffffffffffffffffffffffffffffffffffffffffffffffffffff1916817bffffffffffffffffffffffffffffffffffffffffffffffffffffffff191614915050611ab9565b600190505b949350505050565b60606040518060400160405280601c81526020017f68747470733a2f2f696e667572612d697066732e696f2f697066732f00000000815250905090565b6060611b0982610e54565b6000611b13611ac1565b90506000815111611b335760405180602001604052806000815250611b5e565b80611b3d84611ca6565b604051602001611b4e929190612cc4565b6040516020818303038152906040525b915050919050565b6000611b71826108dd565b9050611b7f816000846118dd565b611b8a600083610ea7565b6001600360008373ffffffffffffffffffffffffffffffffffffffff1673ffffffffffffffffffffffffffffffffffffffff1681526020019081526020016000206000828254611bda9190612b22565b925050819055506002600083815260200190815260200160002060006101000a81549073ffffffffffffffffffffffffffffffffffffffff021916905581600073ffffffffffffffffffffffffffffffffffffffff168273ffffffffffffffffffffffffffffffffffffffff167fddf252ad1be2c89b69c2b068fc378daa952ba7f163c4a11628f55a4df523b3ef60405160405180910390a4611c7f816000846118e2565b5050565b6000808273ffffffffffffffffffffffffffffffffffffffff163b119050919050565b606060008203611ced576040518060400160405280600181526020017f30000000000000000000000000000000000000000000000000000000000000008152509050611e01565b600082905060005b60008214611d1f578080611d08906131b3565b915050600a82611d18919061322a565b9150611cf5565b60008167ffffffffffffffff811115611d3b57611d3a61222f565b5b6040519080825280601f01601f191660200182016040528015611d6d5781602001600182028036833780820191505090505b5090505b60008514611dfa57600182611d869190612b22565b9150600a85611d95919061325b565b6030611da19190612b56565b60f81b818381518110611db757611db661328c565b5b60200101907effffffffffffffffffffffffffffffffffffffffffffffffffffffffffffff1916908160001a905350600a85611df3919061322a565b9450611d71565b8093505050505b919050565b508054611e1290612549565b6000825580601f10611e245750611e43565b601f016020900490600052602060002090810190611e429190611e46565b5b50565b5b80821115611e5f576000816000905550600101611e47565b5090565b6000604051905090565b600080fd5b600080fd5b6000819050919050565b611e8a81611e77565b8114611e9557600080fd5b50565b600081359050611ea781611e81565b92915050565b600060208284031215611ec357611ec2611e6d565b5b6000611ed184828501611e98565b91505092915050565b60007fffffffff0000000000000000000000000000000000000000000000000000000082169050919050565b611f0f81611eda565b8114611f1a57600080fd5b50565b600081359050611f2c81611f06565b92915050565b600060208284031215611f4857611f47611e6d565b5b6000611f5684828501611f1d565b91505092915050565b60008115159050919050565b611f7481611f5f565b82525050565b6000602082019050611f8f6000830184611f6b565b92915050565b600081519050919050565b600082825260208201905092915050565b60005b83811015611fcf578082015181840152602081019050611fb4565b60008484015250505050565b6000601f19601f8301169050919050565b6000611ff782611f95565b6120018185611fa0565b9350612011818560208601611fb1565b61201a81611fdb565b840191505092915050565b6000602082019050818103600083015261203f8184611fec565b905092915050565b600073ffffffffffffffffffffffffffffffffffffffff82169050919050565b600061207282612047565b9050919050565b61208281612067565b82525050565b600060208201905061209d6000830184612079565b92915050565b6120ac81612067565b81146120b757600080fd5b50565b6000813590506120c9816120a3565b92915050565b600080604083850312156120e6576120e5611e6d565b5b60006120f4858286016120ba565b925050602061210585828601611e98565b9150509250929050565b60008060006060848603121561212857612127611e6d565b5b6000612136868287016120ba565b9350506020612147868287016120ba565b925050604061215886828701611e98565b9150509250925092565b61216b81611e77565b82525050565b60006020820190506121866000830184612162565b92915050565b6000602082840312156121a2576121a1611e6d565b5b60006121b0848285016120ba565b91505092915050565b6121c281611f5f565b81146121cd57600080fd5b50565b6000813590506121df816121b9565b92915050565b600080604083850312156121fc576121fb611e6d565b5b600061220a858286016120ba565b925050602061221b858286016121d0565b9150509250929050565b600080fd5b600080fd5b7f4e487b7100000000000000000000000000000000000000000000000000000000600052604160045260246000fd5b61226782611fdb565b810181811067ffffffffffffffff821117156122865761228561222f565b5b80604052505050565b6000612299611e63565b90506122a5828261225e565b919050565b600067ffffffffffffffff8211156122c5576122c461222f565b5b6122ce82611fdb565b9050602081019050919050565b82818337600083830152505050565b60006122fd6122f8846122aa565b61228f565b9050828152602081018484840111156123195761231861222a565b5b6123248482856122db565b509392505050565b600082601f83011261234157612340612225565b5b81356123518482602086016122ea565b91505092915050565b6000806000806080858703121561237457612373611e6d565b5b6000612382878288016120ba565b9450506020612393878288016120ba565b93505060406123a487828801611e98565b925050606085013567ffffffffffffffff8111156123c5576123c4611e72565b5b6123d18782880161232c565b91505092959194509250565b600067ffffffffffffffff8211156123f8576123f761222f565b5b61240182611fdb565b9050602081019050919050565b600061242161241c846123dd565b61228f565b90508281526020810184848401111561243d5761243c61222a565b5b6124488482856122db565b509392505050565b600082601f83011261246557612464612225565b5b813561247584826020860161240e565b91505092915050565b6000806040838503121561249557612494611e6d565b5b600083013567ffffffffffffffff8111156124b3576124b2611e72565b5b6124bf85828601612450565b92505060206124d0858286016120ba565b9150509250929050565b600080604083850312156124f1576124f0611e6d565b5b60006124ff858286016120ba565b9250506020612510858286016120ba565b9150509250929050565b7f4e487b7100000000000000000000000000000000000000000000000000000000600052602260045260246000fd5b6000600282049050600182168061256157607f821691505b6020821081036125745761257361251a565b5b50919050565b7f4552433732313a20617070726f76616c20746f2063757272656e74206f776e6560008201527f7200000000000000000000000000000000000000000000000000000000000000602082015250565b60006125d6602183611fa0565b91506125e18261257a565b604082019050919050565b60006020820190508181036000830152612605816125c9565b9050919050565b7f4552433732313a20617070726f76652063616c6c6572206973206e6f7420746f60008201527f6b656e206f776e6572206e6f7220617070726f76656420666f7220616c6c0000602082015250565b6000612668603e83611fa0565b91506126738261260c565b604082019050919050565b600060208201905081810360008301526126978161265b565b9050919050565b7f4552433732313a2063616c6c6572206973206e6f7420746f6b656e206f776e6560008201527f72206e6f7220617070726f766564000000000000000000000000000000000000602082015250565b60006126fa602e83611fa0565b91506127058261269e565b604082019050919050565b60006020820190508181036000830152612729816126ed565b9050919050565b7f4552433732313a20696e76616c696420746f6b656e2049440000000000000000600082015250565b6000612766601883611fa0565b915061277182612730565b602082019050919050565b6000602082019050818103600083015261279581612759565b9050919050565b7f4552433732313a2061646472657373207a65726f206973206e6f74206120766160008201527f6c6964206f776e65720000000000000000000000000000000000000000000000602082015250565b60006127f8602983611fa0565b91506128038261279c565b604082019050919050565b60006020820190508181036000830152612827816127eb565b9050919050565b7f496e73756666696369656e742066756e64730000000000000000000000000000600082015250565b6000612864601283611fa0565b915061286f8261282e565b602082019050919050565b6000602082019050818103600083015261289381612857565b9050919050565b60006060820190506128af6000830186612079565b6128bc6020830185612079565b6128c96040830184612162565b949350505050565b7f4f776e61626c653a206e6577206f776e657220697320746865207a65726f206160008201527f6464726573730000000000000000000000000000000000000000000000000000602082015250565b600061292d602683611fa0565b9150612938826128d1565b604082019050919050565b6000602082019050818103600083015261295c81612920565b9050919050565b7f4f776e61626c653a2063616c6c6572206973206e6f7420746865206f776e6572600082015250565b6000612999602083611fa0565b91506129a482612963565b602082019050919050565b600060208201905081810360008301526129c88161298c565b9050919050565b7f4552433732313a207472616e736665722066726f6d20696e636f72726563742060008201527f6f776e6572000000000000000000000000000000000000000000000000000000602082015250565b6000612a2b602583611fa0565b9150612a36826129cf565b604082019050919050565b60006020820190508181036000830152612a5a81612a1e565b9050919050565b7f4552433732313a207472616e7366657220746f20746865207a65726f2061646460008201527f7265737300000000000000000000000000000000000000000000000000000000602082015250565b6000612abd602483611fa0565b9150612ac882612a61565b604082019050919050565b60006020820190508181036000830152612aec81612ab0565b9050919050565b7f4e487b7100000000000000000000000000000000000000000000000000000000600052601160045260246000fd5b6000612b2d82611e77565b9150612b3883611e77565b9250828203905081811115612b5057612b4f612af3565b5b92915050565b6000612b6182611e77565b9150612b6c83611e77565b9250828201905080821115612b8457612b83612af3565b5b92915050565b7f4552433732313a20617070726f766520746f2063616c6c657200000000000000600082015250565b6000612bc0601983611fa0565b9150612bcb82612b8a565b602082019050919050565b60006020820190508181036000830152612bef81612bb3565b9050919050565b7f4552433732313a207472616e7366657220746f206e6f6e20455243373231526560008201527f63656976657220696d706c656d656e7465720000000000000000000000000000602082015250565b6000612c52603283611fa0565b9150612c5d82612bf6565b604082019050919050565b60006020820190508181036000830152612c8181612c45565b9050919050565b600081905092915050565b6000612c9e82611f95565b612ca88185612c88565b9350612cb8818560208601611fb1565b80840191505092915050565b6000612cd08285612c93565b9150612cdc8284612c93565b91508190509392505050565b7f4552433732313a206d696e7420746f20746865207a65726f2061646472657373600082015250565b6000612d1e602083611fa0565b9150612d2982612ce8565b602082019050919050565b60006020820190508181036000830152612d4d81612d11565b9050919050565b7f4552433732313a20746f6b656e20616c7265616479206d696e74656400000000600082015250565b6000612d8a601c83611fa0565b9150612d9582612d54565b602082019050919050565b60006020820190508181036000830152612db981612d7d565b9050919050565b7f45524337323155524953746f726167653a2055524920736574206f66206e6f6e60008201527f6578697374656e7420746f6b656e000000000000000000000000000000000000602082015250565b6000612e1c602e83611fa0565b9150612e2782612dc0565b604082019050919050565b60006020820190508181036000830152612e4b81612e0f565b9050919050565b60008190508160005260206000209050919050565b60006020601f8301049050919050565b600082821b905092915050565b600060088302612eb47fffffffffffffffffffffffffffffffffffffffffffffffffffffffffffffffff82612e77565b612ebe8683612e77565b95508019841693508086168417925050509392505050565b6000819050919050565b6000612efb612ef6612ef184611e77565b612ed6565b611e77565b9050919050565b6000819050919050565b612f1583612ee0565b612f29612f2182612f02565b848454612e84565b825550505050565b600090565b612f3e612f31565b612f49818484612f0c565b505050565b5b81811015612f6d57612f62600082612f36565b600181019050612f4f565b5050565b601f821115612fb257612f8381612e52565b612f8c84612e67565b81016020851015612f9b578190505b612faf612fa785612e67565b830182612f4e565b50505b505050565b600082821c905092915050565b6000612fd560001984600802612fb7565b1980831691505092915050565b6000612fee8383612fc4565b9150826002028217905092915050565b61300782611f95565b67ffffffffffffffff8111156130205761301f61222f565b5b61302a8254612549565b613035828285612f71565b600060209050601f8311600181146130685760008415613056578287015190505b6130608582612fe2565b8655506130c8565b601f19841661307686612e52565b60005b8281101561309e57848901518255600182019150602085019450602081019050613079565b868310156130bb57848901516130b7601f891682612fc4565b8355505b6001600288020188555050505b505050505050565b600081519050919050565b600082825260208201905092915050565b60006130f7826130d0565b61310181856130db565b9350613111818560208601611fb1565b61311a81611fdb565b840191505092915050565b600060808201905061313a6000830187612079565b6131476020830186612079565b6131546040830185612162565b818103606083015261316681846130ec565b905095945050505050565b60008151905061318081611f06565b92915050565b60006020828403121561319c5761319b611e6d565b5b60006131aa84828501613171565b91505092915050565b60006131be82611e77565b91507fffffffffffffffffffffffffffffffffffffffffffffffffffffffffffffffff82036131f0576131ef612af3565b5b600182019050919050565b7f4e487b7100000000000000000000000000000000000000000000000000000000600052601260045260246000fd5b600061323582611e77565b915061324083611e77565b9250826132505761324f6131fb565b5b828204905092915050565b600061326682611e77565b915061327183611e77565b925082613281576132806131fb565b5b828206905092915050565b7f4e487b7100000000000000000000000000000000000000000000000000000000600052603260045260246000fdfea26469706673582212204b7d97c36aa8877086c0805e86063153b4e21f53708b65b87a370c0ff3b7a04c64736f6c63430008110033",
  "linkReferences": {},
  "deployedLinkReferences": {}
}