{
  "_format": "hh-sol-artifact-1",
  "contractName": "MintMessage",
  "sourceName": "contracts/MintMessage.sol",
  "abi": [
    {
      "inputs": [],
      "stateMutability": "nonpayable",
      "type": "constructor"
    },
    {
      "anonymous": false,
      "inputs": [
        {
          "indexed": true,
          "internalType": "address",
          "name": "owner",
          "type": "address"
        },
        {
          "indexed": true,
          "internalType": "address",
          "name": "approved",
          "type": "address"
        },
        {
          "indexed": true,
          "internalType": "uint256",
          "name": "tokenId",
          "type": "uint256"
        }
      ],
      "name": "Approval",
      "type": "event"
    },
    {
      "anonymous": false,
      "inputs": [
        {
          "indexed": true,
          "internalType": "address",
          "name": "owner",
          "type": "address"
        },
        {
          "indexed": true,
          "internalType": "address",
          "name": "operator",
          "type": "address"
        },
        {
          "indexed": false,
          "internalType": "bool",
          "name": "approved",
          "type": "bool"
        }
      ],
      "name": "ApprovalForAll",
      "type": "event"
    },
    {
      "anonymous": false,
      "inputs": [
        {
          "indexed": false,
          "internalType": "address",
          "name": "sender",
          "type": "address"
        },
        {
          "indexed": false,
          "internalType": "uint256",
          "name": "tokenId",
          "type": "uint256"
        }
      ],
      "name": "NewMintMessageMinted",
      "type": "event"
    },
    {
      "anonymous": false,
      "inputs": [
        {
          "indexed": true,
          "internalType": "address",
          "name": "from",
          "type": "address"
        },
        {
          "indexed": true,
          "internalType": "address",
          "name": "to",
          "type": "address"
        },
        {
          "indexed": true,
          "internalType": "uint256",
          "name": "tokenId",
          "type": "uint256"
        }
      ],
      "name": "Transfer",
      "type": "event"
    },
    {
      "inputs": [
        {
          "internalType": "address",
          "name": "to",
          "type": "address"
        },
        {
          "internalType": "uint256",
          "name": "tokenId",
          "type": "uint256"
        }
      ],
      "name": "approve",
      "outputs": [],
      "stateMutability": "nonpayable",
      "type": "function"
    },
    {
      "inputs": [
        {
          "internalType": "address",
          "name": "owner",
          "type": "address"
        }
      ],
      "name": "balanceOf",
      "outputs": [
        {
          "internalType": "uint256",
          "name": "",
          "type": "uint256"
        }
      ],
      "stateMutability": "view",
      "type": "function"
    },
    {
      "inputs": [
        {
          "internalType": "string",
          "name": "tokenURI",
          "type": "string"
        },
        {
          "internalType": "address",
          "name": "to",
          "type": "address"
        }
      ],
      "name": "createToken",
      "outputs": [
        {
          "internalType": "uint256",
          "name": "",
          "type": "uint256"
        }
      ],
      "stateMutability": "payable",
      "type": "function"
    },
    {
      "inputs": [
        {
          "internalType": "uint256",
          "name": "tokenId",
          "type": "uint256"
        }
      ],
      "name": "getApproved",
      "outputs": [
        {
          "internalType": "address",
          "name": "",
          "type": "address"
        }
      ],
      "stateMutability": "view",
      "type": "function"
    },
    {
      "inputs": [],
      "name": "getMintPrice",
      "outputs": [
        {
          "internalType": "uint256",
          "name": "",
          "type": "uint256"
        }
      ],
      "stateMutability": "view",
      "type": "function"
    },
    {
      "inputs": [
        {
          "internalType": "address",
          "name": "owner",
          "type": "address"
        },
        {
          "internalType": "address",
          "name": "operator",
          "type": "address"
        }
      ],
      "name": "isApprovedForAll",
      "outputs": [
        {
          "internalType": "bool",
          "name": "",
          "type": "bool"
        }
      ],
      "stateMutability": "view",
      "type": "function"
    },
    {
      "inputs": [],
      "name": "name",
      "outputs": [
        {
          "internalType": "string",
          "name": "",
          "type": "string"
        }
      ],
      "stateMutability": "view",
      "type": "function"
    },
    {
      "inputs": [
        {
          "internalType": "uint256",
          "name": "tokenId",
          "type": "uint256"
        }
      ],
      "name": "ownerOf",
      "outputs": [
        {
          "internalType": "address",
          "name": "",
          "type": "address"
        }
      ],
      "stateMutability": "view",
      "type": "function"
    },
    {
      "inputs": [
        {
          "internalType": "address",
          "name": "from",
          "type": "address"
        },
        {
          "internalType": "address",
          "name": "to",
          "type": "address"
        },
        {
          "internalType": "uint256",
          "name": "tokenId",
          "type": "uint256"
        }
      ],
      "name": "safeTransferFrom",
      "outputs": [],
      "stateMutability": "nonpayable",
      "type": "function"
    },
    {
      "inputs": [
        {
          "internalType": "address",
          "name": "from",
          "type": "address"
        },
        {
          "internalType": "address",
          "name": "to",
          "type": "address"
        },
        {
          "internalType": "uint256",
          "name": "tokenId",
          "type": "uint256"
        },
        {
          "internalType": "bytes",
          "name": "data",
          "type": "bytes"
        }
      ],
      "name": "safeTransferFrom",
      "outputs": [],
      "stateMutability": "nonpayable",
      "type": "function"
    },
    {
      "inputs": [
        {
          "internalType": "address",
          "name": "operator",
          "type": "address"
        },
        {
          "internalType": "bool",
          "name": "approved",
          "type": "bool"
        }
      ],
      "name": "setApprovalForAll",
      "outputs": [],
      "stateMutability": "nonpayable",
      "type": "function"
    },
    {
      "inputs": [
        {
          "internalType": "bytes4",
          "name": "interfaceId",
          "type": "bytes4"
        }
      ],
      "name": "supportsInterface",
      "outputs": [
        {
          "internalType": "bool",
          "name": "",
          "type": "bool"
        }
      ],
      "stateMutability": "view",
      "type": "function"
    },
    {
      "inputs": [],
      "name": "symbol",
      "outputs": [
        {
          "internalType": "string",
          "name": "",
          "type": "string"
        }
      ],
      "stateMutability": "view",
      "type": "function"
    },
    {
      "inputs": [
        {
          "internalType": "uint256",
          "name": "tokenId",
          "type": "uint256"
        }
      ],
      "name": "tokenURI",
      "outputs": [
        {
          "internalType": "string",
          "name": "",
          "type": "string"
        }
      ],
      "stateMutability": "view",
      "type": "function"
    },
    {
      "inputs": [
        {
          "internalType": "address",
          "name": "from",
          "type": "address"
        },
        {
          "internalType": "address",
          "name": "to",
          "type": "address"
        },
        {
          "internalType": "uint256",
          "name": "tokenId",
          "type": "uint256"
        }
      ],
      "name": "transferFrom",
      "outputs": [],
      "stateMutability": "nonpayable",
      "type": "function"
    },
    {
      "inputs": [
        {
          "internalType": "uint256",
          "name": "_mintPrice",
          "type": "uint256"
        }
      ],
      "name": "updateMintPrice",
      "outputs": [],
      "stateMutability": "payable",
      "type": "function"
    }
  ],
  "bytecode": "0x608060405260006008553480156200001657600080fd5b506040518060400160405280600b81526020017f4d696e744d6573736167650000000000000000000000000000000000000000008152506040518060400160405280600381526020017f4d5347000000000000000000000000000000000000000000000000000000000081525081600090805190602001906200009b929190620000fe565b508060019080519060200190620000b4929190620000fe565b50505033600960006101000a81548173ffffffffffffffffffffffffffffffffffffffff021916908373ffffffffffffffffffffffffffffffffffffffff16021790555062000213565b8280546200010c90620001ae565b90600052602060002090601f0160209004810192826200013057600085556200017c565b82601f106200014b57805160ff19168380011785556200017c565b828001600101855582156200017c579182015b828111156200017b5782518255916020019190600101906200015e565b5b5090506200018b91906200018f565b5090565b5b80821115620001aa57600081600090555060010162000190565b5090565b60006002820490506001821680620001c757607f821691505b60208210811415620001de57620001dd620001e4565b5b50919050565b7f4e487b7100000000000000000000000000000000000000000000000000000000600052602260045260246000fd5b612a9f80620002236000396000f3fe6080604052600436106100f25760003560e01c806370a082311161008a578063a7f93ebd11610059578063a7f93ebd14610331578063b88d4fde1461035c578063c87b56dd14610385578063e985e9c5146103c2576100f2565b806370a082311461027057806395d89b41146102ad578063a2119377146102d8578063a22cb46514610308576100f2565b8063095ea7b3116100c6578063095ea7b3146101b857806323b872dd146101e157806342842e0e1461020a5780636352211e14610233576100f2565b8062728e46146100f757806301ffc9a71461011357806306fdde0314610150578063081812fc1461017b575b600080fd5b610111600480360381019061010c9190611d7a565b6103ff565b005b34801561011f57600080fd5b5061013a60048036038101906101359190611cd4565b610499565b60405161014791906120c5565b60405180910390f35b34801561015c57600080fd5b5061016561057b565b60405161017291906120e0565b60405180910390f35b34801561018757600080fd5b506101a2600480360381019061019d9190611d7a565b61060d565b6040516101af919061205e565b60405180910390f35b3480156101c457600080fd5b506101df60048036038101906101da9190611c98565b610653565b005b3480156101ed57600080fd5b5061020860048036038101906102039190611b92565b61076b565b005b34801561021657600080fd5b50610231600480360381019061022c9190611b92565b6107cb565b005b34801561023f57600080fd5b5061025a60048036038101906102559190611d7a565b6107eb565b604051610267919061205e565b60405180910390f35b34801561027c57600080fd5b5061029760048036038101906102929190611b2d565b61089d565b6040516102a491906122a2565b60405180910390f35b3480156102b957600080fd5b506102c2610955565b6040516102cf91906120e0565b60405180910390f35b6102f260048036038101906102ed9190611d26565b6109e7565b6040516102ff91906122a2565b60405180910390f35b34801561031457600080fd5b5061032f600480360381019061032a9190611c5c565b610a1f565b005b34801561033d57600080fd5b50610346610a35565b60405161035391906122a2565b60405180910390f35b34801561036857600080fd5b50610383600480360381019061037e9190611be1565b610a3f565b005b34801561039157600080fd5b506103ac60048036038101906103a79190611d7a565b610aa1565b6040516103b991906120e0565b60405180910390f35b3480156103ce57600080fd5b506103e960048036038101906103e49190611b56565b610bb4565b6040516103f691906120c5565b60405180910390f35b3373ffffffffffffffffffffffffffffffffffffffff16600960009054906101000a900473ffffffffffffffffffffffffffffffffffffffff1673ffffffffffffffffffffffffffffffffffffffff161461048f576040517f08c379a000000000000000000000000000000000000000000000000000000000815260040161048690612142565b60405180910390fd5b8060088190555050565b60007f80ac58cd000000000000000000000000000000000000000000000000000000007bffffffffffffffffffffffffffffffffffffffffffffffffffffffff1916827bffffffffffffffffffffffffffffffffffffffffffffffffffffffff1916148061056457507f5b5e139f000000000000000000000000000000000000000000000000000000007bffffffffffffffffffffffffffffffffffffffffffffffffffffffff1916827bffffffffffffffffffffffffffffffffffffffffffffffffffffffff1916145b80610574575061057382610c48565b5b9050919050565b60606000805461058a906124f8565b80601f01602080910402602001604051908101604052809291908181526020018280546105b6906124f8565b80156106035780601f106105d857610100808354040283529160200191610603565b820191906000526020600020905b8154815290600101906020018083116105e657829003601f168201915b5050505050905090565b600061061882610cb2565b6004600083815260200190815260200160002060009054906101000a900473ffffffffffffffffffffffffffffffffffffffff169050919050565b600061065e826107eb565b90508073ffffffffffffffffffffffffffffffffffffffff168373ffffffffffffffffffffffffffffffffffffffff1614156106cf576040517f08c379a00000000000000000000000000000000000000000000000000000000081526004016106c690612262565b60405180910390fd5b8073ffffffffffffffffffffffffffffffffffffffff166106ee610cfd565b73ffffffffffffffffffffffffffffffffffffffff16148061071d575061071c81610717610cfd565b610bb4565b5b61075c576040517f08c379a000000000000000000000000000000000000000000000000000000000815260040161075390612202565b60405180910390fd5b6107668383610d05565b505050565b61077c610776610cfd565b82610dbe565b6107bb576040517f08c379a00000000000000000000000000000000000000000000000000000000081526004016107b290612282565b60405180910390fd5b6107c6838383610e53565b505050565b6107e683838360405180602001604052806000815250610a3f565b505050565b6000806002600084815260200190815260200160002060009054906101000a900473ffffffffffffffffffffffffffffffffffffffff169050600073ffffffffffffffffffffffffffffffffffffffff168173ffffffffffffffffffffffffffffffffffffffff161415610894576040517f08c379a000000000000000000000000000000000000000000000000000000000815260040161088b90612242565b60405180910390fd5b80915050919050565b60008073ffffffffffffffffffffffffffffffffffffffff168273ffffffffffffffffffffffffffffffffffffffff16141561090e576040517f08c379a0000000000000000000000000000000000000000000000000000000008152600401610905906121c2565b60405180910390fd5b600360008373ffffffffffffffffffffffffffffffffffffffff1673ffffffffffffffffffffffffffffffffffffffff168152602001908152602001600020549050919050565b606060018054610964906124f8565b80601f0160208091040260200160405190810160405280929190818152602001828054610990906124f8565b80156109dd5780601f106109b2576101008083540402835291602001916109dd565b820191906000526020600020905b8154815290600101906020018083116109c057829003601f168201915b5050505050905090565b60006109f360076110ba565b60006109ff60076110d0565b9050610a0b83826110de565b610a1581856112b8565b8091505092915050565b610a31610a2a610cfd565b838361132c565b5050565b6000600854905090565b610a50610a4a610cfd565b83610dbe565b610a8f576040517f08c379a0000000000000000000000000000000000000000000000000000000008152600401610a8690612282565b60405180910390fd5b610a9b84848484611499565b50505050565b6060610aac82610cb2565b6000600660008481526020019081526020016000208054610acc906124f8565b80601f0160208091040260200160405190810160405280929190818152602001828054610af8906124f8565b8015610b455780601f10610b1a57610100808354040283529160200191610b45565b820191906000526020600020905b815481529060010190602001808311610b2857829003601f168201915b505050505090506000610b566114f5565b9050600081511415610b6c578192505050610baf565b600082511115610ba1578082604051602001610b8992919061203a565b60405160208183030381529060405292505050610baf565b610baa8461150c565b925050505b919050565b6000600560008473ffffffffffffffffffffffffffffffffffffffff1673ffffffffffffffffffffffffffffffffffffffff16815260200190815260200160002060008373ffffffffffffffffffffffffffffffffffffffff1673ffffffffffffffffffffffffffffffffffffffff16815260200190815260200160002060009054906101000a900460ff16905092915050565b60007f01ffc9a7000000000000000000000000000000000000000000000000000000007bffffffffffffffffffffffffffffffffffffffffffffffffffffffff1916827bffffffffffffffffffffffffffffffffffffffffffffffffffffffff1916149050919050565b610cbb81611574565b610cfa576040517f08c379a0000000000000000000000000000000000000000000000000000000008152600401610cf190612242565b60405180910390fd5b50565b600033905090565b816004600083815260200190815260200160002060006101000a81548173ffffffffffffffffffffffffffffffffffffffff021916908373ffffffffffffffffffffffffffffffffffffffff160217905550808273ffffffffffffffffffffffffffffffffffffffff16610d78836107eb565b73ffffffffffffffffffffffffffffffffffffffff167f8c5be1e5ebec7d5bd14f71427d1e84f3dd0314c0f7b2291e5b200ac8c7c3b92560405160405180910390a45050565b600080610dca836107eb565b90508073ffffffffffffffffffffffffffffffffffffffff168473ffffffffffffffffffffffffffffffffffffffff161480610e0c5750610e0b8185610bb4565b5b80610e4a57508373ffffffffffffffffffffffffffffffffffffffff16610e328461060d565b73ffffffffffffffffffffffffffffffffffffffff16145b91505092915050565b8273ffffffffffffffffffffffffffffffffffffffff16610e73826107eb565b73ffffffffffffffffffffffffffffffffffffffff1614610ec9576040517f08c379a0000000000000000000000000000000000000000000000000000000008152600401610ec090612122565b60405180910390fd5b600073ffffffffffffffffffffffffffffffffffffffff168273ffffffffffffffffffffffffffffffffffffffff161415610f39576040517f08c379a0000000000000000000000000000000000000000000000000000000008152600401610f3090612182565b60405180910390fd5b610f448383836115e0565b610f4f600082610d05565b6001600360008573ffffffffffffffffffffffffffffffffffffffff1673ffffffffffffffffffffffffffffffffffffffff1681526020019081526020016000206000828254610f9f919061240e565b925050819055506001600360008473ffffffffffffffffffffffffffffffffffffffff1673ffffffffffffffffffffffffffffffffffffffff1681526020019081526020016000206000828254610ff69190612387565b92505081905550816002600083815260200190815260200160002060006101000a81548173ffffffffffffffffffffffffffffffffffffffff021916908373ffffffffffffffffffffffffffffffffffffffff160217905550808273ffffffffffffffffffffffffffffffffffffffff168473ffffffffffffffffffffffffffffffffffffffff167fddf252ad1be2c89b69c2b068fc378daa952ba7f163c4a11628f55a4df523b3ef60405160405180910390a46110b58383836115e5565b505050565b6001816000016000828254019250508190555050565b600081600001549050919050565b600073ffffffffffffffffffffffffffffffffffffffff168273ffffffffffffffffffffffffffffffffffffffff16141561114e576040517f08c379a000000000000000000000000000000000000000000000000000000000815260040161114590612222565b60405180910390fd5b61115781611574565b15611197576040517f08c379a000000000000000000000000000000000000000000000000000000000815260040161118e90612162565b60405180910390fd5b6111a3600083836115e0565b6001600360008473ffffffffffffffffffffffffffffffffffffffff1673ffffffffffffffffffffffffffffffffffffffff16815260200190815260200160002060008282546111f39190612387565b92505081905550816002600083815260200190815260200160002060006101000a81548173ffffffffffffffffffffffffffffffffffffffff021916908373ffffffffffffffffffffffffffffffffffffffff160217905550808273ffffffffffffffffffffffffffffffffffffffff16600073ffffffffffffffffffffffffffffffffffffffff167fddf252ad1be2c89b69c2b068fc378daa952ba7f163c4a11628f55a4df523b3ef60405160405180910390a46112b4600083836115e5565b5050565b6112c182611574565b611300576040517f08c379a00000000000000000000000000000000000000000000000000000000081526004016112f7906121e2565b60405180910390fd5b80600660008481526020019081526020016000209080519060200190611327929190611951565b505050565b8173ffffffffffffffffffffffffffffffffffffffff168373ffffffffffffffffffffffffffffffffffffffff16141561139b576040517f08c379a0000000000000000000000000000000000000000000000000000000008152600401611392906121a2565b60405180910390fd5b80600560008573ffffffffffffffffffffffffffffffffffffffff1673ffffffffffffffffffffffffffffffffffffffff16815260200190815260200160002060008473ffffffffffffffffffffffffffffffffffffffff1673ffffffffffffffffffffffffffffffffffffffff16815260200190815260200160002060006101000a81548160ff0219169083151502179055508173ffffffffffffffffffffffffffffffffffffffff168373ffffffffffffffffffffffffffffffffffffffff167f17307eab39ab6107e8899845ad3d59bd9653f200f220920489ca2b5937696c318360405161148c91906120c5565b60405180910390a3505050565b6114a4848484610e53565b6114b0848484846115ea565b6114ef576040517f08c379a00000000000000000000000000000000000000000000000000000000081526004016114e690612102565b60405180910390fd5b50505050565b606060405180602001604052806000815250905090565b606061151782610cb2565b60006115216114f5565b90506000815111611541576040518060200160405280600081525061156c565b8061154b84611781565b60405160200161155c92919061203a565b6040516020818303038152906040525b915050919050565b60008073ffffffffffffffffffffffffffffffffffffffff166002600084815260200190815260200160002060009054906101000a900473ffffffffffffffffffffffffffffffffffffffff1673ffffffffffffffffffffffffffffffffffffffff1614159050919050565b505050565b505050565b600061160b8473ffffffffffffffffffffffffffffffffffffffff1661192e565b15611774578373ffffffffffffffffffffffffffffffffffffffff1663150b7a02611634610cfd565b8786866040518563ffffffff1660e01b81526004016116569493929190612079565b602060405180830381600087803b15801561167057600080fd5b505af19250505080156116a157506040513d601f19601f8201168201806040525081019061169e9190611cfd565b60015b611724573d80600081146116d1576040519150601f19603f3d011682016040523d82523d6000602084013e6116d6565b606091505b5060008151141561171c576040517f08c379a000000000000000000000000000000000000000000000000000000000815260040161171390612102565b60405180910390fd5b805181602001fd5b63150b7a0260e01b7bffffffffffffffffffffffffffffffffffffffffffffffffffffffff1916817bffffffffffffffffffffffffffffffffffffffffffffffffffffffff191614915050611779565b600190505b949350505050565b606060008214156117c9576040518060400160405280600181526020017f30000000000000000000000000000000000000000000000000000000000000008152509050611929565b600082905060005b600082146117fb5780806117e49061255b565b915050600a826117f491906123dd565b91506117d1565b60008167ffffffffffffffff81111561183d577f4e487b7100000000000000000000000000000000000000000000000000000000600052604160045260246000fd5b6040519080825280601f01601f19166020018201604052801561186f5781602001600182028036833780820191505090505b5090505b6000851461192257600182611888919061240e565b9150600a8561189791906125a4565b60306118a39190612387565b60f81b8183815181106118df577f4e487b7100000000000000000000000000000000000000000000000000000000600052603260045260246000fd5b60200101907effffffffffffffffffffffffffffffffffffffffffffffffffffffffffffff1916908160001a905350600a8561191b91906123dd565b9450611873565b8093505050505b919050565b6000808273ffffffffffffffffffffffffffffffffffffffff163b119050919050565b82805461195d906124f8565b90600052602060002090601f01602090048101928261197f57600085556119c6565b82601f1061199857805160ff19168380011785556119c6565b828001600101855582156119c6579182015b828111156119c55782518255916020019190600101906119aa565b5b5090506119d391906119d7565b5090565b5b808211156119f05760008160009055506001016119d8565b5090565b6000611a07611a02846122e2565b6122bd565b905082815260208101848484011115611a1f57600080fd5b611a2a8482856124b6565b509392505050565b6000611a45611a4084612313565b6122bd565b905082815260208101848484011115611a5d57600080fd5b611a688482856124b6565b509392505050565b600081359050611a7f81612a0d565b92915050565b600081359050611a9481612a24565b92915050565b600081359050611aa981612a3b565b92915050565b600081519050611abe81612a3b565b92915050565b600082601f830112611ad557600080fd5b8135611ae58482602086016119f4565b91505092915050565b600082601f830112611aff57600080fd5b8135611b0f848260208601611a32565b91505092915050565b600081359050611b2781612a52565b92915050565b600060208284031215611b3f57600080fd5b6000611b4d84828501611a70565b91505092915050565b60008060408385031215611b6957600080fd5b6000611b7785828601611a70565b9250506020611b8885828601611a70565b9150509250929050565b600080600060608486031215611ba757600080fd5b6000611bb586828701611a70565b9350506020611bc686828701611a70565b9250506040611bd786828701611b18565b9150509250925092565b60008060008060808587031215611bf757600080fd5b6000611c0587828801611a70565b9450506020611c1687828801611a70565b9350506040611c2787828801611b18565b925050606085013567ffffffffffffffff811115611c4457600080fd5b611c5087828801611ac4565b91505092959194509250565b60008060408385031215611c6f57600080fd5b6000611c7d85828601611a70565b9250506020611c8e85828601611a85565b9150509250929050565b60008060408385031215611cab57600080fd5b6000611cb985828601611a70565b9250506020611cca85828601611b18565b9150509250929050565b600060208284031215611ce657600080fd5b6000611cf484828501611a9a565b91505092915050565b600060208284031215611d0f57600080fd5b6000611d1d84828501611aaf565b91505092915050565b60008060408385031215611d3957600080fd5b600083013567ffffffffffffffff811115611d5357600080fd5b611d5f85828601611aee565b9250506020611d7085828601611a70565b9150509250929050565b600060208284031215611d8c57600080fd5b6000611d9a84828501611b18565b91505092915050565b611dac81612442565b82525050565b611dbb81612454565b82525050565b6000611dcc82612344565b611dd6818561235a565b9350611de68185602086016124c5565b611def81612691565b840191505092915050565b6000611e058261234f565b611e0f818561236b565b9350611e1f8185602086016124c5565b611e2881612691565b840191505092915050565b6000611e3e8261234f565b611e48818561237c565b9350611e588185602086016124c5565b80840191505092915050565b6000611e7160328361236b565b9150611e7c826126a2565b604082019050919050565b6000611e9460258361236b565b9150611e9f826126f1565b604082019050919050565b6000611eb760218361236b565b9150611ec282612740565b604082019050919050565b6000611eda601c8361236b565b9150611ee58261278f565b602082019050919050565b6000611efd60248361236b565b9150611f08826127b8565b604082019050919050565b6000611f2060198361236b565b9150611f2b82612807565b602082019050919050565b6000611f4360298361236b565b9150611f4e82612830565b604082019050919050565b6000611f66602e8361236b565b9150611f718261287f565b604082019050919050565b6000611f89603e8361236b565b9150611f94826128ce565b604082019050919050565b6000611fac60208361236b565b9150611fb78261291d565b602082019050919050565b6000611fcf60188361236b565b9150611fda82612946565b602082019050919050565b6000611ff260218361236b565b9150611ffd8261296f565b604082019050919050565b6000612015602e8361236b565b9150612020826129be565b604082019050919050565b612034816124ac565b82525050565b60006120468285611e33565b91506120528284611e33565b91508190509392505050565b60006020820190506120736000830184611da3565b92915050565b600060808201905061208e6000830187611da3565b61209b6020830186611da3565b6120a8604083018561202b565b81810360608301526120ba8184611dc1565b905095945050505050565b60006020820190506120da6000830184611db2565b92915050565b600060208201905081810360008301526120fa8184611dfa565b905092915050565b6000602082019050818103600083015261211b81611e64565b9050919050565b6000602082019050818103600083015261213b81611e87565b9050919050565b6000602082019050818103600083015261215b81611eaa565b9050919050565b6000602082019050818103600083015261217b81611ecd565b9050919050565b6000602082019050818103600083015261219b81611ef0565b9050919050565b600060208201905081810360008301526121bb81611f13565b9050919050565b600060208201905081810360008301526121db81611f36565b9050919050565b600060208201905081810360008301526121fb81611f59565b9050919050565b6000602082019050818103600083015261221b81611f7c565b9050919050565b6000602082019050818103600083015261223b81611f9f565b9050919050565b6000602082019050818103600083015261225b81611fc2565b9050919050565b6000602082019050818103600083015261227b81611fe5565b9050919050565b6000602082019050818103600083015261229b81612008565b9050919050565b60006020820190506122b7600083018461202b565b92915050565b60006122c76122d8565b90506122d3828261252a565b919050565b6000604051905090565b600067ffffffffffffffff8211156122fd576122fc612662565b5b61230682612691565b9050602081019050919050565b600067ffffffffffffffff82111561232e5761232d612662565b5b61233782612691565b9050602081019050919050565b600081519050919050565b600081519050919050565b600082825260208201905092915050565b600082825260208201905092915050565b600081905092915050565b6000612392826124ac565b915061239d836124ac565b9250827fffffffffffffffffffffffffffffffffffffffffffffffffffffffffffffffff038211156123d2576123d16125d5565b5b828201905092915050565b60006123e8826124ac565b91506123f3836124ac565b92508261240357612402612604565b5b828204905092915050565b6000612419826124ac565b9150612424836124ac565b925082821015612437576124366125d5565b5b828203905092915050565b600061244d8261248c565b9050919050565b60008115159050919050565b60007fffffffff0000000000000000000000000000000000000000000000000000000082169050919050565b600073ffffffffffffffffffffffffffffffffffffffff82169050919050565b6000819050919050565b82818337600083830152505050565b60005b838110156124e35780820151818401526020810190506124c8565b838111156124f2576000848401525b50505050565b6000600282049050600182168061251057607f821691505b6020821081141561252457612523612633565b5b50919050565b61253382612691565b810181811067ffffffffffffffff8211171561255257612551612662565b5b80604052505050565b6000612566826124ac565b91507fffffffffffffffffffffffffffffffffffffffffffffffffffffffffffffffff821415612599576125986125d5565b5b600182019050919050565b60006125af826124ac565b91506125ba836124ac565b9250826125ca576125c9612604565b5b828206905092915050565b7f4e487b7100000000000000000000000000000000000000000000000000000000600052601160045260246000fd5b7f4e487b7100000000000000000000000000000000000000000000000000000000600052601260045260246000fd5b7f4e487b7100000000000000000000000000000000000000000000000000000000600052602260045260246000fd5b7f4e487b7100000000000000000000000000000000000000000000000000000000600052604160045260246000fd5b6000601f19601f8301169050919050565b7f4552433732313a207472616e7366657220746f206e6f6e20455243373231526560008201527f63656976657220696d706c656d656e7465720000000000000000000000000000602082015250565b7f4552433732313a207472616e736665722066726f6d20696e636f72726563742060008201527f6f776e6572000000000000000000000000000000000000000000000000000000602082015250565b7f4f6e6c79206f776e65722063616e20757064617465206d696e7420707269636560008201527f2e00000000000000000000000000000000000000000000000000000000000000602082015250565b7f4552433732313a20746f6b656e20616c7265616479206d696e74656400000000600082015250565b7f4552433732313a207472616e7366657220746f20746865207a65726f2061646460008201527f7265737300000000000000000000000000000000000000000000000000000000602082015250565b7f4552433732313a20617070726f766520746f2063616c6c657200000000000000600082015250565b7f4552433732313a2061646472657373207a65726f206973206e6f74206120766160008201527f6c6964206f776e65720000000000000000000000000000000000000000000000602082015250565b7f45524337323155524953746f726167653a2055524920736574206f66206e6f6e60008201527f6578697374656e7420746f6b656e000000000000000000000000000000000000602082015250565b7f4552433732313a20617070726f76652063616c6c6572206973206e6f7420746f60008201527f6b656e206f776e6572206e6f7220617070726f76656420666f7220616c6c0000602082015250565b7f4552433732313a206d696e7420746f20746865207a65726f2061646472657373600082015250565b7f4552433732313a20696e76616c696420746f6b656e2049440000000000000000600082015250565b7f4552433732313a20617070726f76616c20746f2063757272656e74206f776e6560008201527f7200000000000000000000000000000000000000000000000000000000000000602082015250565b7f4552433732313a2063616c6c6572206973206e6f7420746f6b656e206f776e6560008201527f72206e6f7220617070726f766564000000000000000000000000000000000000602082015250565b612a1681612442565b8114612a2157600080fd5b50565b612a2d81612454565b8114612a3857600080fd5b50565b612a4481612460565b8114612a4f57600080fd5b50565b612a5b816124ac565b8114612a6657600080fd5b5056fea2646970667358221220923e1c8c80b1ee906661a80aba8ae348e6696c4f939f20170983b6e56b46e06864736f6c63430008040033",
  "linkReferences": {},
  "deployedLinkReferences": {}
}