{
  "_format": "hh-sol-artifact-1",
  "contractName": "MintMessage",
  "sourceName": "contracts/MintMessage.sol",
  "abi": [
    {
      "inputs": [],
      "stateMutability": "nonpayable",
      "type": "constructor"
    },
    {
      "anonymous": false,
      "inputs": [
        {
          "indexed": true,
          "internalType": "address",
          "name": "owner",
          "type": "address"
        },
        {
          "indexed": true,
          "internalType": "address",
          "name": "approved",
          "type": "address"
        },
        {
          "indexed": true,
          "internalType": "uint256",
          "name": "tokenId",
          "type": "uint256"
        }
      ],
      "name": "Approval",
      "type": "event"
    },
    {
      "anonymous": false,
      "inputs": [
        {
          "indexed": true,
          "internalType": "address",
          "name": "owner",
          "type": "address"
        },
        {
          "indexed": true,
          "internalType": "address",
          "name": "operator",
          "type": "address"
        },
        {
          "indexed": false,
          "internalType": "bool",
          "name": "approved",
          "type": "bool"
        }
      ],
      "name": "ApprovalForAll",
      "type": "event"
    },
    {
      "anonymous": false,
      "inputs": [
        {
          "indexed": false,
          "internalType": "address",
          "name": "sender",
          "type": "address"
        },
        {
          "indexed": false,
          "internalType": "address",
          "name": "recipient",
          "type": "address"
        },
        {
          "indexed": false,
          "internalType": "uint256",
          "name": "tokenId",
          "type": "uint256"
        }
      ],
      "name": "CreateMessage",
      "type": "event"
    },
    {
      "anonymous": false,
      "inputs": [
        {
          "indexed": true,
          "internalType": "address",
          "name": "previousOwner",
          "type": "address"
        },
        {
          "indexed": true,
          "internalType": "address",
          "name": "newOwner",
          "type": "address"
        }
      ],
      "name": "OwnershipTransferred",
      "type": "event"
    },
    {
      "anonymous": false,
      "inputs": [
        {
          "indexed": true,
          "internalType": "address",
          "name": "from",
          "type": "address"
        },
        {
          "indexed": true,
          "internalType": "address",
          "name": "to",
          "type": "address"
        },
        {
          "indexed": true,
          "internalType": "uint256",
          "name": "tokenId",
          "type": "uint256"
        }
      ],
      "name": "Transfer",
      "type": "event"
    },
    {
      "inputs": [
        {
          "internalType": "address",
          "name": "to",
          "type": "address"
        },
        {
          "internalType": "uint256",
          "name": "tokenId",
          "type": "uint256"
        }
      ],
      "name": "approve",
      "outputs": [],
      "stateMutability": "nonpayable",
      "type": "function"
    },
    {
      "inputs": [
        {
          "internalType": "address",
          "name": "owner",
          "type": "address"
        }
      ],
      "name": "balanceOf",
      "outputs": [
        {
          "internalType": "uint256",
          "name": "",
          "type": "uint256"
        }
      ],
      "stateMutability": "view",
      "type": "function"
    },
    {
      "inputs": [
        {
          "internalType": "uint256",
          "name": "tokenId",
          "type": "uint256"
        }
      ],
      "name": "burn",
      "outputs": [],
      "stateMutability": "nonpayable",
      "type": "function"
    },
    {
      "inputs": [
        {
          "internalType": "string",
          "name": "_uri",
          "type": "string"
        },
        {
          "internalType": "address",
          "name": "_to",
          "type": "address"
        }
      ],
      "name": "createMessage",
      "outputs": [],
      "stateMutability": "payable",
      "type": "function"
    },
    {
      "inputs": [
        {
          "internalType": "uint256",
          "name": "tokenId",
          "type": "uint256"
        }
      ],
      "name": "getApproved",
      "outputs": [
        {
          "internalType": "address",
          "name": "",
          "type": "address"
        }
      ],
      "stateMutability": "view",
      "type": "function"
    },
    {
      "inputs": [
        {
          "internalType": "address",
          "name": "owner",
          "type": "address"
        },
        {
          "internalType": "address",
          "name": "operator",
          "type": "address"
        }
      ],
      "name": "isApprovedForAll",
      "outputs": [
        {
          "internalType": "bool",
          "name": "",
          "type": "bool"
        }
      ],
      "stateMutability": "view",
      "type": "function"
    },
    {
      "inputs": [],
      "name": "mintPrice",
      "outputs": [
        {
          "internalType": "uint256",
          "name": "",
          "type": "uint256"
        }
      ],
      "stateMutability": "view",
      "type": "function"
    },
    {
      "inputs": [],
      "name": "name",
      "outputs": [
        {
          "internalType": "string",
          "name": "",
          "type": "string"
        }
      ],
      "stateMutability": "view",
      "type": "function"
    },
    {
      "inputs": [],
      "name": "owner",
      "outputs": [
        {
          "internalType": "address",
          "name": "",
          "type": "address"
        }
      ],
      "stateMutability": "view",
      "type": "function"
    },
    {
      "inputs": [
        {
          "internalType": "uint256",
          "name": "tokenId",
          "type": "uint256"
        }
      ],
      "name": "ownerOf",
      "outputs": [
        {
          "internalType": "address",
          "name": "",
          "type": "address"
        }
      ],
      "stateMutability": "view",
      "type": "function"
    },
    {
      "inputs": [],
      "name": "renounceOwnership",
      "outputs": [],
      "stateMutability": "nonpayable",
      "type": "function"
    },
    {
      "inputs": [
        {
          "internalType": "uint256",
          "name": "_tokenId",
          "type": "uint256"
        },
        {
          "internalType": "uint256",
          "name": "_salePrice",
          "type": "uint256"
        }
      ],
      "name": "royaltyInfo",
      "outputs": [
        {
          "internalType": "address",
          "name": "",
          "type": "address"
        },
        {
          "internalType": "uint256",
          "name": "",
          "type": "uint256"
        }
      ],
      "stateMutability": "view",
      "type": "function"
    },
    {
      "inputs": [
        {
          "internalType": "address",
          "name": "from",
          "type": "address"
        },
        {
          "internalType": "address",
          "name": "to",
          "type": "address"
        },
        {
          "internalType": "uint256",
          "name": "tokenId",
          "type": "uint256"
        }
      ],
      "name": "safeTransferFrom",
      "outputs": [],
      "stateMutability": "nonpayable",
      "type": "function"
    },
    {
      "inputs": [
        {
          "internalType": "address",
          "name": "from",
          "type": "address"
        },
        {
          "internalType": "address",
          "name": "to",
          "type": "address"
        },
        {
          "internalType": "uint256",
          "name": "tokenId",
          "type": "uint256"
        },
        {
          "internalType": "bytes",
          "name": "data",
          "type": "bytes"
        }
      ],
      "name": "safeTransferFrom",
      "outputs": [],
      "stateMutability": "nonpayable",
      "type": "function"
    },
    {
      "inputs": [
        {
          "internalType": "address",
          "name": "operator",
          "type": "address"
        },
        {
          "internalType": "bool",
          "name": "approved",
          "type": "bool"
        }
      ],
      "name": "setApprovalForAll",
      "outputs": [],
      "stateMutability": "nonpayable",
      "type": "function"
    },
    {
      "inputs": [
        {
          "internalType": "address",
          "name": "receiver",
          "type": "address"
        },
        {
          "internalType": "uint96",
          "name": "numerator",
          "type": "uint96"
        }
      ],
      "name": "setDefaultRoyalty",
      "outputs": [],
      "stateMutability": "nonpayable",
      "type": "function"
    },
    {
      "inputs": [
        {
          "internalType": "bytes4",
          "name": "interfaceId",
          "type": "bytes4"
        }
      ],
      "name": "supportsInterface",
      "outputs": [
        {
          "internalType": "bool",
          "name": "",
          "type": "bool"
        }
      ],
      "stateMutability": "view",
      "type": "function"
    },
    {
      "inputs": [],
      "name": "symbol",
      "outputs": [
        {
          "internalType": "string",
          "name": "",
          "type": "string"
        }
      ],
      "stateMutability": "view",
      "type": "function"
    },
    {
      "inputs": [
        {
          "internalType": "uint256",
          "name": "tokenId",
          "type": "uint256"
        }
      ],
      "name": "tokenURI",
      "outputs": [
        {
          "internalType": "string",
          "name": "",
          "type": "string"
        }
      ],
      "stateMutability": "view",
      "type": "function"
    },
    {
      "inputs": [
        {
          "internalType": "address",
          "name": "from",
          "type": "address"
        },
        {
          "internalType": "address",
          "name": "to",
          "type": "address"
        },
        {
          "internalType": "uint256",
          "name": "tokenId",
          "type": "uint256"
        }
      ],
      "name": "transferFrom",
      "outputs": [],
      "stateMutability": "nonpayable",
      "type": "function"
    },
    {
      "inputs": [
        {
          "internalType": "address",
          "name": "newOwner",
          "type": "address"
        }
      ],
      "name": "transferOwnership",
      "outputs": [],
      "stateMutability": "nonpayable",
      "type": "function"
    },
    {
      "inputs": [
        {
          "internalType": "uint256",
          "name": "_mintPrice",
          "type": "uint256"
        }
      ],
      "name": "updateMintPrice",
      "outputs": [],
      "stateMutability": "nonpayable",
      "type": "function"
    },
    {
      "inputs": [],
      "name": "withdrawFunds",
      "outputs": [],
      "stateMutability": "nonpayable",
      "type": "function"
    }
  ],
  "bytecode": "0x60806040526000600b553480156200001657600080fd5b506040518060400160405280600b81526020017f4d696e744d6573736167650000000000000000000000000000000000000000008152506040518060400160405280600381526020017f4d534700000000000000000000000000000000000000000000000000000000008152508160009081620000949190620005f1565b508060019081620000a69190620005f1565b505050620000c9620000bd620000fc60201b60201c565b6200010460201b60201c565b620000f6731f19faf55ef10deb3df7002265efa583be14afab6103e8620001ca60201b62000efb1760201c565b620007f3565b600033905090565b6000600760009054906101000a900473ffffffffffffffffffffffffffffffffffffffff16905081600760006101000a81548173ffffffffffffffffffffffffffffffffffffffff021916908373ffffffffffffffffffffffffffffffffffffffff1602179055508173ffffffffffffffffffffffffffffffffffffffff168173ffffffffffffffffffffffffffffffffffffffff167f8be0079c531659141344cd1fd0a4f28419497f9722a3daafe3b4186f6b6457e060405160405180910390a35050565b620001da6200036d60201b60201c565b6bffffffffffffffffffffffff16816bffffffffffffffffffffffff1611156200023b576040517f08c379a000000000000000000000000000000000000000000000000000000000815260040162000232906200075f565b60405180910390fd5b600073ffffffffffffffffffffffffffffffffffffffff168273ffffffffffffffffffffffffffffffffffffffff1603620002ad576040517f08c379a0000000000000000000000000000000000000000000000000000000008152600401620002a490620007d1565b60405180910390fd5b60405180604001604052808373ffffffffffffffffffffffffffffffffffffffff168152602001826bffffffffffffffffffffffff16815250600860008201518160000160006101000a81548173ffffffffffffffffffffffffffffffffffffffff021916908373ffffffffffffffffffffffffffffffffffffffff16021790555060208201518160000160146101000a8154816bffffffffffffffffffffffff02191690836bffffffffffffffffffffffff1602179055509050505050565b6000612710905090565b600081519050919050565b7f4e487b7100000000000000000000000000000000000000000000000000000000600052604160045260246000fd5b7f4e487b7100000000000000000000000000000000000000000000000000000000600052602260045260246000fd5b60006002820490506001821680620003f957607f821691505b6020821081036200040f576200040e620003b1565b5b50919050565b60008190508160005260206000209050919050565b60006020601f8301049050919050565b600082821b905092915050565b600060088302620004797fffffffffffffffffffffffffffffffffffffffffffffffffffffffffffffffff826200043a565b6200048586836200043a565b95508019841693508086168417925050509392505050565b6000819050919050565b6000819050919050565b6000620004d2620004cc620004c6846200049d565b620004a7565b6200049d565b9050919050565b6000819050919050565b620004ee83620004b1565b62000506620004fd82620004d9565b84845462000447565b825550505050565b600090565b6200051d6200050e565b6200052a818484620004e3565b505050565b5b8181101562000552576200054660008262000513565b60018101905062000530565b5050565b601f821115620005a1576200056b8162000415565b62000576846200042a565b8101602085101562000586578190505b6200059e62000595856200042a565b8301826200052f565b50505b505050565b600082821c905092915050565b6000620005c660001984600802620005a6565b1980831691505092915050565b6000620005e18383620005b3565b9150826002028217905092915050565b620005fc8262000377565b67ffffffffffffffff81111562000618576200061762000382565b5b620006248254620003e0565b6200063182828562000556565b600060209050601f83116001811462000669576000841562000654578287015190505b620006608582620005d3565b865550620006d0565b601f198416620006798662000415565b60005b82811015620006a3578489015182556001820191506020850194506020810190506200067c565b86831015620006c35784890151620006bf601f891682620005b3565b8355505b6001600288020188555050505b505050505050565b600082825260208201905092915050565b7f455243323938313a20726f79616c7479206665652077696c6c2065786365656460008201527f2073616c65507269636500000000000000000000000000000000000000000000602082015250565b600062000747602a83620006d8565b91506200075482620006e9565b604082019050919050565b600060208201905081810360008301526200077a8162000738565b9050919050565b7f455243323938313a20696e76616c696420726563656976657200000000000000600082015250565b6000620007b9601983620006d8565b9150620007c68262000781565b602082019050919050565b60006020820190508181036000830152620007ec81620007aa565b9050919050565b613bfd80620008036000396000f3fe60806040526004361061013f5760003560e01c80636352211e116100b6578063a22cb4651161006f578063a22cb46514610446578063b88d4fde1461046f578063c87b56dd14610498578063d4ab39b1146104d5578063e985e9c5146104f1578063f2fde38b1461052e5761013f565b80636352211e146103345780636817c76c1461037157806370a082311461039c578063715018a6146103d95780638da5cb5b146103f057806395d89b411461041b5761013f565b8063095ea7b311610108578063095ea7b31461023b57806323b872dd1461026457806324600fc31461028d5780632a55205a146102a457806342842e0e146102e257806342966c681461030b5761013f565b8062728e461461014457806301ffc9a71461016d57806304634d8d146101aa57806306fdde03146101d3578063081812fc146101fe575b600080fd5b34801561015057600080fd5b5061016b60048036038101906101669190612634565b610557565b005b34801561017957600080fd5b50610194600480360381019061018f91906126b9565b610569565b6040516101a19190612701565b60405180910390f35b3480156101b657600080fd5b506101d160048036038101906101cc91906127be565b61057b565b005b3480156101df57600080fd5b506101e8610591565b6040516101f5919061288e565b60405180910390f35b34801561020a57600080fd5b5061022560048036038101906102209190612634565b610623565b60405161023291906128bf565b60405180910390f35b34801561024757600080fd5b50610262600480360381019061025d91906128da565b610669565b005b34801561027057600080fd5b5061028b6004803603810190610286919061291a565b610780565b005b34801561029957600080fd5b506102a26107e0565b005b3480156102b057600080fd5b506102cb60048036038101906102c6919061296d565b610831565b6040516102d99291906129bc565b60405180910390f35b3480156102ee57600080fd5b506103096004803603810190610304919061291a565b610a1b565b005b34801561031757600080fd5b50610332600480360381019061032d9190612634565b610a3b565b005b34801561034057600080fd5b5061035b60048036038101906103569190612634565b610a97565b60405161036891906128bf565b60405180910390f35b34801561037d57600080fd5b50610386610b1d565b60405161039391906129e5565b60405180910390f35b3480156103a857600080fd5b506103c360048036038101906103be9190612a00565b610b23565b6040516103d091906129e5565b60405180910390f35b3480156103e557600080fd5b506103ee610bda565b005b3480156103fc57600080fd5b50610405610bee565b60405161041291906128bf565b60405180910390f35b34801561042757600080fd5b50610430610c18565b60405161043d919061288e565b60405180910390f35b34801561045257600080fd5b5061046d60048036038101906104689190612a59565b610caa565b005b34801561047b57600080fd5b5061049660048036038101906104919190612bce565b610cc0565b005b3480156104a457600080fd5b506104bf60048036038101906104ba9190612634565b610d22565b6040516104cc919061288e565b60405180910390f35b6104ef60048036038101906104ea9190612cf2565b610d34565b005b3480156104fd57600080fd5b5061051860048036038101906105139190612d4e565b610de4565b6040516105259190612701565b60405180910390f35b34801561053a57600080fd5b5061055560048036038101906105509190612a00565b610e78565b005b61055f611090565b80600b8190555050565b60006105748261110e565b9050919050565b610583611090565b61058d8282610efb565b5050565b6060600080546105a090612dbd565b80601f01602080910402602001604051908101604052809291908181526020018280546105cc90612dbd565b80156106195780601f106105ee57610100808354040283529160200191610619565b820191906000526020600020905b8154815290600101906020018083116105fc57829003601f168201915b5050505050905090565b600061062e82611188565b6004600083815260200190815260200160002060009054906101000a900473ffffffffffffffffffffffffffffffffffffffff169050919050565b600061067482610a97565b90508073ffffffffffffffffffffffffffffffffffffffff168373ffffffffffffffffffffffffffffffffffffffff16036106e4576040517f08c379a00000000000000000000000000000000000000000000000000000000081526004016106db90612e60565b60405180910390fd5b8073ffffffffffffffffffffffffffffffffffffffff166107036111d3565b73ffffffffffffffffffffffffffffffffffffffff16148061073257506107318161072c6111d3565b610de4565b5b610771576040517f08c379a000000000000000000000000000000000000000000000000000000000815260040161076890612ef2565b60405180910390fd5b61077b83836111db565b505050565b61079161078b6111d3565b82611294565b6107d0576040517f08c379a00000000000000000000000000000000000000000000000000000000081526004016107c790612f84565b60405180910390fd5b6107db838383611329565b505050565b6107e8611090565b3373ffffffffffffffffffffffffffffffffffffffff166108fc479081150290604051600060405180830381858888f1935050505015801561082e573d6000803e3d6000fd5b50565b6000806000600960008681526020019081526020016000206040518060400160405290816000820160009054906101000a900473ffffffffffffffffffffffffffffffffffffffff1673ffffffffffffffffffffffffffffffffffffffff1673ffffffffffffffffffffffffffffffffffffffff1681526020016000820160149054906101000a90046bffffffffffffffffffffffff166bffffffffffffffffffffffff166bffffffffffffffffffffffff16815250509050600073ffffffffffffffffffffffffffffffffffffffff16816000015173ffffffffffffffffffffffffffffffffffffffff16036109c65760086040518060400160405290816000820160009054906101000a900473ffffffffffffffffffffffffffffffffffffffff1673ffffffffffffffffffffffffffffffffffffffff1673ffffffffffffffffffffffffffffffffffffffff1681526020016000820160149054906101000a90046bffffffffffffffffffffffff166bffffffffffffffffffffffff166bffffffffffffffffffffffff168152505090505b60006109d0611622565b6bffffffffffffffffffffffff1682602001516bffffffffffffffffffffffff16866109fc9190612fd3565b610a069190613044565b90508160000151819350935050509250929050565b610a3683838360405180602001604052806000815250610cc0565b505050565b610a4c610a466111d3565b82611294565b610a8b576040517f08c379a0000000000000000000000000000000000000000000000000000000008152600401610a8290612f84565b60405180910390fd5b610a948161162c565b50565b600080610aa383611638565b9050600073ffffffffffffffffffffffffffffffffffffffff168173ffffffffffffffffffffffffffffffffffffffff1603610b14576040517f08c379a0000000000000000000000000000000000000000000000000000000008152600401610b0b906130c1565b60405180910390fd5b80915050919050565b600b5481565b60008073ffffffffffffffffffffffffffffffffffffffff168273ffffffffffffffffffffffffffffffffffffffff1603610b93576040517f08c379a0000000000000000000000000000000000000000000000000000000008152600401610b8a90613153565b60405180910390fd5b600360008373ffffffffffffffffffffffffffffffffffffffff1673ffffffffffffffffffffffffffffffffffffffff168152602001908152602001600020549050919050565b610be2611090565b610bec6000611675565b565b6000600760009054906101000a900473ffffffffffffffffffffffffffffffffffffffff16905090565b606060018054610c2790612dbd565b80601f0160208091040260200160405190810160405280929190818152602001828054610c5390612dbd565b8015610ca05780601f10610c7557610100808354040283529160200191610ca0565b820191906000526020600020905b815481529060010190602001808311610c8357829003601f168201915b5050505050905090565b610cbc610cb56111d3565b838361173b565b5050565b610cd1610ccb6111d3565b83611294565b610d10576040517f08c379a0000000000000000000000000000000000000000000000000000000008152600401610d0790612f84565b60405180910390fd5b610d1c848484846118a7565b50505050565b6060610d2d82611903565b9050919050565b600b543414610d78576040517f08c379a0000000000000000000000000000000000000000000000000000000008152600401610d6f906131bf565b60405180910390fd5b6000610d84600a611a15565b9050610d90600a611a23565b610d9a8282611a39565b610da48184611c56565b7f93510f90f01b37e380a85e7be4a240a1b2c36c9e09b0d7ff89159a8ce06b6c28338383604051610dd7939291906131df565b60405180910390a1505050565b6000600560008473ffffffffffffffffffffffffffffffffffffffff1673ffffffffffffffffffffffffffffffffffffffff16815260200190815260200160002060008373ffffffffffffffffffffffffffffffffffffffff1673ffffffffffffffffffffffffffffffffffffffff16815260200190815260200160002060009054906101000a900460ff16905092915050565b610e80611090565b600073ffffffffffffffffffffffffffffffffffffffff168173ffffffffffffffffffffffffffffffffffffffff1603610eef576040517f08c379a0000000000000000000000000000000000000000000000000000000008152600401610ee690613288565b60405180910390fd5b610ef881611675565b50565b610f03611622565b6bffffffffffffffffffffffff16816bffffffffffffffffffffffff161115610f61576040517f08c379a0000000000000000000000000000000000000000000000000000000008152600401610f589061331a565b60405180910390fd5b600073ffffffffffffffffffffffffffffffffffffffff168273ffffffffffffffffffffffffffffffffffffffff1603610fd0576040517f08c379a0000000000000000000000000000000000000000000000000000000008152600401610fc790613386565b60405180910390fd5b60405180604001604052808373ffffffffffffffffffffffffffffffffffffffff168152602001826bffffffffffffffffffffffff16815250600860008201518160000160006101000a81548173ffffffffffffffffffffffffffffffffffffffff021916908373ffffffffffffffffffffffffffffffffffffffff16021790555060208201518160000160146101000a8154816bffffffffffffffffffffffff02191690836bffffffffffffffffffffffff1602179055509050505050565b6110986111d3565b73ffffffffffffffffffffffffffffffffffffffff166110b6610bee565b73ffffffffffffffffffffffffffffffffffffffff161461110c576040517f08c379a0000000000000000000000000000000000000000000000000000000008152600401611103906133f2565b60405180910390fd5b565b60007f2a55205a000000000000000000000000000000000000000000000000000000007bffffffffffffffffffffffffffffffffffffffffffffffffffffffff1916827bffffffffffffffffffffffffffffffffffffffffffffffffffffffff19161480611181575061118082611cc3565b5b9050919050565b61119181611da5565b6111d0576040517f08c379a00000000000000000000000000000000000000000000000000000000081526004016111c7906130c1565b60405180910390fd5b50565b600033905090565b816004600083815260200190815260200160002060006101000a81548173ffffffffffffffffffffffffffffffffffffffff021916908373ffffffffffffffffffffffffffffffffffffffff160217905550808273ffffffffffffffffffffffffffffffffffffffff1661124e83610a97565b73ffffffffffffffffffffffffffffffffffffffff167f8c5be1e5ebec7d5bd14f71427d1e84f3dd0314c0f7b2291e5b200ac8c7c3b92560405160405180910390a45050565b6000806112a083610a97565b90508073ffffffffffffffffffffffffffffffffffffffff168473ffffffffffffffffffffffffffffffffffffffff1614806112e257506112e18185610de4565b5b8061132057508373ffffffffffffffffffffffffffffffffffffffff1661130884610623565b73ffffffffffffffffffffffffffffffffffffffff16145b91505092915050565b8273ffffffffffffffffffffffffffffffffffffffff1661134982610a97565b73ffffffffffffffffffffffffffffffffffffffff161461139f576040517f08c379a000000000000000000000000000000000000000000000000000000000815260040161139690613484565b60405180910390fd5b600073ffffffffffffffffffffffffffffffffffffffff168273ffffffffffffffffffffffffffffffffffffffff160361140e576040517f08c379a000000000000000000000000000000000000000000000000000000000815260040161140590613516565b60405180910390fd5b61141b8383836001611de6565b8273ffffffffffffffffffffffffffffffffffffffff1661143b82610a97565b73ffffffffffffffffffffffffffffffffffffffff1614611491576040517f08c379a000000000000000000000000000000000000000000000000000000000815260040161148890613484565b60405180910390fd5b6004600082815260200190815260200160002060006101000a81549073ffffffffffffffffffffffffffffffffffffffff02191690556001600360008573ffffffffffffffffffffffffffffffffffffffff1673ffffffffffffffffffffffffffffffffffffffff168152602001908152602001600020600082825403925050819055506001600360008473ffffffffffffffffffffffffffffffffffffffff1673ffffffffffffffffffffffffffffffffffffffff16815260200190815260200160002060008282540192505081905550816002600083815260200190815260200160002060006101000a81548173ffffffffffffffffffffffffffffffffffffffff021916908373ffffffffffffffffffffffffffffffffffffffff160217905550808273ffffffffffffffffffffffffffffffffffffffff168473ffffffffffffffffffffffffffffffffffffffff167fddf252ad1be2c89b69c2b068fc378daa952ba7f163c4a11628f55a4df523b3ef60405160405180910390a461161d8383836001611f0c565b505050565b6000612710905090565b61163581611f12565b50565b60006002600083815260200190815260200160002060009054906101000a900473ffffffffffffffffffffffffffffffffffffffff169050919050565b6000600760009054906101000a900473ffffffffffffffffffffffffffffffffffffffff16905081600760006101000a81548173ffffffffffffffffffffffffffffffffffffffff021916908373ffffffffffffffffffffffffffffffffffffffff1602179055508173ffffffffffffffffffffffffffffffffffffffff168173ffffffffffffffffffffffffffffffffffffffff167f8be0079c531659141344cd1fd0a4f28419497f9722a3daafe3b4186f6b6457e060405160405180910390a35050565b8173ffffffffffffffffffffffffffffffffffffffff168373ffffffffffffffffffffffffffffffffffffffff16036117a9576040517f08c379a00000000000000000000000000000000000000000000000000000000081526004016117a090613582565b60405180910390fd5b80600560008573ffffffffffffffffffffffffffffffffffffffff1673ffffffffffffffffffffffffffffffffffffffff16815260200190815260200160002060008473ffffffffffffffffffffffffffffffffffffffff1673ffffffffffffffffffffffffffffffffffffffff16815260200190815260200160002060006101000a81548160ff0219169083151502179055508173ffffffffffffffffffffffffffffffffffffffff168373ffffffffffffffffffffffffffffffffffffffff167f17307eab39ab6107e8899845ad3d59bd9653f200f220920489ca2b5937696c318360405161189a9190612701565b60405180910390a3505050565b6118b2848484611329565b6118be84848484611f65565b6118fd576040517f08c379a00000000000000000000000000000000000000000000000000000000081526004016118f490613614565b60405180910390fd5b50505050565b606061190e82611188565b600060066000848152602001908152602001600020805461192e90612dbd565b80601f016020809104026020016040519081016040528092919081815260200182805461195a90612dbd565b80156119a75780601f1061197c576101008083540402835291602001916119a7565b820191906000526020600020905b81548152906001019060200180831161198a57829003601f168201915b5050505050905060006119b86120ec565b905060008151036119cd578192505050611a10565b600082511115611a025780826040516020016119ea929190613670565b60405160208183030381529060405292505050611a10565b611a0b84612129565b925050505b919050565b600081600001549050919050565b6001816000016000828254019250508190555050565b600073ffffffffffffffffffffffffffffffffffffffff168273ffffffffffffffffffffffffffffffffffffffff1603611aa8576040517f08c379a0000000000000000000000000000000000000000000000000000000008152600401611a9f906136e0565b60405180910390fd5b611ab181611da5565b15611af1576040517f08c379a0000000000000000000000000000000000000000000000000000000008152600401611ae89061374c565b60405180910390fd5b611aff600083836001611de6565b611b0881611da5565b15611b48576040517f08c379a0000000000000000000000000000000000000000000000000000000008152600401611b3f9061374c565b60405180910390fd5b6001600360008473ffffffffffffffffffffffffffffffffffffffff1673ffffffffffffffffffffffffffffffffffffffff16815260200190815260200160002060008282540192505081905550816002600083815260200190815260200160002060006101000a81548173ffffffffffffffffffffffffffffffffffffffff021916908373ffffffffffffffffffffffffffffffffffffffff160217905550808273ffffffffffffffffffffffffffffffffffffffff16600073ffffffffffffffffffffffffffffffffffffffff167fddf252ad1be2c89b69c2b068fc378daa952ba7f163c4a11628f55a4df523b3ef60405160405180910390a4611c52600083836001611f0c565b5050565b611c5f82611da5565b611c9e576040517f08c379a0000000000000000000000000000000000000000000000000000000008152600401611c95906137de565b60405180910390fd5b80600660008481526020019081526020016000209081611cbe91906139aa565b505050565b60007f80ac58cd000000000000000000000000000000000000000000000000000000007bffffffffffffffffffffffffffffffffffffffffffffffffffffffff1916827bffffffffffffffffffffffffffffffffffffffffffffffffffffffff19161480611d8e57507f5b5e139f000000000000000000000000000000000000000000000000000000007bffffffffffffffffffffffffffffffffffffffffffffffffffffffff1916827bffffffffffffffffffffffffffffffffffffffffffffffffffffffff1916145b80611d9e5750611d9d82612191565b5b9050919050565b60008073ffffffffffffffffffffffffffffffffffffffff16611dc783611638565b73ffffffffffffffffffffffffffffffffffffffff1614159050919050565b6001811115611f0657600073ffffffffffffffffffffffffffffffffffffffff168473ffffffffffffffffffffffffffffffffffffffff1614611e7a5780600360008673ffffffffffffffffffffffffffffffffffffffff1673ffffffffffffffffffffffffffffffffffffffff1681526020019081526020016000206000828254611e729190613a7c565b925050819055505b600073ffffffffffffffffffffffffffffffffffffffff168373ffffffffffffffffffffffffffffffffffffffff1614611f055780600360008573ffffffffffffffffffffffffffffffffffffffff1673ffffffffffffffffffffffffffffffffffffffff1681526020019081526020016000206000828254611efd9190613ab0565b925050819055505b5b50505050565b50505050565b611f1b816121fb565b6000600660008381526020019081526020016000208054611f3b90612dbd565b905014611f6257600660008281526020019081526020016000206000611f61919061258d565b5b50565b6000611f868473ffffffffffffffffffffffffffffffffffffffff16612349565b156120df578373ffffffffffffffffffffffffffffffffffffffff1663150b7a02611faf6111d3565b8786866040518563ffffffff1660e01b8152600401611fd19493929190613b39565b6020604051808303816000875af192505050801561200d57506040513d601f19601f8201168201806040525081019061200a9190613b9a565b60015b61208f573d806000811461203d576040519150601f19603f3d011682016040523d82523d6000602084013e612042565b606091505b506000815103612087576040517f08c379a000000000000000000000000000000000000000000000000000000000815260040161207e90613614565b60405180910390fd5b805181602001fd5b63150b7a0260e01b7bffffffffffffffffffffffffffffffffffffffffffffffffffffffff1916817bffffffffffffffffffffffffffffffffffffffffffffffffffffffff1916149150506120e4565b600190505b949350505050565b60606040518060400160405280601581526020017f68747470733a2f2f697066732e696f2f697066732f0000000000000000000000815250905090565b606061213482611188565b600061213e6120ec565b9050600081511161215e5760405180602001604052806000815250612189565b806121688461236c565b604051602001612179929190613670565b6040516020818303038152906040525b915050919050565b60007f01ffc9a7000000000000000000000000000000000000000000000000000000007bffffffffffffffffffffffffffffffffffffffffffffffffffffffff1916827bffffffffffffffffffffffffffffffffffffffffffffffffffffffff1916149050919050565b600061220682610a97565b9050612216816000846001611de6565b61221f82610a97565b90506004600083815260200190815260200160002060006101000a81549073ffffffffffffffffffffffffffffffffffffffff02191690556001600360008373ffffffffffffffffffffffffffffffffffffffff1673ffffffffffffffffffffffffffffffffffffffff168152602001908152602001600020600082825403925050819055506002600083815260200190815260200160002060006101000a81549073ffffffffffffffffffffffffffffffffffffffff021916905581600073ffffffffffffffffffffffffffffffffffffffff168273ffffffffffffffffffffffffffffffffffffffff167fddf252ad1be2c89b69c2b068fc378daa952ba7f163c4a11628f55a4df523b3ef60405160405180910390a4612345816000846001611f0c565b5050565b6000808273ffffffffffffffffffffffffffffffffffffffff163b119050919050565b60606000600161237b8461243a565b01905060008167ffffffffffffffff81111561239a57612399612aa3565b5b6040519080825280601f01601f1916602001820160405280156123cc5781602001600182028036833780820191505090505b509050600082602001820190505b60011561242f578080600190039150507f3031323334353637383961626364656600000000000000000000000000000000600a86061a8153600a858161242357612422613015565b5b049450600085036123da575b819350505050919050565b600080600090507a184f03e93ff9f4daa797ed6e38ed64bf6a1f0100000000000000008310612498577a184f03e93ff9f4daa797ed6e38ed64bf6a1f010000000000000000838161248e5761248d613015565b5b0492506040810190505b6d04ee2d6d415b85acef810000000083106124d5576d04ee2d6d415b85acef810000000083816124cb576124ca613015565b5b0492506020810190505b662386f26fc10000831061250457662386f26fc1000083816124fa576124f9613015565b5b0492506010810190505b6305f5e100831061252d576305f5e100838161252357612522613015565b5b0492506008810190505b612710831061255257612710838161254857612547613015565b5b0492506004810190505b60648310612575576064838161256b5761256a613015565b5b0492506002810190505b600a8310612584576001810190505b80915050919050565b50805461259990612dbd565b6000825580601f106125ab57506125ca565b601f0160209004906000526020600020908101906125c991906125cd565b5b50565b5b808211156125e65760008160009055506001016125ce565b5090565b6000604051905090565b600080fd5b600080fd5b6000819050919050565b612611816125fe565b811461261c57600080fd5b50565b60008135905061262e81612608565b92915050565b60006020828403121561264a576126496125f4565b5b60006126588482850161261f565b91505092915050565b60007fffffffff0000000000000000000000000000000000000000000000000000000082169050919050565b61269681612661565b81146126a157600080fd5b50565b6000813590506126b38161268d565b92915050565b6000602082840312156126cf576126ce6125f4565b5b60006126dd848285016126a4565b91505092915050565b60008115159050919050565b6126fb816126e6565b82525050565b600060208201905061271660008301846126f2565b92915050565b600073ffffffffffffffffffffffffffffffffffffffff82169050919050565b60006127478261271c565b9050919050565b6127578161273c565b811461276257600080fd5b50565b6000813590506127748161274e565b92915050565b60006bffffffffffffffffffffffff82169050919050565b61279b8161277a565b81146127a657600080fd5b50565b6000813590506127b881612792565b92915050565b600080604083850312156127d5576127d46125f4565b5b60006127e385828601612765565b92505060206127f4858286016127a9565b9150509250929050565b600081519050919050565b600082825260208201905092915050565b60005b8381101561283857808201518184015260208101905061281d565b60008484015250505050565b6000601f19601f8301169050919050565b6000612860826127fe565b61286a8185612809565b935061287a81856020860161281a565b61288381612844565b840191505092915050565b600060208201905081810360008301526128a88184612855565b905092915050565b6128b98161273c565b82525050565b60006020820190506128d460008301846128b0565b92915050565b600080604083850312156128f1576128f06125f4565b5b60006128ff85828601612765565b92505060206129108582860161261f565b9150509250929050565b600080600060608486031215612933576129326125f4565b5b600061294186828701612765565b935050602061295286828701612765565b92505060406129638682870161261f565b9150509250925092565b60008060408385031215612984576129836125f4565b5b60006129928582860161261f565b92505060206129a38582860161261f565b9150509250929050565b6129b6816125fe565b82525050565b60006040820190506129d160008301856128b0565b6129de60208301846129ad565b9392505050565b60006020820190506129fa60008301846129ad565b92915050565b600060208284031215612a1657612a156125f4565b5b6000612a2484828501612765565b91505092915050565b612a36816126e6565b8114612a4157600080fd5b50565b600081359050612a5381612a2d565b92915050565b60008060408385031215612a7057612a6f6125f4565b5b6000612a7e85828601612765565b9250506020612a8f85828601612a44565b9150509250929050565b600080fd5b600080fd5b7f4e487b7100000000000000000000000000000000000000000000000000000000600052604160045260246000fd5b612adb82612844565b810181811067ffffffffffffffff82111715612afa57612af9612aa3565b5b80604052505050565b6000612b0d6125ea565b9050612b198282612ad2565b919050565b600067ffffffffffffffff821115612b3957612b38612aa3565b5b612b4282612844565b9050602081019050919050565b82818337600083830152505050565b6000612b71612b6c84612b1e565b612b03565b905082815260208101848484011115612b8d57612b8c612a9e565b5b612b98848285612b4f565b509392505050565b600082601f830112612bb557612bb4612a99565b5b8135612bc5848260208601612b5e565b91505092915050565b60008060008060808587031215612be857612be76125f4565b5b6000612bf687828801612765565b9450506020612c0787828801612765565b9350506040612c188782880161261f565b925050606085013567ffffffffffffffff811115612c3957612c386125f9565b5b612c4587828801612ba0565b91505092959194509250565b600067ffffffffffffffff821115612c6c57612c6b612aa3565b5b612c7582612844565b9050602081019050919050565b6000612c95612c9084612c51565b612b03565b905082815260208101848484011115612cb157612cb0612a9e565b5b612cbc848285612b4f565b509392505050565b600082601f830112612cd957612cd8612a99565b5b8135612ce9848260208601612c82565b91505092915050565b60008060408385031215612d0957612d086125f4565b5b600083013567ffffffffffffffff811115612d2757612d266125f9565b5b612d3385828601612cc4565b9250506020612d4485828601612765565b9150509250929050565b60008060408385031215612d6557612d646125f4565b5b6000612d7385828601612765565b9250506020612d8485828601612765565b9150509250929050565b7f4e487b7100000000000000000000000000000000000000000000000000000000600052602260045260246000fd5b60006002820490506001821680612dd557607f821691505b602082108103612de857612de7612d8e565b5b50919050565b7f4552433732313a20617070726f76616c20746f2063757272656e74206f776e6560008201527f7200000000000000000000000000000000000000000000000000000000000000602082015250565b6000612e4a602183612809565b9150612e5582612dee565b604082019050919050565b60006020820190508181036000830152612e7981612e3d565b9050919050565b7f4552433732313a20617070726f76652063616c6c6572206973206e6f7420746f60008201527f6b656e206f776e6572206f7220617070726f76656420666f7220616c6c000000602082015250565b6000612edc603d83612809565b9150612ee782612e80565b604082019050919050565b60006020820190508181036000830152612f0b81612ecf565b9050919050565b7f4552433732313a2063616c6c6572206973206e6f7420746f6b656e206f776e6560008201527f72206f7220617070726f76656400000000000000000000000000000000000000602082015250565b6000612f6e602d83612809565b9150612f7982612f12565b604082019050919050565b60006020820190508181036000830152612f9d81612f61565b9050919050565b7f4e487b7100000000000000000000000000000000000000000000000000000000600052601160045260246000fd5b6000612fde826125fe565b9150612fe9836125fe565b9250828202612ff7816125fe565b9150828204841483151761300e5761300d612fa4565b5b5092915050565b7f4e487b7100000000000000000000000000000000000000000000000000000000600052601260045260246000fd5b600061304f826125fe565b915061305a836125fe565b92508261306a57613069613015565b5b828204905092915050565b7f4552433732313a20696e76616c696420746f6b656e2049440000000000000000600082015250565b60006130ab601883612809565b91506130b682613075565b602082019050919050565b600060208201905081810360008301526130da8161309e565b9050919050565b7f4552433732313a2061646472657373207a65726f206973206e6f74206120766160008201527f6c6964206f776e65720000000000000000000000000000000000000000000000602082015250565b600061313d602983612809565b9150613148826130e1565b604082019050919050565b6000602082019050818103600083015261316c81613130565b9050919050565b7f496e73756666696369656e742066756e64730000000000000000000000000000600082015250565b60006131a9601283612809565b91506131b482613173565b602082019050919050565b600060208201905081810360008301526131d88161319c565b9050919050565b60006060820190506131f460008301866128b0565b61320160208301856128b0565b61320e60408301846129ad565b949350505050565b7f4f776e61626c653a206e6577206f776e657220697320746865207a65726f206160008201527f6464726573730000000000000000000000000000000000000000000000000000602082015250565b6000613272602683612809565b915061327d82613216565b604082019050919050565b600060208201905081810360008301526132a181613265565b9050919050565b7f455243323938313a20726f79616c7479206665652077696c6c2065786365656460008201527f2073616c65507269636500000000000000000000000000000000000000000000602082015250565b6000613304602a83612809565b915061330f826132a8565b604082019050919050565b60006020820190508181036000830152613333816132f7565b9050919050565b7f455243323938313a20696e76616c696420726563656976657200000000000000600082015250565b6000613370601983612809565b915061337b8261333a565b602082019050919050565b6000602082019050818103600083015261339f81613363565b9050919050565b7f4f776e61626c653a2063616c6c6572206973206e6f7420746865206f776e6572600082015250565b60006133dc602083612809565b91506133e7826133a6565b602082019050919050565b6000602082019050818103600083015261340b816133cf565b9050919050565b7f4552433732313a207472616e736665722066726f6d20696e636f72726563742060008201527f6f776e6572000000000000000000000000000000000000000000000000000000602082015250565b600061346e602583612809565b915061347982613412565b604082019050919050565b6000602082019050818103600083015261349d81613461565b9050919050565b7f4552433732313a207472616e7366657220746f20746865207a65726f2061646460008201527f7265737300000000000000000000000000000000000000000000000000000000602082015250565b6000613500602483612809565b915061350b826134a4565b604082019050919050565b6000602082019050818103600083015261352f816134f3565b9050919050565b7f4552433732313a20617070726f766520746f2063616c6c657200000000000000600082015250565b600061356c601983612809565b915061357782613536565b602082019050919050565b6000602082019050818103600083015261359b8161355f565b9050919050565b7f4552433732313a207472616e7366657220746f206e6f6e20455243373231526560008201527f63656976657220696d706c656d656e7465720000000000000000000000000000602082015250565b60006135fe603283612809565b9150613609826135a2565b604082019050919050565b6000602082019050818103600083015261362d816135f1565b9050919050565b600081905092915050565b600061364a826127fe565b6136548185613634565b935061366481856020860161281a565b80840191505092915050565b600061367c828561363f565b9150613688828461363f565b91508190509392505050565b7f4552433732313a206d696e7420746f20746865207a65726f2061646472657373600082015250565b60006136ca602083612809565b91506136d582613694565b602082019050919050565b600060208201905081810360008301526136f9816136bd565b9050919050565b7f4552433732313a20746f6b656e20616c7265616479206d696e74656400000000600082015250565b6000613736601c83612809565b915061374182613700565b602082019050919050565b6000602082019050818103600083015261376581613729565b9050919050565b7f45524337323155524953746f726167653a2055524920736574206f66206e6f6e60008201527f6578697374656e7420746f6b656e000000000000000000000000000000000000602082015250565b60006137c8602e83612809565b91506137d38261376c565b604082019050919050565b600060208201905081810360008301526137f7816137bb565b9050919050565b60008190508160005260206000209050919050565b60006020601f8301049050919050565b600082821b905092915050565b6000600883026138607fffffffffffffffffffffffffffffffffffffffffffffffffffffffffffffffff82613823565b61386a8683613823565b95508019841693508086168417925050509392505050565b6000819050919050565b60006138a76138a261389d846125fe565b613882565b6125fe565b9050919050565b6000819050919050565b6138c18361388c565b6138d56138cd826138ae565b848454613830565b825550505050565b600090565b6138ea6138dd565b6138f58184846138b8565b505050565b5b818110156139195761390e6000826138e2565b6001810190506138fb565b5050565b601f82111561395e5761392f816137fe565b61393884613813565b81016020851015613947578190505b61395b61395385613813565b8301826138fa565b50505b505050565b600082821c905092915050565b600061398160001984600802613963565b1980831691505092915050565b600061399a8383613970565b9150826002028217905092915050565b6139b3826127fe565b67ffffffffffffffff8111156139cc576139cb612aa3565b5b6139d68254612dbd565b6139e182828561391d565b600060209050601f831160018114613a145760008415613a02578287015190505b613a0c858261398e565b865550613a74565b601f198416613a22866137fe565b60005b82811015613a4a57848901518255600182019150602085019450602081019050613a25565b86831015613a675784890151613a63601f891682613970565b8355505b6001600288020188555050505b505050505050565b6000613a87826125fe565b9150613a92836125fe565b9250828203905081811115613aaa57613aa9612fa4565b5b92915050565b6000613abb826125fe565b9150613ac6836125fe565b9250828201905080821115613ade57613add612fa4565b5b92915050565b600081519050919050565b600082825260208201905092915050565b6000613b0b82613ae4565b613b158185613aef565b9350613b2581856020860161281a565b613b2e81612844565b840191505092915050565b6000608082019050613b4e60008301876128b0565b613b5b60208301866128b0565b613b6860408301856129ad565b8181036060830152613b7a8184613b00565b905095945050505050565b600081519050613b948161268d565b92915050565b600060208284031215613bb057613baf6125f4565b5b6000613bbe84828501613b85565b9150509291505056fea264697066735822122098f3c8c7731882185574d3f51030788fa448d90d67cdc9aacb96519a40452fbd64736f6c63430008110033",
  "linkReferences": {},
  "deployedLinkReferences": {}
}